{
  "address": "0xb2869F895FC24790e81EF05a3AeF0F23897eC33b",
  "abi": [
    {
      "inputs": [
        {
          "internalType": "string",
          "name": "name",
          "type": "string"
        },
        {
          "internalType": "string",
          "name": "symbol",
          "type": "string"
        },
        {
          "internalType": "uint256",
          "name": "_yieldRatePerBlock",
          "type": "uint256"
        }
      ],
      "stateMutability": "nonpayable",
      "type": "constructor"
    },
    {
      "inputs": [
        {
          "internalType": "address",
          "name": "spender",
          "type": "address"
        },
        {
          "internalType": "uint256",
          "name": "allowance",
          "type": "uint256"
        },
        {
          "internalType": "uint256",
          "name": "needed",
          "type": "uint256"
        }
      ],
      "name": "ERC20InsufficientAllowance",
      "type": "error"
    },
    {
      "inputs": [
        {
          "internalType": "address",
          "name": "sender",
          "type": "address"
        },
        {
          "internalType": "uint256",
          "name": "balance",
          "type": "uint256"
        },
        {
          "internalType": "uint256",
          "name": "needed",
          "type": "uint256"
        }
      ],
      "name": "ERC20InsufficientBalance",
      "type": "error"
    },
    {
      "inputs": [
        {
          "internalType": "address",
          "name": "approver",
          "type": "address"
        }
      ],
      "name": "ERC20InvalidApprover",
      "type": "error"
    },
    {
      "inputs": [
        {
          "internalType": "address",
          "name": "receiver",
          "type": "address"
        }
      ],
      "name": "ERC20InvalidReceiver",
      "type": "error"
    },
    {
      "inputs": [
        {
          "internalType": "address",
          "name": "sender",
          "type": "address"
        }
      ],
      "name": "ERC20InvalidSender",
      "type": "error"
    },
    {
      "inputs": [
        {
          "internalType": "address",
          "name": "spender",
          "type": "address"
        }
      ],
      "name": "ERC20InvalidSpender",
      "type": "error"
    },
    {
      "inputs": [
        {
          "internalType": "address",
          "name": "owner",
          "type": "address"
        }
      ],
      "name": "OwnableInvalidOwner",
      "type": "error"
    },
    {
      "inputs": [
        {
          "internalType": "address",
          "name": "account",
          "type": "address"
        }
      ],
      "name": "OwnableUnauthorizedAccount",
      "type": "error"
    },
    {
      "anonymous": false,
      "inputs": [
        {
          "indexed": true,
          "internalType": "address",
          "name": "owner",
          "type": "address"
        },
        {
          "indexed": true,
          "internalType": "address",
          "name": "spender",
          "type": "address"
        },
        {
          "indexed": false,
          "internalType": "uint256",
          "name": "value",
          "type": "uint256"
        }
      ],
      "name": "Approval",
      "type": "event"
    },
    {
      "anonymous": false,
      "inputs": [
        {
          "indexed": true,
          "internalType": "address",
          "name": "previousOwner",
          "type": "address"
        },
        {
          "indexed": true,
          "internalType": "address",
          "name": "newOwner",
          "type": "address"
        }
      ],
      "name": "OwnershipTransferred",
      "type": "event"
    },
    {
      "anonymous": false,
      "inputs": [
        {
          "indexed": true,
          "internalType": "address",
          "name": "from",
          "type": "address"
        },
        {
          "indexed": true,
          "internalType": "address",
          "name": "to",
          "type": "address"
        },
        {
          "indexed": false,
          "internalType": "uint256",
          "name": "value",
          "type": "uint256"
        }
      ],
      "name": "Transfer",
      "type": "event"
    },
    {
      "anonymous": false,
      "inputs": [
        {
          "indexed": true,
          "internalType": "address",
          "name": "user",
          "type": "address"
        },
        {
          "indexed": false,
          "internalType": "uint256",
          "name": "amount",
          "type": "uint256"
        }
      ],
      "name": "YieldClaimed",
      "type": "event"
    },
    {
      "anonymous": false,
      "inputs": [
        {
          "indexed": false,
          "internalType": "uint256",
          "name": "totalYield",
          "type": "uint256"
        },
        {
          "indexed": false,
          "internalType": "uint256",
          "name": "yieldPerToken",
          "type": "uint256"
        },
        {
          "indexed": false,
          "internalType": "uint256",
          "name": "blocksElapsed",
          "type": "uint256"
        }
      ],
      "name": "YieldDistributed",
      "type": "event"
    },
    {
      "anonymous": false,
      "inputs": [
        {
          "indexed": false,
          "internalType": "uint256",
          "name": "newRate",
          "type": "uint256"
        }
      ],
      "name": "YieldRateUpdated",
      "type": "event"
    },
    {
      "inputs": [],
      "name": "INITIAL_SUPPLY",
      "outputs": [
        {
          "internalType": "uint256",
          "name": "",
          "type": "uint256"
        }
      ],
      "stateMutability": "view",
      "type": "function"
    },
    {
      "inputs": [],
      "name": "YIELD_PRECISION",
      "outputs": [
        {
          "internalType": "uint256",
          "name": "",
          "type": "uint256"
        }
      ],
      "stateMutability": "view",
      "type": "function"
    },
    {
      "inputs": [],
      "name": "accumulatedYieldPerToken",
      "outputs": [
        {
          "internalType": "uint256",
          "name": "",
          "type": "uint256"
        }
      ],
      "stateMutability": "view",
      "type": "function"
    },
    {
      "inputs": [
        {
          "internalType": "address",
          "name": "owner",
          "type": "address"
        },
        {
          "internalType": "address",
          "name": "spender",
          "type": "address"
        }
      ],
      "name": "allowance",
      "outputs": [
        {
          "internalType": "uint256",
          "name": "",
          "type": "uint256"
        }
      ],
      "stateMutability": "view",
      "type": "function"
    },
    {
      "inputs": [
        {
          "internalType": "address",
          "name": "spender",
          "type": "address"
        },
        {
          "internalType": "uint256",
          "name": "value",
          "type": "uint256"
        }
      ],
      "name": "approve",
      "outputs": [
        {
          "internalType": "bool",
          "name": "",
          "type": "bool"
        }
      ],
      "stateMutability": "nonpayable",
      "type": "function"
    },
    {
      "inputs": [
        {
          "internalType": "address",
          "name": "account",
          "type": "address"
        }
      ],
      "name": "balanceOf",
      "outputs": [
        {
          "internalType": "uint256",
          "name": "",
          "type": "uint256"
        }
      ],
      "stateMutability": "view",
      "type": "function"
    },
    {
      "inputs": [],
      "name": "claimYield",
      "outputs": [],
      "stateMutability": "nonpayable",
      "type": "function"
    },
    {
      "inputs": [],
      "name": "decimals",
      "outputs": [
        {
          "internalType": "uint8",
          "name": "",
          "type": "uint8"
        }
      ],
      "stateMutability": "view",
      "type": "function"
    },
    {
      "inputs": [],
      "name": "faucet",
      "outputs": [],
      "stateMutability": "nonpayable",
      "type": "function"
    },
    {
      "inputs": [],
      "name": "getBlocksSinceLastUpdate",
      "outputs": [
        {
          "internalType": "uint256",
          "name": "",
          "type": "uint256"
        }
      ],
      "stateMutability": "view",
      "type": "function"
    },
    {
      "inputs": [],
      "name": "getCurrentBlock",
      "outputs": [
        {
          "internalType": "uint256",
          "name": "",
          "type": "uint256"
        }
      ],
      "stateMutability": "view",
      "type": "function"
    },
    {
      "inputs": [
        {
          "internalType": "address",
          "name": "user",
          "type": "address"
        },
        {
          "internalType": "uint256",
          "name": "blocks",
          "type": "uint256"
        }
      ],
      "name": "getExpectedYieldForBlocks",
      "outputs": [
        {
          "internalType": "uint256",
          "name": "",
          "type": "uint256"
        }
      ],
      "stateMutability": "view",
      "type": "function"
    },
    {
      "inputs": [
        {
          "internalType": "address",
          "name": "user",
          "type": "address"
        }
      ],
      "name": "getPendingYield",
      "outputs": [
        {
          "internalType": "uint256",
          "name": "",
          "type": "uint256"
        }
      ],
      "stateMutability": "view",
      "type": "function"
    },
    {
      "inputs": [],
      "name": "getYieldInfo",
      "outputs": [
        {
          "internalType": "uint256",
          "name": "ratePerBlock",
          "type": "uint256"
        },
        {
          "internalType": "uint256",
          "name": "lastBlock",
          "type": "uint256"
        },
        {
          "internalType": "uint256",
          "name": "currentBlock",
          "type": "uint256"
        },
        {
          "internalType": "uint256",
          "name": "blocksSinceUpdate",
          "type": "uint256"
        }
      ],
      "stateMutability": "view",
      "type": "function"
    },
    {
      "inputs": [],
      "name": "lastYieldBlock",
      "outputs": [
        {
          "internalType": "uint256",
          "name": "",
          "type": "uint256"
        }
      ],
      "stateMutability": "view",
      "type": "function"
    },
    {
      "inputs": [
        {
          "internalType": "address",
          "name": "to",
          "type": "address"
        },
        {
          "internalType": "uint256",
          "name": "amount",
          "type": "uint256"
        }
      ],
      "name": "mint",
      "outputs": [],
      "stateMutability": "nonpayable",
      "type": "function"
    },
    {
      "inputs": [],
      "name": "name",
      "outputs": [
        {
          "internalType": "string",
          "name": "",
          "type": "string"
        }
      ],
      "stateMutability": "view",
      "type": "function"
    },
    {
      "inputs": [],
      "name": "owner",
      "outputs": [
        {
          "internalType": "address",
          "name": "",
          "type": "address"
        }
      ],
      "stateMutability": "view",
      "type": "function"
    },
    {
      "inputs": [
        {
          "internalType": "address",
          "name": "",
          "type": "address"
        }
      ],
      "name": "pendingYield",
      "outputs": [
        {
          "internalType": "uint256",
          "name": "",
          "type": "uint256"
        }
      ],
      "stateMutability": "view",
      "type": "function"
    },
    {
      "inputs": [],
      "name": "renounceOwnership",
      "outputs": [],
      "stateMutability": "nonpayable",
      "type": "function"
    },
    {
      "inputs": [
        {
          "internalType": "uint256",
          "name": "_yieldRatePerBlock",
          "type": "uint256"
        }
      ],
      "name": "setYieldRatePerBlock",
      "outputs": [],
      "stateMutability": "nonpayable",
      "type": "function"
    },
    {
      "inputs": [
        {
          "internalType": "uint256",
          "name": "blocksToPass",
          "type": "uint256"
        }
      ],
      "name": "simulateBlocksPass",
      "outputs": [],
      "stateMutability": "nonpayable",
      "type": "function"
    },
    {
      "inputs": [],
      "name": "symbol",
      "outputs": [
        {
          "internalType": "string",
          "name": "",
          "type": "string"
        }
      ],
      "stateMutability": "view",
      "type": "function"
    },
    {
      "inputs": [],
      "name": "totalSupply",
      "outputs": [
        {
          "internalType": "uint256",
          "name": "",
          "type": "uint256"
        }
      ],
      "stateMutability": "view",
      "type": "function"
    },
    {
      "inputs": [
        {
          "internalType": "address",
          "name": "to",
          "type": "address"
        },
        {
          "internalType": "uint256",
          "name": "value",
          "type": "uint256"
        }
      ],
      "name": "transfer",
      "outputs": [
        {
          "internalType": "bool",
          "name": "",
          "type": "bool"
        }
      ],
      "stateMutability": "nonpayable",
      "type": "function"
    },
    {
      "inputs": [
        {
          "internalType": "address",
          "name": "from",
          "type": "address"
        },
        {
          "internalType": "address",
          "name": "to",
          "type": "address"
        },
        {
          "internalType": "uint256",
          "name": "value",
          "type": "uint256"
        }
      ],
      "name": "transferFrom",
      "outputs": [
        {
          "internalType": "bool",
          "name": "",
          "type": "bool"
        }
      ],
      "stateMutability": "nonpayable",
      "type": "function"
    },
    {
      "inputs": [
        {
          "internalType": "address",
          "name": "newOwner",
          "type": "address"
        }
      ],
      "name": "transferOwnership",
      "outputs": [],
      "stateMutability": "nonpayable",
      "type": "function"
    },
    {
      "inputs": [],
      "name": "updateYield",
      "outputs": [],
      "stateMutability": "nonpayable",
      "type": "function"
    },
    {
      "inputs": [
        {
          "internalType": "address",
          "name": "",
          "type": "address"
        }
      ],
      "name": "userYieldDebt",
      "outputs": [
        {
          "internalType": "uint256",
          "name": "",
          "type": "uint256"
        }
      ],
      "stateMutability": "view",
      "type": "function"
    },
    {
      "inputs": [],
      "name": "yieldRatePerBlock",
      "outputs": [
        {
          "internalType": "uint256",
          "name": "",
          "type": "uint256"
        }
      ],
      "stateMutability": "view",
      "type": "function"
    }
  ],
  "transactionHash": "0x2f59d7ee4b2f0bc26c6f08dd047be5a044f602f8a53543ae6a2c4c71fcd2909e",
  "args": [
    "Dual Staked CORE and BTC",
    "dualStake",
    10000000000
  ],
  "numDeployments": 3,
  "solcInputHash": "54a4787092a0b6a18009ac21a2b51874",
  "bytecode": "0x60806040523461048257611e978038038061001981610487565b9283398101906060818303126104825780516001600160401b03811161048257826100459183016104ac565b60208201519092906001600160401b038111610482576040916100699184016104ac565b91015182516001600160401b03811161038b57600354600181811c91168015610478575b602082101461036b57601f8111610413575b506020601f82116001146103ac57819293946000926103a1575b50508160011b916000199060031b1c1916176003555b81516001600160401b03811161038b57600454600181811c91168015610381575b602082101461036b57601f8111610306575b50602092601f82116001146102a15792819293600092610296575b50508160011b916000199060031b1c1916176004555b33156102805760058054336001600160a01b0319821681179092556001600160a01b03167f8be0079c531659141344cd1fd0a4f28419497f9722a3daafe3b4186f6b6457e0600080a36002546b033b2e3c9fd0803ce8000000810180911161026a5760025533600052600060205260406000206b033b2e3c9fd0803ce800000081540190556040516b033b2e3c9fd0803ce800000081526000600080516020611e7783398151915260203393a36002546b033b2e3c9fd0803ce8000000810180911161026a57600255734abda0097d7545de58608f7e36e0c1cac68b4943600081815280602052604081206b033b2e3c9fd0803ce80000008154019055600080516020611e7783398151915260206040516b033b2e3c9fd0803ce80000008152a34360075560065560405161195f90816105188239f35b634e487b7160e01b600052601160045260246000fd5b631e4fbdf760e01b600052600060045260246000fd5b01519050388061011d565b601f198216936004600052806000209160005b8681106102ee57508360019596106102d5575b505050811b01600455610133565b015160001960f88460031b161c191690553880806102c7565b919260206001819286850151815501940192016102b4565b60046000527f8a35acfbc15ff81a39ae7d344fd709f28e8600b4aa8c65c6b64bfe7fe36bd19b601f830160051c81019160208410610361575b601f0160051c01905b8181106103555750610102565b60008155600101610348565b909150819061033f565b634e487b7160e01b600052602260045260246000fd5b90607f16906100f0565b634e487b7160e01b600052604160045260246000fd5b0151905038806100b9565b601f198216906003600052806000209160005b8181106103fb575095836001959697106103e2575b505050811b016003556100cf565b015160001960f88460031b161c191690553880806103d4565b9192602060018192868b0151815501940192016103bf565b60036000527fc2575a0e9e593c00f959f8c92f12db2869c3395a3b0502d05e2516446f71f85b601f830160051c8101916020841061046e575b601f0160051c01905b818110610462575061009f565b60008155600101610455565b909150819061044c565b90607f169061008d565b600080fd5b6040519190601f01601f191682016001600160401b0381118382101761038b57604052565b81601f82011215610482578051906001600160401b03821161038b576104db601f8301601f1916602001610487565b92828452602083830101116104825760005b82811061050257505060206000918301015290565b806020809284010151828287010152016104ed56fe608080604052600436101561001357600080fd5b60003560e01c90816306fdde031461135857508063095ea7b3146112a7578063169ba64b1461126b578063173be41b1461120657806318160ddd146111ca57806323b872dd14610fa15780632ff2e9dc14610f5c5780633113be5d14610f0c578063313ce56714610ed2578063406cf22914610da357806340c10f1914610cf8578063537bb13714610b74578063672d5d3b14610b3b57806370a0823114610ad6578063715018a614610a3857806378a5331f146109c6578063857a85131461097457806387f6fcd3146109385780638da5cb5b146108e657806395d89b41146106eb578063a9059cbb14610604578063bb21a997146105cb578063bf0524f31461058a578063c7bf198014610525578063d0a11931146104d8578063d168e2031461049c578063dd62ed3e1461040c578063de5f72fd146102cd578063e3e664cd146102605763f2fde38b1461016957600080fd5b3461025b5760207ffffffffffffffffffffffffffffffffffffffffffffffffffffffffffffffffc36011261025b5773ffffffffffffffffffffffffffffffffffffffff6101b56114f7565b6101bd61173c565b16801561022c5773ffffffffffffffffffffffffffffffffffffffff600554827fffffffffffffffffffffffff0000000000000000000000000000000000000000821617600555167f8be0079c531659141344cd1fd0a4f28419497f9722a3daafe3b4186f6b6457e0600080a3005b7f1e4fbdf700000000000000000000000000000000000000000000000000000000600052600060045260246000fd5b600080fd5b3461025b5760007ffffffffffffffffffffffffffffffffffffffffffffffffffffffffffffffffc36011261025b5760806006546007548043116000146102c5576102ab8143611589565b905b60405192835260208301524360408301526060820152f35b6000906102ad565b3461025b5760007ffffffffffffffffffffffffffffffffffffffffffffffffffffffffffffffffc36011261025b5733600052600060205269021e19e0c9bab240000060406000205410156103ae576103246115a3565b61032d336116c2565b331561037f57610346683635c9adc5dea00000336118ae565b336000526000602052670de0b6b3a764000061036a6040600020546008549061153d565b04336000526009602052604060002055600080f35b7fec442f0500000000000000000000000000000000000000000000000000000000600052600060045260246000fd5b60646040517f08c379a000000000000000000000000000000000000000000000000000000000815260206004820152601a60248201527f416c7265616479206861766520656e6f75676820746f6b656e730000000000006044820152fd5b3461025b5760407ffffffffffffffffffffffffffffffffffffffffffffffffffffffffffffffffc36011261025b576104436114f7565b73ffffffffffffffffffffffffffffffffffffffff61046061151a565b9116600052600160205273ffffffffffffffffffffffffffffffffffffffff604060002091166000526020526020604060002054604051908152f35b3461025b5760007ffffffffffffffffffffffffffffffffffffffffffffffffffffffffffffffffc36011261025b576020600854604051908152f35b3461025b5760407ffffffffffffffffffffffffffffffffffffffffffffffffffffffffffffffffc36011261025b57602061051d6105146114f7565b60243590611673565b604051908152f35b3461025b5760207ffffffffffffffffffffffffffffffffffffffffffffffffffffffffffffffffc36011261025b5773ffffffffffffffffffffffffffffffffffffffff6105716114f7565b16600052600a6020526020604060002054604051908152f35b3461025b5760007ffffffffffffffffffffffffffffffffffffffffffffffffffffffffffffffffc36011261025b576020604051670de0b6b3a76400008152f35b3461025b5760007ffffffffffffffffffffffffffffffffffffffffffffffffffffffffffffffffc36011261025b576106026115a3565b005b3461025b5760407ffffffffffffffffffffffffffffffffffffffffffffffffffffffffffffffffc36011261025b5773ffffffffffffffffffffffffffffffffffffffff6106506114f7565b6106586115a3565b610661336116c2565b61066a816116c2565b61067760243582336117b3565b336000526000602052670de0b6b3a764000061069b6040600020546008549061153d565b0433600052600960205260406000205516806000526000602052670de0b6b3a76400006106d06040600020546008549061153d565b04906000526009602052604060002055602060405160018152f35b3461025b5760007ffffffffffffffffffffffffffffffffffffffffffffffffffffffffffffffffc36011261025b57604051600090600454918260011c600184169384156108dc575b6020821085146108af578394828552908160001461084f57506001146107d4575b5003601f017fffffffffffffffffffffffffffffffffffffffffffffffffffffffffffffffe01681019067ffffffffffffffff8211818310176107a5576107a18291826040528261148f565b0390f35b7f4e487b7100000000000000000000000000000000000000000000000000000000600052604160045260246000fd5b6004600090815291507f8a35acfbc15ff81a39ae7d344fd709f28e8600b4aa8c65c6b64bfe7fe36bd19b5b81831061083357505081016020017fffffffffffffffffffffffffffffffffffffffffffffffffffffffffffffffe0610755565b60209193508060019154838588010152019101909183926107ff565b7fffffffffffffffffffffffffffffffffffffffffffffffffffffffffffffff001660208581019190915291151560051b840190910191507fffffffffffffffffffffffffffffffffffffffffffffffffffffffffffffffe09050610755565b6024837f4e487b710000000000000000000000000000000000000000000000000000000081526022600452fd5b90607f1690610734565b3461025b5760007ffffffffffffffffffffffffffffffffffffffffffffffffffffffffffffffffc36011261025b57602073ffffffffffffffffffffffffffffffffffffffff60055416604051908152f35b3461025b5760007ffffffffffffffffffffffffffffffffffffffffffffffffffffffffffffffffc36011261025b576020600754604051908152f35b3461025b5760007ffffffffffffffffffffffffffffffffffffffffffffffffffffffffffffffffc36011261025b576007548043116000146109bc5761051d60209143611589565b506020600061051d565b3461025b5760207ffffffffffffffffffffffffffffffffffffffffffffffffffffffffffffffffc36011261025b577f5842a31a46ea5ce5b950bf6d04c8b832a9deae72e0e54bcf928f0d72123f28656020600435610a2361173c565b610a2b6115a3565b80600655604051908152a1005b3461025b5760007ffffffffffffffffffffffffffffffffffffffffffffffffffffffffffffffffc36011261025b57610a6f61173c565b600073ffffffffffffffffffffffffffffffffffffffff6005547fffffffffffffffffffffffff00000000000000000000000000000000000000008116600555167f8be0079c531659141344cd1fd0a4f28419497f9722a3daafe3b4186f6b6457e08280a3005b3461025b5760207ffffffffffffffffffffffffffffffffffffffffffffffffffffffffffffffffc36011261025b5773ffffffffffffffffffffffffffffffffffffffff610b226114f7565b1660005260006020526020604060002054604051908152f35b3461025b5760007ffffffffffffffffffffffffffffffffffffffffffffffffffffffffffffffffc36011261025b576020604051438152f35b3461025b5760207ffffffffffffffffffffffffffffffffffffffffffffffffffffffffffffffffc36011261025b57610bab6114f7565b60085460075480431180610ced575b610c27575b602061051d83610c13670de0b6b3a7640000610bff73ffffffffffffffffffffffffffffffffffffffff891693846000526000875260406000205461153d565b0482600052600a8552604060002054611596565b906000526009835260406000205490611589565b610c319043611589565b91670de0b6b3a7640000610c5360025494610c4e6006548761153d565b61153d565b04670de0b6b3a7640000810290808204670de0b6b3a76400001490151715610cbe57670de0b6b3a7640000610bff73ffffffffffffffffffffffffffffffffffffffff610cb261051d96610cac602099610c1397611550565b90611596565b95505050505091610bbf565b7f4e487b7100000000000000000000000000000000000000000000000000000000600052601160045260246000fd5b506002541515610bba565b3461025b5760407ffffffffffffffffffffffffffffffffffffffffffffffffffffffffffffffffc36011261025b5773ffffffffffffffffffffffffffffffffffffffff610d446114f7565b610d4c61173c565b610d546115a3565b610d5d816116c2565b610d696024358261178b565b16806000526000602052670de0b6b3a7640000610d8e6040600020546008549061153d565b04906000526009602052604060002055600080f35b3461025b5760007ffffffffffffffffffffffffffffffffffffffffffffffffffffffffffffffffc36011261025b57610dda6115a3565b610de3336116c2565b33600052600a6020526040600020548015610e745733600052600a60205260006040812055336000526000602052670de0b6b3a7640000610e2c6040600020546008549061153d565b04336000526009602052604060002055610e46813361178b565b6040519081527fc04825ba3f383b602255d2a13065a68e325c65c9e0ed5d031ea2b06f641873af60203392a2005b60646040517f08c379a000000000000000000000000000000000000000000000000000000000815260206004820152601160248201527f4e6f207969656c6420746f20636c61696d0000000000000000000000000000006044820152fd5b3461025b5760007ffffffffffffffffffffffffffffffffffffffffffffffffffffffffffffffffc36011261025b57602060405160128152f35b3461025b5760207ffffffffffffffffffffffffffffffffffffffffffffffffffffffffffffffffc36011261025b57610f4361173c565b610f51600435600754611589565b6007556106026115a3565b3461025b5760007ffffffffffffffffffffffffffffffffffffffffffffffffffffffffffffffffc36011261025b5760206040516b033b2e3c9fd0803ce80000008152f35b3461025b5760607ffffffffffffffffffffffffffffffffffffffffffffffffffffffffffffffffc36011261025b57610fd86114f7565b610fe061151a565b60443591610fec6115a3565b610ff5816116c2565b610ffe826116c2565b73ffffffffffffffffffffffffffffffffffffffff811690816000526001602052604060002073ffffffffffffffffffffffffffffffffffffffff33166000526020526040600020547fffffffffffffffffffffffffffffffffffffffffffffffffffffffffffffffff81106110e9575b5073ffffffffffffffffffffffffffffffffffffffff9383611090926117b3565b806000526000602052670de0b6b3a76400006110b46040600020546008549061153d565b0490600052600960205260406000205516806000526000602052670de0b6b3a76400006106d06040600020546008549061153d565b9380851061119557821561116657331561113757600083815260016020908152604080832033845290915290209481900390945573ffffffffffffffffffffffffffffffffffffffff61106f565b7f94280d6200000000000000000000000000000000000000000000000000000000600052600060045260246000fd5b7fe602df0500000000000000000000000000000000000000000000000000000000600052600060045260246000fd5b847ffb8f41b2000000000000000000000000000000000000000000000000000000006000523360045260245260445260646000fd5b3461025b5760007ffffffffffffffffffffffffffffffffffffffffffffffffffffffffffffffffc36011261025b576020600254604051908152f35b3461025b5760207ffffffffffffffffffffffffffffffffffffffffffffffffffffffffffffffffc36011261025b5773ffffffffffffffffffffffffffffffffffffffff6112526114f7565b1660005260096020526020604060002054604051908152f35b3461025b5760007ffffffffffffffffffffffffffffffffffffffffffffffffffffffffffffffffc36011261025b576020600654604051908152f35b3461025b5760407ffffffffffffffffffffffffffffffffffffffffffffffffffffffffffffffffc36011261025b576112de6114f7565b6024359033156111665773ffffffffffffffffffffffffffffffffffffffff1690811561113757336000526001602052604060002082600052602052806040600020556040519081527f8c5be1e5ebec7d5bd14f71427d1e84f3dd0314c0f7b2291e5b200ac8c7c3b92560203392a3602060405160018152f35b3461025b5760007ffffffffffffffffffffffffffffffffffffffffffffffffffffffffffffffffc36011261025b57600090600354918260011c60018416938415611485575b6020821085146108af578394828552908160001461084f575060011461140a575003601f017fffffffffffffffffffffffffffffffffffffffffffffffffffffffffffffffe01681019067ffffffffffffffff8211818310176107a5576107a18291826040528261148f565b6003600090815291507fc2575a0e9e593c00f959f8c92f12db2869c3395a3b0502d05e2516446f71f85b5b81831061146957505081016020017fffffffffffffffffffffffffffffffffffffffffffffffffffffffffffffffe0610755565b6020919350806001915483858801015201910190918392611435565b90607f169061139e565b9190916020815282519283602083015260005b8481106114e15750507fffffffffffffffffffffffffffffffffffffffffffffffffffffffffffffffe0601f8460006040809697860101520116010190565b80602080928401015160408286010152016114a2565b6004359073ffffffffffffffffffffffffffffffffffffffff8216820361025b57565b6024359073ffffffffffffffffffffffffffffffffffffffff8216820361025b57565b81810292918115918404141715610cbe57565b811561155a570490565b7f4e487b7100000000000000000000000000000000000000000000000000000000600052601260045260246000fd5b91908203918211610cbe57565b91908201809211610cbe57565b600754804311801590611669575b611666576115bf9043611589565b60025490670de0b6b3a76400006115dc82610c4e6006548661153d565b0480159182156115f1575b5050505043600755565b670de0b6b3a7640000820292828404670de0b6b3a7640000141715610cbe576116486116407ff571bb88b0ec5dc25398fc62c69d5970d50ea313a0a6596b0ca7f0197d37383f95606095611550565b600854611596565b8060085560405192835260208301526040820152a1388080806115e7565b50565b50600254156115b1565b73ffffffffffffffffffffffffffffffffffffffff16600052600060205260406000205480156116bb57670de0b6b3a764000091610c4e6116b7926006549061153d565b0490565b5050600090565b73ffffffffffffffffffffffffffffffffffffffff16806000526000602052604060002054806116f0575050565b670de0b6b3a764000061170961171f926008549061153d565b0482600052600960205260406000205490611589565b90600052600a6020526117386040600020918254611596565b9055565b73ffffffffffffffffffffffffffffffffffffffff60055416330361175d57565b7f118cdaa7000000000000000000000000000000000000000000000000000000006000523360045260246000fd5b9073ffffffffffffffffffffffffffffffffffffffff82161561037f576117b1916118ae565b565b73ffffffffffffffffffffffffffffffffffffffff1690811561187f5773ffffffffffffffffffffffffffffffffffffffff1691821561037f57600082815280602052604081205482811061184c5791604082827fddf252ad1be2c89b69c2b068fc378daa952ba7f163c4a11628f55a4df523b3ef958760209652828652038282205586815280845220818154019055604051908152a3565b6064937fe450d38c0000000000000000000000000000000000000000000000000000000083949352600452602452604452fd5b7f96c6fd1e00000000000000000000000000000000000000000000000000000000600052600060045260246000fd5b7fddf252ad1be2c89b69c2b068fc378daa952ba7f163c4a11628f55a4df523b3ef602073ffffffffffffffffffffffffffffffffffffffff6000936118f586600254611596565b6002551693841584146119145780600254036002555b604051908152a3565b8484528382526040842081815401905561190b56fea2646970667358221220f6eb5f08397692ba110fb9016a50b61ae4639584aba892a6096e6e220f5d241d64736f6c634300081e0033ddf252ad1be2c89b69c2b068fc378daa952ba7f163c4a11628f55a4df523b3ef",
  "devdoc": {
    "details": "Mock yield token for demo purposes with per-block yield generation",
    "errors": {
      "ERC20InsufficientAllowance(address,uint256,uint256)": [
        {
          "details": "Indicates a failure with the `spender`s `allowance`. Used in transfers.",
          "params": {
            "allowance": "Amount of tokens a `spender` is allowed to operate with.",
            "needed": "Minimum amount required to perform a transfer.",
            "spender": "Address that may be allowed to operate on tokens without being their owner."
          }
        }
      ],
      "ERC20InsufficientBalance(address,uint256,uint256)": [
        {
          "details": "Indicates an error related to the current `balance` of a `sender`. Used in transfers.",
          "params": {
            "balance": "Current balance for the interacting account.",
            "needed": "Minimum amount required to perform a transfer.",
            "sender": "Address whose tokens are being transferred."
          }
        }
      ],
      "ERC20InvalidApprover(address)": [
        {
          "details": "Indicates a failure with the `approver` of a token to be approved. Used in approvals.",
          "params": {
            "approver": "Address initiating an approval operation."
          }
        }
      ],
      "ERC20InvalidReceiver(address)": [
        {
          "details": "Indicates a failure with the token `receiver`. Used in transfers.",
          "params": {
            "receiver": "Address to which tokens are being transferred."
          }
        }
      ],
      "ERC20InvalidSender(address)": [
        {
          "details": "Indicates a failure with the token `sender`. Used in transfers.",
          "params": {
            "sender": "Address whose tokens are being transferred."
          }
        }
      ],
      "ERC20InvalidSpender(address)": [
        {
          "details": "Indicates a failure with the `spender` to be approved. Used in approvals.",
          "params": {
            "spender": "Address that may be allowed to operate on tokens without being their owner."
          }
        }
      ],
      "OwnableInvalidOwner(address)": [
        {
          "details": "The owner is not a valid owner account. (eg. `address(0)`)"
        }
      ],
      "OwnableUnauthorizedAccount(address)": [
        {
          "details": "The caller account is not authorized to perform an operation."
        }
      ]
    },
    "events": {
      "Approval(address,address,uint256)": {
        "details": "Emitted when the allowance of a `spender` for an `owner` is set by a call to {approve}. `value` is the new allowance."
      },
      "Transfer(address,address,uint256)": {
        "details": "Emitted when `value` tokens are moved from one account (`from`) to another (`to`). Note that `value` may be zero."
      }
    },
    "kind": "dev",
    "methods": {
      "allowance(address,address)": {
        "details": "Returns the remaining number of tokens that `spender` will be allowed to spend on behalf of `owner` through {transferFrom}. This is zero by default. This value changes when {approve} or {transferFrom} are called."
      },
      "approve(address,uint256)": {
        "details": "See {IERC20-approve}. NOTE: If `value` is the maximum `uint256`, the allowance is not updated on `transferFrom`. This is semantically equivalent to an infinite approval. Requirements: - `spender` cannot be the zero address."
      },
      "balanceOf(address)": {
        "details": "Returns the value of tokens owned by `account`."
      },
      "claimYield()": {
        "details": "Claim accumulated yield"
      },
      "decimals()": {
        "details": "Returns the number of decimals used to get its user representation. For example, if `decimals` equals `2`, a balance of `505` tokens should be displayed to a user as `5.05` (`505 / 10 ** 2`). Tokens usually opt for a value of 18, imitating the relationship between Ether and Wei. This is the default value returned by this function, unless it's overridden. NOTE: This information is only used for _display_ purposes: it in no way affects any of the arithmetic of the contract, including {IERC20-balanceOf} and {IERC20-transfer}."
      },
      "faucet()": {
        "details": "Faucet function for testing - anyone can get 1000 tokens"
      },
      "getBlocksSinceLastUpdate()": {
        "details": "Get blocks since last yield update"
      },
      "getCurrentBlock()": {
        "details": "Get current block number (for frontend reference)"
      },
      "getExpectedYieldForBlocks(address,uint256)": {
        "details": "Get expected yield for next N blocks"
      },
      "getPendingYield(address)": {
        "details": "Get pending yield for a user"
      },
      "getYieldInfo()": {
        "details": "Get yield rate information for display"
      },
      "mint(address,uint256)": {
        "details": "Mint tokens for testing"
      },
      "name()": {
        "details": "Returns the name of the token."
      },
      "owner()": {
        "details": "Returns the address of the current owner."
      },
      "renounceOwnership()": {
        "details": "Leaves the contract without owner. It will not be possible to call `onlyOwner` functions. Can only be called by the current owner. NOTE: Renouncing ownership will leave the contract without an owner, thereby disabling any functionality that is only available to the owner."
      },
      "setYieldRatePerBlock(uint256)": {
        "details": "Set yield rate per block (only owner, for testing)",
        "params": {
          "_yieldRatePerBlock": "New yield rate scaled by 1e18 (e.g., 800000000000 = 0.0000008 per block)"
        }
      },
      "simulateBlocksPass(uint256)": {
        "details": "Simulate blocks passing for testing (advance yield calculation)"
      },
      "symbol()": {
        "details": "Returns the symbol of the token, usually a shorter version of the name."
      },
      "totalSupply()": {
        "details": "Returns the value of tokens in existence."
      },
      "transfer(address,uint256)": {
        "details": "Update yield accumulation before any balance changes"
      },
      "transferFrom(address,address,uint256)": {
        "details": "Update yield accumulation before any balance changes"
      },
      "transferOwnership(address)": {
        "details": "Transfers ownership of the contract to a new account (`newOwner`). Can only be called by the current owner."
      },
      "updateYield()": {
        "details": "Update global yield accumulation based on blocks elapsed"
      }
    },
    "title": "MockYieldToken",
    "version": 1
  },
  "userdoc": {
    "kind": "user",
    "methods": {},
    "notice": "Earns 0.001% per block for easy demonstration of yield accumulation",
    "version": 1
  },
  "storageLayout": {
    "storage": [
      {
        "astId": 422,
        "contract": "contracts/MockYieldToken.sol:MockYieldToken",
        "label": "_balances",
        "offset": 0,
        "slot": "0",
        "type": "t_mapping(t_address,t_uint256)"
      },
      {
        "astId": 428,
        "contract": "contracts/MockYieldToken.sol:MockYieldToken",
        "label": "_allowances",
        "offset": 0,
        "slot": "1",
        "type": "t_mapping(t_address,t_mapping(t_address,t_uint256))"
      },
      {
        "astId": 430,
        "contract": "contracts/MockYieldToken.sol:MockYieldToken",
        "label": "_totalSupply",
        "offset": 0,
        "slot": "2",
        "type": "t_uint256"
      },
      {
        "astId": 432,
        "contract": "contracts/MockYieldToken.sol:MockYieldToken",
        "label": "_name",
        "offset": 0,
        "slot": "3",
        "type": "t_string_storage"
      },
      {
        "astId": 434,
        "contract": "contracts/MockYieldToken.sol:MockYieldToken",
        "label": "_symbol",
        "offset": 0,
        "slot": "4",
        "type": "t_string_storage"
      },
      {
        "astId": 8,
        "contract": "contracts/MockYieldToken.sol:MockYieldToken",
        "label": "_owner",
        "offset": 0,
        "slot": "5",
        "type": "t_address"
      },
      {
        "astId": 9189,
        "contract": "contracts/MockYieldToken.sol:MockYieldToken",
        "label": "yieldRatePerBlock",
        "offset": 0,
        "slot": "6",
        "type": "t_uint256"
      },
      {
        "astId": 9194,
        "contract": "contracts/MockYieldToken.sol:MockYieldToken",
        "label": "lastYieldBlock",
        "offset": 0,
        "slot": "7",
        "type": "t_uint256"
      },
      {
        "astId": 9196,
        "contract": "contracts/MockYieldToken.sol:MockYieldToken",
        "label": "accumulatedYieldPerToken",
        "offset": 0,
        "slot": "8",
        "type": "t_uint256"
      },
      {
        "astId": 9200,
        "contract": "contracts/MockYieldToken.sol:MockYieldToken",
        "label": "userYieldDebt",
        "offset": 0,
        "slot": "9",
        "type": "t_mapping(t_address,t_uint256)"
      },
      {
        "astId": 9204,
        "contract": "contracts/MockYieldToken.sol:MockYieldToken",
        "label": "pendingYield",
        "offset": 0,
        "slot": "10",
        "type": "t_mapping(t_address,t_uint256)"
      }
    ],
    "types": {
      "t_address": {
        "encoding": "inplace",
        "label": "address",
        "numberOfBytes": "20"
      },
      "t_mapping(t_address,t_mapping(t_address,t_uint256))": {
        "encoding": "mapping",
        "key": "t_address",
        "label": "mapping(address => mapping(address => uint256))",
        "numberOfBytes": "32",
        "value": "t_mapping(t_address,t_uint256)"
      },
      "t_mapping(t_address,t_uint256)": {
        "encoding": "mapping",
        "key": "t_address",
        "label": "mapping(address => uint256)",
        "numberOfBytes": "32",
        "value": "t_uint256"
      },
      "t_string_storage": {
        "encoding": "bytes",
        "label": "string",
        "numberOfBytes": "32"
      },
      "t_uint256": {
        "encoding": "inplace",
        "label": "uint256",
        "numberOfBytes": "32"
      }
    }
  }
}