{
  "address": "0x9ED133F814534B89c530909b9EfBAf226e6C9A4f",
  "abi": [
    {
      "inputs": [],
      "stateMutability": "nonpayable",
      "type": "constructor"
    },
    {
      "inputs": [
        {
          "internalType": "address",
          "name": "spender",
          "type": "address"
        },
        {
          "internalType": "uint256",
          "name": "allowance",
          "type": "uint256"
        },
        {
          "internalType": "uint256",
          "name": "needed",
          "type": "uint256"
        }
      ],
      "name": "ERC20InsufficientAllowance",
      "type": "error"
    },
    {
      "inputs": [
        {
          "internalType": "address",
          "name": "sender",
          "type": "address"
        },
        {
          "internalType": "uint256",
          "name": "balance",
          "type": "uint256"
        },
        {
          "internalType": "uint256",
          "name": "needed",
          "type": "uint256"
        }
      ],
      "name": "ERC20InsufficientBalance",
      "type": "error"
    },
    {
      "inputs": [
        {
          "internalType": "address",
          "name": "approver",
          "type": "address"
        }
      ],
      "name": "ERC20InvalidApprover",
      "type": "error"
    },
    {
      "inputs": [
        {
          "internalType": "address",
          "name": "receiver",
          "type": "address"
        }
      ],
      "name": "ERC20InvalidReceiver",
      "type": "error"
    },
    {
      "inputs": [
        {
          "internalType": "address",
          "name": "sender",
          "type": "address"
        }
      ],
      "name": "ERC20InvalidSender",
      "type": "error"
    },
    {
      "inputs": [
        {
          "internalType": "address",
          "name": "spender",
          "type": "address"
        }
      ],
      "name": "ERC20InvalidSpender",
      "type": "error"
    },
    {
      "inputs": [
        {
          "internalType": "address",
          "name": "owner",
          "type": "address"
        }
      ],
      "name": "OwnableInvalidOwner",
      "type": "error"
    },
    {
      "inputs": [
        {
          "internalType": "address",
          "name": "account",
          "type": "address"
        }
      ],
      "name": "OwnableUnauthorizedAccount",
      "type": "error"
    },
    {
      "anonymous": false,
      "inputs": [
        {
          "indexed": true,
          "internalType": "address",
          "name": "owner",
          "type": "address"
        },
        {
          "indexed": true,
          "internalType": "address",
          "name": "spender",
          "type": "address"
        },
        {
          "indexed": false,
          "internalType": "uint256",
          "name": "value",
          "type": "uint256"
        }
      ],
      "name": "Approval",
      "type": "event"
    },
    {
      "anonymous": false,
      "inputs": [
        {
          "indexed": true,
          "internalType": "address",
          "name": "previousOwner",
          "type": "address"
        },
        {
          "indexed": true,
          "internalType": "address",
          "name": "newOwner",
          "type": "address"
        }
      ],
      "name": "OwnershipTransferred",
      "type": "event"
    },
    {
      "anonymous": false,
      "inputs": [
        {
          "indexed": true,
          "internalType": "address",
          "name": "from",
          "type": "address"
        },
        {
          "indexed": true,
          "internalType": "address",
          "name": "to",
          "type": "address"
        },
        {
          "indexed": false,
          "internalType": "uint256",
          "name": "value",
          "type": "uint256"
        }
      ],
      "name": "Transfer",
      "type": "event"
    },
    {
      "anonymous": false,
      "inputs": [
        {
          "indexed": true,
          "internalType": "address",
          "name": "user",
          "type": "address"
        },
        {
          "indexed": false,
          "internalType": "uint256",
          "name": "amount",
          "type": "uint256"
        }
      ],
      "name": "YieldClaimed",
      "type": "event"
    },
    {
      "anonymous": false,
      "inputs": [
        {
          "indexed": false,
          "internalType": "uint256",
          "name": "totalYield",
          "type": "uint256"
        },
        {
          "indexed": false,
          "internalType": "uint256",
          "name": "yieldPerToken",
          "type": "uint256"
        },
        {
          "indexed": false,
          "internalType": "uint256",
          "name": "blocksElapsed",
          "type": "uint256"
        }
      ],
      "name": "YieldDistributed",
      "type": "event"
    },
    {
      "anonymous": false,
      "inputs": [
        {
          "indexed": false,
          "internalType": "uint256",
          "name": "newRate",
          "type": "uint256"
        }
      ],
      "name": "YieldRateUpdated",
      "type": "event"
    },
    {
      "inputs": [],
      "name": "INITIAL_SUPPLY",
      "outputs": [
        {
          "internalType": "uint256",
          "name": "",
          "type": "uint256"
        }
      ],
      "stateMutability": "view",
      "type": "function"
    },
    {
      "inputs": [],
      "name": "accumulatedYieldPerToken",
      "outputs": [
        {
          "internalType": "uint256",
          "name": "",
          "type": "uint256"
        }
      ],
      "stateMutability": "view",
      "type": "function"
    },
    {
      "inputs": [
        {
          "internalType": "address",
          "name": "owner",
          "type": "address"
        },
        {
          "internalType": "address",
          "name": "spender",
          "type": "address"
        }
      ],
      "name": "allowance",
      "outputs": [
        {
          "internalType": "uint256",
          "name": "",
          "type": "uint256"
        }
      ],
      "stateMutability": "view",
      "type": "function"
    },
    {
      "inputs": [
        {
          "internalType": "address",
          "name": "spender",
          "type": "address"
        },
        {
          "internalType": "uint256",
          "name": "value",
          "type": "uint256"
        }
      ],
      "name": "approve",
      "outputs": [
        {
          "internalType": "bool",
          "name": "",
          "type": "bool"
        }
      ],
      "stateMutability": "nonpayable",
      "type": "function"
    },
    {
      "inputs": [
        {
          "internalType": "address",
          "name": "account",
          "type": "address"
        }
      ],
      "name": "balanceOf",
      "outputs": [
        {
          "internalType": "uint256",
          "name": "",
          "type": "uint256"
        }
      ],
      "stateMutability": "view",
      "type": "function"
    },
    {
      "inputs": [],
      "name": "claimYield",
      "outputs": [],
      "stateMutability": "nonpayable",
      "type": "function"
    },
    {
      "inputs": [],
      "name": "decimals",
      "outputs": [
        {
          "internalType": "uint8",
          "name": "",
          "type": "uint8"
        }
      ],
      "stateMutability": "view",
      "type": "function"
    },
    {
      "inputs": [],
      "name": "faucet",
      "outputs": [],
      "stateMutability": "nonpayable",
      "type": "function"
    },
    {
      "inputs": [],
      "name": "getBlocksSinceLastUpdate",
      "outputs": [
        {
          "internalType": "uint256",
          "name": "",
          "type": "uint256"
        }
      ],
      "stateMutability": "view",
      "type": "function"
    },
    {
      "inputs": [],
      "name": "getCurrentBlock",
      "outputs": [
        {
          "internalType": "uint256",
          "name": "",
          "type": "uint256"
        }
      ],
      "stateMutability": "view",
      "type": "function"
    },
    {
      "inputs": [
        {
          "internalType": "address",
          "name": "user",
          "type": "address"
        },
        {
          "internalType": "uint256",
          "name": "blocks",
          "type": "uint256"
        }
      ],
      "name": "getExpectedYieldForBlocks",
      "outputs": [
        {
          "internalType": "uint256",
          "name": "",
          "type": "uint256"
        }
      ],
      "stateMutability": "view",
      "type": "function"
    },
    {
      "inputs": [
        {
          "internalType": "address",
          "name": "user",
          "type": "address"
        }
      ],
      "name": "getPendingYield",
      "outputs": [
        {
          "internalType": "uint256",
          "name": "",
          "type": "uint256"
        }
      ],
      "stateMutability": "view",
      "type": "function"
    },
    {
      "inputs": [],
      "name": "getYieldInfo",
      "outputs": [
        {
          "internalType": "uint256",
          "name": "ratePerBlock",
          "type": "uint256"
        },
        {
          "internalType": "uint256",
          "name": "lastBlock",
          "type": "uint256"
        },
        {
          "internalType": "uint256",
          "name": "currentBlock",
          "type": "uint256"
        },
        {
          "internalType": "uint256",
          "name": "blocksSinceUpdate",
          "type": "uint256"
        }
      ],
      "stateMutability": "view",
      "type": "function"
    },
    {
      "inputs": [],
      "name": "lastYieldBlock",
      "outputs": [
        {
          "internalType": "uint256",
          "name": "",
          "type": "uint256"
        }
      ],
      "stateMutability": "view",
      "type": "function"
    },
    {
      "inputs": [
        {
          "internalType": "address",
          "name": "to",
          "type": "address"
        },
        {
          "internalType": "uint256",
          "name": "amount",
          "type": "uint256"
        }
      ],
      "name": "mint",
      "outputs": [],
      "stateMutability": "nonpayable",
      "type": "function"
    },
    {
      "inputs": [],
      "name": "name",
      "outputs": [
        {
          "internalType": "string",
          "name": "",
          "type": "string"
        }
      ],
      "stateMutability": "view",
      "type": "function"
    },
    {
      "inputs": [],
      "name": "owner",
      "outputs": [
        {
          "internalType": "address",
          "name": "",
          "type": "address"
        }
      ],
      "stateMutability": "view",
      "type": "function"
    },
    {
      "inputs": [
        {
          "internalType": "address",
          "name": "",
          "type": "address"
        }
      ],
      "name": "pendingYield",
      "outputs": [
        {
          "internalType": "uint256",
          "name": "",
          "type": "uint256"
        }
      ],
      "stateMutability": "view",
      "type": "function"
    },
    {
      "inputs": [],
      "name": "renounceOwnership",
      "outputs": [],
      "stateMutability": "nonpayable",
      "type": "function"
    },
    {
      "inputs": [
        {
          "internalType": "uint256",
          "name": "_yieldRatePerBlock",
          "type": "uint256"
        }
      ],
      "name": "setYieldRatePerBlock",
      "outputs": [],
      "stateMutability": "nonpayable",
      "type": "function"
    },
    {
      "inputs": [
        {
          "internalType": "uint256",
          "name": "blocksToPass",
          "type": "uint256"
        }
      ],
      "name": "simulateBlocksPass",
      "outputs": [],
      "stateMutability": "nonpayable",
      "type": "function"
    },
    {
      "inputs": [],
      "name": "symbol",
      "outputs": [
        {
          "internalType": "string",
          "name": "",
          "type": "string"
        }
      ],
      "stateMutability": "view",
      "type": "function"
    },
    {
      "inputs": [],
      "name": "totalSupply",
      "outputs": [
        {
          "internalType": "uint256",
          "name": "",
          "type": "uint256"
        }
      ],
      "stateMutability": "view",
      "type": "function"
    },
    {
      "inputs": [
        {
          "internalType": "address",
          "name": "to",
          "type": "address"
        },
        {
          "internalType": "uint256",
          "name": "value",
          "type": "uint256"
        }
      ],
      "name": "transfer",
      "outputs": [
        {
          "internalType": "bool",
          "name": "",
          "type": "bool"
        }
      ],
      "stateMutability": "nonpayable",
      "type": "function"
    },
    {
      "inputs": [
        {
          "internalType": "address",
          "name": "from",
          "type": "address"
        },
        {
          "internalType": "address",
          "name": "to",
          "type": "address"
        },
        {
          "internalType": "uint256",
          "name": "value",
          "type": "uint256"
        }
      ],
      "name": "transferFrom",
      "outputs": [
        {
          "internalType": "bool",
          "name": "",
          "type": "bool"
        }
      ],
      "stateMutability": "nonpayable",
      "type": "function"
    },
    {
      "inputs": [
        {
          "internalType": "address",
          "name": "newOwner",
          "type": "address"
        }
      ],
      "name": "transferOwnership",
      "outputs": [],
      "stateMutability": "nonpayable",
      "type": "function"
    },
    {
      "inputs": [],
      "name": "updateYield",
      "outputs": [],
      "stateMutability": "nonpayable",
      "type": "function"
    },
    {
      "inputs": [
        {
          "internalType": "address",
          "name": "",
          "type": "address"
        }
      ],
      "name": "userYieldDebt",
      "outputs": [
        {
          "internalType": "uint256",
          "name": "",
          "type": "uint256"
        }
      ],
      "stateMutability": "view",
      "type": "function"
    },
    {
      "inputs": [],
      "name": "yieldRatePerBlock",
      "outputs": [
        {
          "internalType": "uint256",
          "name": "",
          "type": "uint256"
        }
      ],
      "stateMutability": "view",
      "type": "function"
    }
  ],
  "transactionHash": "0x94c0b5158cd48a644b32205d627877d1d70b3f20176c1bc84c9ddd17b2908d65",
  "args": [],
  "numDeployments": 1,
  "solcInputHash": "bc26f8f4d2af3a57983087f711257d1f",
  "bytecode": "0x60806040523461041a57604080519081016001600160401b03811182821017610325576040908152600b82526a4d6f636b205374434f524560a81b602083015280519081016001600160401b038111828210176103255760405260068152657374434f524560d01b602082015281516001600160401b03811161032557600354600181811c91168015610410575b602082101461030557601f81116103ab575b50602092601f8211600114610346579281929360009261033b575b50508160011b916000199060031b1c1916176003555b80516001600160401b03811161032557600454600181811c9116801561031b575b602082101461030557601f81116102a0575b50602091601f821160011461023c57918192600092610231575b50508160011b916000199060031b1c1916176004555b331561021b5760058054336001600160a01b0319821681179092556001600160a01b03167f8be0079c531659141344cd1fd0a4f28419497f9722a3daafe3b4186f6b6457e0600080a36001600655600060025469d3c21bcecceda100000081018091116102075760025550336000526000602052604060002069d3c21bcecceda1000000815401905560405169d3c21bcecceda1000000815260007fddf252ad1be2c89b69c2b068fc378daa952ba7f163c4a11628f55a4df523b3ef60203393a34360075560405161190590816104208239f35b634e487b7160e01b82526011600452602482fd5b631e4fbdf760e01b600052600060045260246000fd5b01519050388061011d565b601f198216926004600052806000209160005b8581106102885750836001951061026f575b505050811b01600455610133565b015160001960f88460031b161c19169055388080610261565b9192602060018192868501518155019401920161024f565b60046000527f8a35acfbc15ff81a39ae7d344fd709f28e8600b4aa8c65c6b64bfe7fe36bd19b601f830160051c810191602084106102fb575b601f0160051c01905b8181106102ef5750610103565b600081556001016102e2565b90915081906102d9565b634e487b7160e01b600052602260045260246000fd5b90607f16906100f1565b634e487b7160e01b600052604160045260246000fd5b0151905038806100ba565b601f198216936003600052806000209160005b868110610393575083600195961061037a575b505050811b016003556100d0565b015160001960f88460031b161c1916905538808061036c565b91926020600181928685015181550194019201610359565b60036000527fc2575a0e9e593c00f959f8c92f12db2869c3395a3b0502d05e2516446f71f85b601f830160051c81019160208410610406575b601f0160051c01905b8181106103fa575061009f565b600081556001016103ed565b90915081906103e4565b90607f169061008d565b600080fdfe608080604052600436101561001357600080fd5b60003560e01c90816306fdde031461130657508063095ea7b314611255578063169ba64b14611219578063173be41b146111b457806318160ddd1461117857806323b872dd14610f4f5780632ff2e9dc14610f0c5780633113be5d14610ebc578063313ce56714610e82578063406cf22914610d5357806340c10f1914610ca8578063537bb13714610b28578063672d5d3b14610aef57806370a0823114610a8a578063715018a6146109ec57806378a5331f1461097a578063857a85131461092857806387f6fcd3146108ec5780638da5cb5b1461089a57806395d89b411461069f578063a9059cbb146105b8578063bb21a9971461057f578063c7bf19801461051a578063d0a11931146104cd578063d168e20314610491578063dd62ed3e14610401578063de5f72fd146102c2578063e3e664cd146102555763f2fde38b1461015e57600080fd5b346102505760207ffffffffffffffffffffffffffffffffffffffffffffffffffffffffffffffffc3601126102505773ffffffffffffffffffffffffffffffffffffffff6101aa6114a5565b6101b26116e2565b1680156102215773ffffffffffffffffffffffffffffffffffffffff600554827fffffffffffffffffffffffff0000000000000000000000000000000000000000821617600555167f8be0079c531659141344cd1fd0a4f28419497f9722a3daafe3b4186f6b6457e0600080a3005b7f1e4fbdf700000000000000000000000000000000000000000000000000000000600052600060045260246000fd5b600080fd5b346102505760007ffffffffffffffffffffffffffffffffffffffffffffffffffffffffffffffffc3601126102505760806006546007548043116000146102ba576102a08143611537565b905b60405192835260208301524360408301526060820152f35b6000906102a2565b346102505760007ffffffffffffffffffffffffffffffffffffffffffffffffffffffffffffffffc3601126102505733600052600060205269021e19e0c9bab240000060406000205410156103a357610319611551565b61032233611668565b33156103745761033b683635c9adc5dea0000033611854565b336000526000602052670de0b6b3a764000061035f604060002054600854906114eb565b04336000526009602052604060002055600080f35b7fec442f0500000000000000000000000000000000000000000000000000000000600052600060045260246000fd5b60646040517f08c379a000000000000000000000000000000000000000000000000000000000815260206004820152601a60248201527f416c7265616479206861766520656e6f75676820746f6b656e730000000000006044820152fd5b346102505760407ffffffffffffffffffffffffffffffffffffffffffffffffffffffffffffffffc360112610250576104386114a5565b73ffffffffffffffffffffffffffffffffffffffff6104556114c8565b9116600052600160205273ffffffffffffffffffffffffffffffffffffffff604060002091166000526020526020604060002054604051908152f35b346102505760007ffffffffffffffffffffffffffffffffffffffffffffffffffffffffffffffffc360112610250576020600854604051908152f35b346102505760407ffffffffffffffffffffffffffffffffffffffffffffffffffffffffffffffffc3601126102505760206105126105096114a5565b6024359061161d565b604051908152f35b346102505760207ffffffffffffffffffffffffffffffffffffffffffffffffffffffffffffffffc3601126102505773ffffffffffffffffffffffffffffffffffffffff6105666114a5565b16600052600a6020526020604060002054604051908152f35b346102505760007ffffffffffffffffffffffffffffffffffffffffffffffffffffffffffffffffc360112610250576105b6611551565b005b346102505760407ffffffffffffffffffffffffffffffffffffffffffffffffffffffffffffffffc3601126102505773ffffffffffffffffffffffffffffffffffffffff6106046114a5565b61060c611551565b61061533611668565b61061e81611668565b61062b6024358233611759565b336000526000602052670de0b6b3a764000061064f604060002054600854906114eb565b0433600052600960205260406000205516806000526000602052670de0b6b3a7640000610684604060002054600854906114eb565b04906000526009602052604060002055602060405160018152f35b346102505760007ffffffffffffffffffffffffffffffffffffffffffffffffffffffffffffffffc36011261025057604051600090600454918260011c60018416938415610890575b60208210851461086357839482855290816000146108035750600114610788575b5003601f017fffffffffffffffffffffffffffffffffffffffffffffffffffffffffffffffe01681019067ffffffffffffffff821181831017610759576107558291826040528261143d565b0390f35b7f4e487b7100000000000000000000000000000000000000000000000000000000600052604160045260246000fd5b6004600090815291507f8a35acfbc15ff81a39ae7d344fd709f28e8600b4aa8c65c6b64bfe7fe36bd19b5b8183106107e757505081016020017fffffffffffffffffffffffffffffffffffffffffffffffffffffffffffffffe0610709565b60209193508060019154838588010152019101909183926107b3565b7fffffffffffffffffffffffffffffffffffffffffffffffffffffffffffffff001660208581019190915291151560051b840190910191507fffffffffffffffffffffffffffffffffffffffffffffffffffffffffffffffe09050610709565b6024837f4e487b710000000000000000000000000000000000000000000000000000000081526022600452fd5b90607f16906106e8565b346102505760007ffffffffffffffffffffffffffffffffffffffffffffffffffffffffffffffffc36011261025057602073ffffffffffffffffffffffffffffffffffffffff60055416604051908152f35b346102505760007ffffffffffffffffffffffffffffffffffffffffffffffffffffffffffffffffc360112610250576020600754604051908152f35b346102505760007ffffffffffffffffffffffffffffffffffffffffffffffffffffffffffffffffc360112610250576007548043116000146109705761051260209143611537565b5060206000610512565b346102505760207ffffffffffffffffffffffffffffffffffffffffffffffffffffffffffffffffc360112610250577f5842a31a46ea5ce5b950bf6d04c8b832a9deae72e0e54bcf928f0d72123f286560206004356109d76116e2565b6109df611551565b80600655604051908152a1005b346102505760007ffffffffffffffffffffffffffffffffffffffffffffffffffffffffffffffffc36011261025057610a236116e2565b600073ffffffffffffffffffffffffffffffffffffffff6005547fffffffffffffffffffffffff00000000000000000000000000000000000000008116600555167f8be0079c531659141344cd1fd0a4f28419497f9722a3daafe3b4186f6b6457e08280a3005b346102505760207ffffffffffffffffffffffffffffffffffffffffffffffffffffffffffffffffc3601126102505773ffffffffffffffffffffffffffffffffffffffff610ad66114a5565b1660005260006020526020604060002054604051908152f35b346102505760007ffffffffffffffffffffffffffffffffffffffffffffffffffffffffffffffffc360112610250576020604051438152f35b346102505760207ffffffffffffffffffffffffffffffffffffffffffffffffffffffffffffffffc36011261025057610b5f6114a5565b60085460075480431180610c9d575b610bdb575b602061051283610bc7670de0b6b3a7640000610bb373ffffffffffffffffffffffffffffffffffffffff89169384600052600087526040600020546114eb565b0482600052600a8552604060002054611544565b906000526009835260406000205490611537565b610be59043611537565b916305f5e100610c0360025494610bfe600654876114eb565b6114eb565b04670de0b6b3a7640000810290808204670de0b6b3a76400001490151715610c6e57670de0b6b3a7640000610bb373ffffffffffffffffffffffffffffffffffffffff610c6261051296610c5c602099610bc7976114fe565b90611544565b95505050505091610b73565b7f4e487b7100000000000000000000000000000000000000000000000000000000600052601160045260246000fd5b506002541515610b6e565b346102505760407ffffffffffffffffffffffffffffffffffffffffffffffffffffffffffffffffc3601126102505773ffffffffffffffffffffffffffffffffffffffff610cf46114a5565b610cfc6116e2565b610d04611551565b610d0d81611668565b610d1960243582611731565b16806000526000602052670de0b6b3a7640000610d3e604060002054600854906114eb565b04906000526009602052604060002055600080f35b346102505760007ffffffffffffffffffffffffffffffffffffffffffffffffffffffffffffffffc36011261025057610d8a611551565b610d9333611668565b33600052600a6020526040600020548015610e245733600052600a60205260006040812055336000526000602052670de0b6b3a7640000610ddc604060002054600854906114eb565b04336000526009602052604060002055610df68133611731565b6040519081527fc04825ba3f383b602255d2a13065a68e325c65c9e0ed5d031ea2b06f641873af60203392a2005b60646040517f08c379a000000000000000000000000000000000000000000000000000000000815260206004820152601160248201527f4e6f207969656c6420746f20636c61696d0000000000000000000000000000006044820152fd5b346102505760007ffffffffffffffffffffffffffffffffffffffffffffffffffffffffffffffffc36011261025057602060405160128152f35b346102505760207ffffffffffffffffffffffffffffffffffffffffffffffffffffffffffffffffc36011261025057610ef36116e2565b610f01600435600754611537565b6007556105b6611551565b346102505760007ffffffffffffffffffffffffffffffffffffffffffffffffffffffffffffffffc36011261025057602060405169d3c21bcecceda10000008152f35b346102505760607ffffffffffffffffffffffffffffffffffffffffffffffffffffffffffffffffc36011261025057610f866114a5565b610f8e6114c8565b60443591610f9a611551565b610fa381611668565b610fac82611668565b73ffffffffffffffffffffffffffffffffffffffff811690816000526001602052604060002073ffffffffffffffffffffffffffffffffffffffff33166000526020526040600020547fffffffffffffffffffffffffffffffffffffffffffffffffffffffffffffffff8110611097575b5073ffffffffffffffffffffffffffffffffffffffff938361103e92611759565b806000526000602052670de0b6b3a7640000611062604060002054600854906114eb565b0490600052600960205260406000205516806000526000602052670de0b6b3a7640000610684604060002054600854906114eb565b938085106111435782156111145733156110e557600083815260016020908152604080832033845290915290209481900390945573ffffffffffffffffffffffffffffffffffffffff61101d565b7f94280d6200000000000000000000000000000000000000000000000000000000600052600060045260246000fd5b7fe602df0500000000000000000000000000000000000000000000000000000000600052600060045260246000fd5b847ffb8f41b2000000000000000000000000000000000000000000000000000000006000523360045260245260445260646000fd5b346102505760007ffffffffffffffffffffffffffffffffffffffffffffffffffffffffffffffffc360112610250576020600254604051908152f35b346102505760207ffffffffffffffffffffffffffffffffffffffffffffffffffffffffffffffffc3601126102505773ffffffffffffffffffffffffffffffffffffffff6112006114a5565b1660005260096020526020604060002054604051908152f35b346102505760007ffffffffffffffffffffffffffffffffffffffffffffffffffffffffffffffffc360112610250576020600654604051908152f35b346102505760407ffffffffffffffffffffffffffffffffffffffffffffffffffffffffffffffffc3601126102505761128c6114a5565b6024359033156111145773ffffffffffffffffffffffffffffffffffffffff169081156110e557336000526001602052604060002082600052602052806040600020556040519081527f8c5be1e5ebec7d5bd14f71427d1e84f3dd0314c0f7b2291e5b200ac8c7c3b92560203392a3602060405160018152f35b346102505760007ffffffffffffffffffffffffffffffffffffffffffffffffffffffffffffffffc36011261025057600090600354918260011c60018416938415611433575b602082108514610863578394828552908160001461080357506001146113b8575003601f017fffffffffffffffffffffffffffffffffffffffffffffffffffffffffffffffe01681019067ffffffffffffffff821181831017610759576107558291826040528261143d565b6003600090815291507fc2575a0e9e593c00f959f8c92f12db2869c3395a3b0502d05e2516446f71f85b5b81831061141757505081016020017fffffffffffffffffffffffffffffffffffffffffffffffffffffffffffffffe0610709565b60209193508060019154838588010152019101909183926113e3565b90607f169061134c565b9190916020815282519283602083015260005b84811061148f5750507fffffffffffffffffffffffffffffffffffffffffffffffffffffffffffffffe0601f8460006040809697860101520116010190565b8060208092840101516040828601015201611450565b6004359073ffffffffffffffffffffffffffffffffffffffff8216820361025057565b6024359073ffffffffffffffffffffffffffffffffffffffff8216820361025057565b81810292918115918404141715610c6e57565b8115611508570490565b7f4e487b7100000000000000000000000000000000000000000000000000000000600052601260045260246000fd5b91908203918211610c6e57565b91908201809211610c6e57565b600754804311801590611613575b6116105761156d9043611537565b600254906305f5e10061158682610bfe600654866114eb565b04801591821561159b575b5050505043600755565b670de0b6b3a7640000820292828404670de0b6b3a7640000141715610c6e576115f26115ea7ff571bb88b0ec5dc25398fc62c69d5970d50ea313a0a6596b0ca7f0197d37383f956060956114fe565b600854611544565b8060085560405192835260208301526040820152a138808080611591565b50565b506002541561155f565b73ffffffffffffffffffffffffffffffffffffffff1660005260006020526040600020548015611661576305f5e10091610bfe61165d92600654906114eb565b0490565b5050600090565b73ffffffffffffffffffffffffffffffffffffffff1680600052600060205260406000205480611696575050565b670de0b6b3a76400006116af6116c592600854906114eb565b0482600052600960205260406000205490611537565b90600052600a6020526116de6040600020918254611544565b9055565b73ffffffffffffffffffffffffffffffffffffffff60055416330361170357565b7f118cdaa7000000000000000000000000000000000000000000000000000000006000523360045260246000fd5b9073ffffffffffffffffffffffffffffffffffffffff8216156103745761175791611854565b565b73ffffffffffffffffffffffffffffffffffffffff169081156118255773ffffffffffffffffffffffffffffffffffffffff169182156103745760008281528060205260408120548281106117f25791604082827fddf252ad1be2c89b69c2b068fc378daa952ba7f163c4a11628f55a4df523b3ef958760209652828652038282205586815280845220818154019055604051908152a3565b6064937fe450d38c0000000000000000000000000000000000000000000000000000000083949352600452602452604452fd5b7f96c6fd1e00000000000000000000000000000000000000000000000000000000600052600060045260246000fd5b7fddf252ad1be2c89b69c2b068fc378daa952ba7f163c4a11628f55a4df523b3ef602073ffffffffffffffffffffffffffffffffffffffff60009361189b86600254611544565b6002551693841584146118ba5780600254036002555b604051908152a3565b848452838252604084208181540190556118b156fea2646970667358221220a4ba51db85c64f374b46eaafa72caa243a283969247905c209a634bb6c87dd3864736f6c634300081e0033",
  "devdoc": {
    "details": "Mock staked CORE token for demo purposes with per-block yield generation",
    "errors": {
      "ERC20InsufficientAllowance(address,uint256,uint256)": [
        {
          "details": "Indicates a failure with the `spender`s `allowance`. Used in transfers.",
          "params": {
            "allowance": "Amount of tokens a `spender` is allowed to operate with.",
            "needed": "Minimum amount required to perform a transfer.",
            "spender": "Address that may be allowed to operate on tokens without being their owner."
          }
        }
      ],
      "ERC20InsufficientBalance(address,uint256,uint256)": [
        {
          "details": "Indicates an error related to the current `balance` of a `sender`. Used in transfers.",
          "params": {
            "balance": "Current balance for the interacting account.",
            "needed": "Minimum amount required to perform a transfer.",
            "sender": "Address whose tokens are being transferred."
          }
        }
      ],
      "ERC20InvalidApprover(address)": [
        {
          "details": "Indicates a failure with the `approver` of a token to be approved. Used in approvals.",
          "params": {
            "approver": "Address initiating an approval operation."
          }
        }
      ],
      "ERC20InvalidReceiver(address)": [
        {
          "details": "Indicates a failure with the token `receiver`. Used in transfers.",
          "params": {
            "receiver": "Address to which tokens are being transferred."
          }
        }
      ],
      "ERC20InvalidSender(address)": [
        {
          "details": "Indicates a failure with the token `sender`. Used in transfers.",
          "params": {
            "sender": "Address whose tokens are being transferred."
          }
        }
      ],
      "ERC20InvalidSpender(address)": [
        {
          "details": "Indicates a failure with the `spender` to be approved. Used in approvals.",
          "params": {
            "spender": "Address that may be allowed to operate on tokens without being their owner."
          }
        }
      ],
      "OwnableInvalidOwner(address)": [
        {
          "details": "The owner is not a valid owner account. (eg. `address(0)`)"
        }
      ],
      "OwnableUnauthorizedAccount(address)": [
        {
          "details": "The caller account is not authorized to perform an operation."
        }
      ]
    },
    "events": {
      "Approval(address,address,uint256)": {
        "details": "Emitted when the allowance of a `spender` for an `owner` is set by a call to {approve}. `value` is the new allowance."
      },
      "Transfer(address,address,uint256)": {
        "details": "Emitted when `value` tokens are moved from one account (`from`) to another (`to`). Note that `value` may be zero."
      }
    },
    "kind": "dev",
    "methods": {
      "allowance(address,address)": {
        "details": "Returns the remaining number of tokens that `spender` will be allowed to spend on behalf of `owner` through {transferFrom}. This is zero by default. This value changes when {approve} or {transferFrom} are called."
      },
      "approve(address,uint256)": {
        "details": "See {IERC20-approve}. NOTE: If `value` is the maximum `uint256`, the allowance is not updated on `transferFrom`. This is semantically equivalent to an infinite approval. Requirements: - `spender` cannot be the zero address."
      },
      "balanceOf(address)": {
        "details": "Returns the value of tokens owned by `account`."
      },
      "claimYield()": {
        "details": "Claim accumulated yield"
      },
      "decimals()": {
        "details": "Returns the number of decimals used to get its user representation. For example, if `decimals` equals `2`, a balance of `505` tokens should be displayed to a user as `5.05` (`505 / 10 ** 2`). Tokens usually opt for a value of 18, imitating the relationship between Ether and Wei. This is the default value returned by this function, unless it's overridden. NOTE: This information is only used for _display_ purposes: it in no way affects any of the arithmetic of the contract, including {IERC20-balanceOf} and {IERC20-transfer}."
      },
      "faucet()": {
        "details": "Faucet function for testing - anyone can get 1000 tokens"
      },
      "getBlocksSinceLastUpdate()": {
        "details": "Get blocks since last yield update"
      },
      "getCurrentBlock()": {
        "details": "Get current block number (for frontend reference)"
      },
      "getExpectedYieldForBlocks(address,uint256)": {
        "details": "Get expected yield for next N blocks"
      },
      "getPendingYield(address)": {
        "details": "Get pending yield for a user"
      },
      "getYieldInfo()": {
        "details": "Get yield rate information for display"
      },
      "mint(address,uint256)": {
        "details": "Mint tokens for testing"
      },
      "name()": {
        "details": "Returns the name of the token."
      },
      "owner()": {
        "details": "Returns the address of the current owner."
      },
      "renounceOwnership()": {
        "details": "Leaves the contract without owner. It will not be possible to call `onlyOwner` functions. Can only be called by the current owner. NOTE: Renouncing ownership will leave the contract without an owner, thereby disabling any functionality that is only available to the owner."
      },
      "setYieldRatePerBlock(uint256)": {
        "details": "Set yield rate per block (only owner, for testing)",
        "params": {
          "_yieldRatePerBlock": "New yield rate in basis points per 100,000 (1 = 0.001% per block)"
        }
      },
      "simulateBlocksPass(uint256)": {
        "details": "Simulate blocks passing for testing (advance yield calculation)"
      },
      "symbol()": {
        "details": "Returns the symbol of the token, usually a shorter version of the name."
      },
      "totalSupply()": {
        "details": "Returns the value of tokens in existence."
      },
      "transfer(address,uint256)": {
        "details": "Update yield accumulation before any balance changes"
      },
      "transferFrom(address,address,uint256)": {
        "details": "Update yield accumulation before any balance changes"
      },
      "transferOwnership(address)": {
        "details": "Transfers ownership of the contract to a new account (`newOwner`). Can only be called by the current owner."
      },
      "updateYield()": {
        "details": "Update global yield accumulation based on blocks elapsed"
      }
    },
    "title": "MockStCoreBlockEarner",
    "version": 1
  },
  "userdoc": {
    "kind": "user",
    "methods": {},
    "notice": "Earns 0.001% per block for easy demonstration of yield accumulation",
    "version": 1
  },
  "storageLayout": {
    "storage": [
      {
        "astId": 332,
        "contract": "contracts/MockStCoreBlockEarner.sol:MockStCoreBlockEarner",
        "label": "_balances",
        "offset": 0,
        "slot": "0",
        "type": "t_mapping(t_address,t_uint256)"
      },
      {
        "astId": 338,
        "contract": "contracts/MockStCoreBlockEarner.sol:MockStCoreBlockEarner",
        "label": "_allowances",
        "offset": 0,
        "slot": "1",
        "type": "t_mapping(t_address,t_mapping(t_address,t_uint256))"
      },
      {
        "astId": 340,
        "contract": "contracts/MockStCoreBlockEarner.sol:MockStCoreBlockEarner",
        "label": "_totalSupply",
        "offset": 0,
        "slot": "2",
        "type": "t_uint256"
      },
      {
        "astId": 342,
        "contract": "contracts/MockStCoreBlockEarner.sol:MockStCoreBlockEarner",
        "label": "_name",
        "offset": 0,
        "slot": "3",
        "type": "t_string_storage"
      },
      {
        "astId": 344,
        "contract": "contracts/MockStCoreBlockEarner.sol:MockStCoreBlockEarner",
        "label": "_symbol",
        "offset": 0,
        "slot": "4",
        "type": "t_string_storage"
      },
      {
        "astId": 8,
        "contract": "contracts/MockStCoreBlockEarner.sol:MockStCoreBlockEarner",
        "label": "_owner",
        "offset": 0,
        "slot": "5",
        "type": "t_address"
      },
      {
        "astId": 7986,
        "contract": "contracts/MockStCoreBlockEarner.sol:MockStCoreBlockEarner",
        "label": "yieldRatePerBlock",
        "offset": 0,
        "slot": "6",
        "type": "t_uint256"
      },
      {
        "astId": 7988,
        "contract": "contracts/MockStCoreBlockEarner.sol:MockStCoreBlockEarner",
        "label": "lastYieldBlock",
        "offset": 0,
        "slot": "7",
        "type": "t_uint256"
      },
      {
        "astId": 7990,
        "contract": "contracts/MockStCoreBlockEarner.sol:MockStCoreBlockEarner",
        "label": "accumulatedYieldPerToken",
        "offset": 0,
        "slot": "8",
        "type": "t_uint256"
      },
      {
        "astId": 7994,
        "contract": "contracts/MockStCoreBlockEarner.sol:MockStCoreBlockEarner",
        "label": "userYieldDebt",
        "offset": 0,
        "slot": "9",
        "type": "t_mapping(t_address,t_uint256)"
      },
      {
        "astId": 7998,
        "contract": "contracts/MockStCoreBlockEarner.sol:MockStCoreBlockEarner",
        "label": "pendingYield",
        "offset": 0,
        "slot": "10",
        "type": "t_mapping(t_address,t_uint256)"
      }
    ],
    "types": {
      "t_address": {
        "encoding": "inplace",
        "label": "address",
        "numberOfBytes": "20"
      },
      "t_mapping(t_address,t_mapping(t_address,t_uint256))": {
        "encoding": "mapping",
        "key": "t_address",
        "label": "mapping(address => mapping(address => uint256))",
        "numberOfBytes": "32",
        "value": "t_mapping(t_address,t_uint256)"
      },
      "t_mapping(t_address,t_uint256)": {
        "encoding": "mapping",
        "key": "t_address",
        "label": "mapping(address => uint256)",
        "numberOfBytes": "32",
        "value": "t_uint256"
      },
      "t_string_storage": {
        "encoding": "bytes",
        "label": "string",
        "numberOfBytes": "32"
      },
      "t_uint256": {
        "encoding": "inplace",
        "label": "uint256",
        "numberOfBytes": "32"
      }
    }
  }
}