{
  "address": "0x9F8FBFb135bfA9233347FA43516E6Ce233EA7e1D",
  "abi": [
    {
      "inputs": [],
      "stateMutability": "nonpayable",
      "type": "constructor"
    },
    {
      "inputs": [],
      "name": "InsufficientFee",
      "type": "error"
    },
    {
      "inputs": [],
      "name": "InsufficientPTBalance",
      "type": "error"
    },
    {
      "inputs": [],
      "name": "InsufficientSYBalance",
      "type": "error"
    },
    {
      "inputs": [],
      "name": "InsufficientYTBalance",
      "type": "error"
    },
    {
      "inputs": [],
      "name": "InvalidUnderlyingToken",
      "type": "error"
    },
    {
      "inputs": [],
      "name": "MaturityAlreadyExists",
      "type": "error"
    },
    {
      "inputs": [],
      "name": "MaturityTooFar",
      "type": "error"
    },
    {
      "inputs": [],
      "name": "MaturityTooSoon",
      "type": "error"
    },
    {
      "inputs": [],
      "name": "NoMaturityOptionsAvailable",
      "type": "error"
    },
    {
      "inputs": [],
      "name": "NoPTTokensToRedeem",
      "type": "error"
    },
    {
      "inputs": [],
      "name": "NoValidMaturityOptionsAvailable",
      "type": "error"
    },
    {
      "inputs": [],
      "name": "NoYieldToClaim",
      "type": "error"
    },
    {
      "inputs": [
        {
          "internalType": "address",
          "name": "owner",
          "type": "address"
        }
      ],
      "name": "OwnableInvalidOwner",
      "type": "error"
    },
    {
      "inputs": [
        {
          "internalType": "address",
          "name": "account",
          "type": "address"
        }
      ],
      "name": "OwnableUnauthorizedAccount",
      "type": "error"
    },
    {
      "inputs": [],
      "name": "PTTokenHasNotMatured",
      "type": "error"
    },
    {
      "inputs": [],
      "name": "ReentrancyGuardReentrantCall",
      "type": "error"
    },
    {
      "inputs": [],
      "name": "SYTokenDoesNotExist",
      "type": "error"
    },
    {
      "inputs": [],
      "name": "SYTokenHasMatured",
      "type": "error"
    },
    {
      "inputs": [
        {
          "internalType": "address",
          "name": "token",
          "type": "address"
        }
      ],
      "name": "SafeERC20FailedOperation",
      "type": "error"
    },
    {
      "inputs": [],
      "name": "TokenPairDoesNotExist",
      "type": "error"
    },
    {
      "inputs": [],
      "name": "YTTokenHasExpired",
      "type": "error"
    },
    {
      "anonymous": false,
      "inputs": [
        {
          "indexed": true,
          "internalType": "address",
          "name": "underlying",
          "type": "address"
        },
        {
          "indexed": false,
          "internalType": "uint256",
          "name": "maturity",
          "type": "uint256"
        },
        {
          "indexed": true,
          "internalType": "address",
          "name": "syToken",
          "type": "address"
        }
      ],
      "name": "MaturityOptionAdded",
      "type": "event"
    },
    {
      "anonymous": false,
      "inputs": [
        {
          "indexed": true,
          "internalType": "address",
          "name": "previousOwner",
          "type": "address"
        },
        {
          "indexed": true,
          "internalType": "address",
          "name": "newOwner",
          "type": "address"
        }
      ],
      "name": "OwnershipTransferred",
      "type": "event"
    },
    {
      "anonymous": false,
      "inputs": [
        {
          "indexed": true,
          "internalType": "address",
          "name": "user",
          "type": "address"
        },
        {
          "indexed": true,
          "internalType": "address",
          "name": "ptToken",
          "type": "address"
        },
        {
          "indexed": false,
          "internalType": "uint256",
          "name": "amount",
          "type": "uint256"
        }
      ],
      "name": "PTRedeemed",
      "type": "event"
    },
    {
      "anonymous": false,
      "inputs": [
        {
          "indexed": true,
          "internalType": "address",
          "name": "underlying",
          "type": "address"
        },
        {
          "indexed": true,
          "internalType": "address",
          "name": "syToken",
          "type": "address"
        },
        {
          "indexed": false,
          "internalType": "uint256",
          "name": "maturity",
          "type": "uint256"
        },
        {
          "indexed": false,
          "internalType": "uint256",
          "name": "yieldRate",
          "type": "uint256"
        },
        {
          "indexed": true,
          "internalType": "address",
          "name": "creator",
          "type": "address"
        }
      ],
      "name": "SYTokenCreated",
      "type": "event"
    },
    {
      "anonymous": false,
      "inputs": [
        {
          "indexed": true,
          "internalType": "address",
          "name": "user",
          "type": "address"
        },
        {
          "indexed": true,
          "internalType": "address",
          "name": "syToken",
          "type": "address"
        },
        {
          "indexed": false,
          "internalType": "uint256",
          "name": "amount",
          "type": "uint256"
        },
        {
          "indexed": false,
          "internalType": "address",
          "name": "ptToken",
          "type": "address"
        },
        {
          "indexed": false,
          "internalType": "address",
          "name": "ytToken",
          "type": "address"
        }
      ],
      "name": "TokensMerged",
      "type": "event"
    },
    {
      "anonymous": false,
      "inputs": [
        {
          "indexed": true,
          "internalType": "address",
          "name": "user",
          "type": "address"
        },
        {
          "indexed": true,
          "internalType": "address",
          "name": "syToken",
          "type": "address"
        },
        {
          "indexed": false,
          "internalType": "uint256",
          "name": "amount",
          "type": "uint256"
        },
        {
          "indexed": false,
          "internalType": "address",
          "name": "ptToken",
          "type": "address"
        },
        {
          "indexed": false,
          "internalType": "address",
          "name": "ytToken",
          "type": "address"
        }
      ],
      "name": "TokensSplit",
      "type": "event"
    },
    {
      "anonymous": false,
      "inputs": [
        {
          "indexed": true,
          "internalType": "address",
          "name": "user",
          "type": "address"
        },
        {
          "indexed": true,
          "internalType": "address",
          "name": "underlying",
          "type": "address"
        },
        {
          "indexed": true,
          "internalType": "address",
          "name": "syToken",
          "type": "address"
        },
        {
          "indexed": false,
          "internalType": "uint256",
          "name": "amount",
          "type": "uint256"
        },
        {
          "indexed": false,
          "internalType": "uint256",
          "name": "maturity",
          "type": "uint256"
        }
      ],
      "name": "TokensWrapped",
      "type": "event"
    },
    {
      "anonymous": false,
      "inputs": [
        {
          "indexed": true,
          "internalType": "address",
          "name": "user",
          "type": "address"
        },
        {
          "indexed": true,
          "internalType": "address",
          "name": "ytToken",
          "type": "address"
        },
        {
          "indexed": false,
          "internalType": "uint256",
          "name": "yieldAmount",
          "type": "uint256"
        }
      ],
      "name": "YieldClaimed",
      "type": "event"
    },
    {
      "inputs": [],
      "name": "MAX_MATURITY_DURATION",
      "outputs": [
        {
          "internalType": "uint256",
          "name": "",
          "type": "uint256"
        }
      ],
      "stateMutability": "view",
      "type": "function"
    },
    {
      "inputs": [],
      "name": "MIN_MATURITY_DURATION",
      "outputs": [
        {
          "internalType": "uint256",
          "name": "",
          "type": "uint256"
        }
      ],
      "stateMutability": "view",
      "type": "function"
    },
    {
      "inputs": [
        {
          "internalType": "uint256",
          "name": "",
          "type": "uint256"
        }
      ],
      "name": "allSYTokens",
      "outputs": [
        {
          "internalType": "address",
          "name": "",
          "type": "address"
        }
      ],
      "stateMutability": "view",
      "type": "function"
    },
    {
      "inputs": [
        {
          "internalType": "address",
          "name": "",
          "type": "address"
        },
        {
          "internalType": "uint256",
          "name": "",
          "type": "uint256"
        }
      ],
      "name": "availableMaturities",
      "outputs": [
        {
          "internalType": "uint256",
          "name": "",
          "type": "uint256"
        }
      ],
      "stateMutability": "view",
      "type": "function"
    },
    {
      "inputs": [
        {
          "internalType": "address",
          "name": "ytTokenAddress",
          "type": "address"
        }
      ],
      "name": "claimYT",
      "outputs": [],
      "stateMutability": "nonpayable",
      "type": "function"
    },
    {
      "inputs": [
        {
          "internalType": "address",
          "name": "underlying",
          "type": "address"
        },
        {
          "internalType": "uint256",
          "name": "maturity",
          "type": "uint256"
        },
        {
          "internalType": "string",
          "name": "name",
          "type": "string"
        },
        {
          "internalType": "string",
          "name": "symbol",
          "type": "string"
        },
        {
          "internalType": "uint256",
          "name": "yieldRate",
          "type": "uint256"
        }
      ],
      "name": "createSYToken",
      "outputs": [
        {
          "internalType": "address",
          "name": "",
          "type": "address"
        }
      ],
      "stateMutability": "payable",
      "type": "function"
    },
    {
      "inputs": [],
      "name": "getAllSYTokens",
      "outputs": [
        {
          "internalType": "address[]",
          "name": "",
          "type": "address[]"
        }
      ],
      "stateMutability": "view",
      "type": "function"
    },
    {
      "inputs": [],
      "name": "getAllUnderlyingTokens",
      "outputs": [
        {
          "internalType": "address[]",
          "name": "",
          "type": "address[]"
        }
      ],
      "stateMutability": "view",
      "type": "function"
    },
    {
      "inputs": [
        {
          "internalType": "address",
          "name": "underlying",
          "type": "address"
        }
      ],
      "name": "getAvailableMaturities",
      "outputs": [
        {
          "internalType": "uint256[]",
          "name": "",
          "type": "uint256[]"
        }
      ],
      "stateMutability": "view",
      "type": "function"
    },
    {
      "inputs": [
        {
          "internalType": "address",
          "name": "underlying",
          "type": "address"
        }
      ],
      "name": "getMaturityInfo",
      "outputs": [
        {
          "internalType": "uint256[]",
          "name": "maturities",
          "type": "uint256[]"
        },
        {
          "internalType": "address[]",
          "name": "syTokens",
          "type": "address[]"
        },
        {
          "internalType": "bool[]",
          "name": "active",
          "type": "bool[]"
        }
      ],
      "stateMutability": "view",
      "type": "function"
    },
    {
      "inputs": [
        {
          "internalType": "address",
          "name": "underlying",
          "type": "address"
        },
        {
          "internalType": "uint256",
          "name": "maturity",
          "type": "uint256"
        }
      ],
      "name": "getSYTokenByMaturity",
      "outputs": [
        {
          "internalType": "address",
          "name": "",
          "type": "address"
        }
      ],
      "stateMutability": "view",
      "type": "function"
    },
    {
      "inputs": [
        {
          "internalType": "address",
          "name": "syToken",
          "type": "address"
        }
      ],
      "name": "getTokenPairByStToken",
      "outputs": [
        {
          "internalType": "address",
          "name": "pt",
          "type": "address"
        },
        {
          "internalType": "address",
          "name": "yt",
          "type": "address"
        }
      ],
      "stateMutability": "view",
      "type": "function"
    },
    {
      "inputs": [],
      "name": "maturityCreationFee",
      "outputs": [
        {
          "internalType": "uint256",
          "name": "",
          "type": "uint256"
        }
      ],
      "stateMutability": "view",
      "type": "function"
    },
    {
      "inputs": [
        {
          "internalType": "address",
          "name": "syTokenAddress",
          "type": "address"
        },
        {
          "internalType": "uint256",
          "name": "amount",
          "type": "uint256"
        }
      ],
      "name": "merge",
      "outputs": [
        {
          "internalType": "address",
          "name": "",
          "type": "address"
        }
      ],
      "stateMutability": "nonpayable",
      "type": "function"
    },
    {
      "inputs": [],
      "name": "owner",
      "outputs": [
        {
          "internalType": "address",
          "name": "",
          "type": "address"
        }
      ],
      "stateMutability": "view",
      "type": "function"
    },
    {
      "inputs": [
        {
          "internalType": "address",
          "name": "ptTokenAddress",
          "type": "address"
        }
      ],
      "name": "redeemPT",
      "outputs": [],
      "stateMutability": "nonpayable",
      "type": "function"
    },
    {
      "inputs": [],
      "name": "renounceOwnership",
      "outputs": [],
      "stateMutability": "nonpayable",
      "type": "function"
    },
    {
      "inputs": [
        {
          "internalType": "address",
          "name": "",
          "type": "address"
        }
      ],
      "name": "syTokenPairs",
      "outputs": [
        {
          "internalType": "address",
          "name": "pt",
          "type": "address"
        },
        {
          "internalType": "address",
          "name": "yt",
          "type": "address"
        },
        {
          "internalType": "bool",
          "name": "exists",
          "type": "bool"
        }
      ],
      "stateMutability": "view",
      "type": "function"
    },
    {
      "inputs": [
        {
          "internalType": "address",
          "name": "newOwner",
          "type": "address"
        }
      ],
      "name": "transferOwnership",
      "outputs": [],
      "stateMutability": "nonpayable",
      "type": "function"
    },
    {
      "inputs": [
        {
          "internalType": "address",
          "name": "",
          "type": "address"
        },
        {
          "internalType": "uint256",
          "name": "",
          "type": "uint256"
        }
      ],
      "name": "underlyingToSYByMaturity",
      "outputs": [
        {
          "internalType": "address",
          "name": "",
          "type": "address"
        }
      ],
      "stateMutability": "view",
      "type": "function"
    },
    {
      "inputs": [
        {
          "internalType": "uint256",
          "name": "",
          "type": "uint256"
        }
      ],
      "name": "underlyingTokens",
      "outputs": [
        {
          "internalType": "address",
          "name": "",
          "type": "address"
        }
      ],
      "stateMutability": "view",
      "type": "function"
    },
    {
      "inputs": [
        {
          "internalType": "address",
          "name": "underlying",
          "type": "address"
        },
        {
          "internalType": "uint256",
          "name": "amount",
          "type": "uint256"
        },
        {
          "internalType": "uint256",
          "name": "maturity",
          "type": "uint256"
        }
      ],
      "name": "wrapAndSplit",
      "outputs": [
        {
          "internalType": "address",
          "name": "",
          "type": "address"
        },
        {
          "internalType": "address",
          "name": "",
          "type": "address"
        },
        {
          "internalType": "address",
          "name": "",
          "type": "address"
        }
      ],
      "stateMutability": "nonpayable",
      "type": "function"
    },
    {
      "inputs": [
        {
          "internalType": "address",
          "name": "underlying",
          "type": "address"
        },
        {
          "internalType": "uint256",
          "name": "amount",
          "type": "uint256"
        },
        {
          "internalType": "uint256",
          "name": "maturity",
          "type": "uint256"
        }
      ],
      "name": "wrapWithMaturity",
      "outputs": [
        {
          "internalType": "address",
          "name": "",
          "type": "address"
        }
      ],
      "stateMutability": "nonpayable",
      "type": "function"
    }
  ],
  "transactionHash": "0xe259e7725f07ce23da1b13afc6126148b34085a8cee9c0d5a0cfae1e482306de",
  "args": [],
  "numDeployments": 1,
  "solcInputHash": "542eec57fac6779ac7955b398b0a3d18",
  "bytecode": "0x60808060405234607e57331560685760008054336001600160a01b0319821681178355916001600160a01b03909116907f8be0079c531659141344cd1fd0a4f28419497f9722a3daafe3b4186f6b6457e09080a3600180556000600755615dbc90816100848239f35b631e4fbdf760e01b600052600060045260246000fd5b600080fdfe608080604052600436101561001357600080fd5b600090813560e01c908163115d772614611a8d5750806317a4cf49146116a957806329511d5914611623578063316943f8146116055780633bd253c814611433578063479f7466146113d85780635fb42d20146112af57806360e7b5ec146111e257806368c5e58d146110705780636d11f2d71461100457806370f861df14610fad578063715018a614610f655780637559091f146109735780638da5cb5b1461094c57806394798795146104ef578063973912e11461033f578063a3bf224b14610480578063a77b017e14610461578063e5c2b7b8146103ff578063f2fde38b1461038b578063f8d84fe71461033f578063f919aec2146101a45763fadf4cd41461011e57600080fd5b346101a157806003193601126101a1576040516005805480835290835290916020830191600080516020615d10833981519152915b8181106101825761017e8561016a81870382611bb9565b604051918291602083526020830190611af3565b0390f35b82546001600160a01b0316845260209093019260019283019201610153565b80fd5b50346101a15760203660031901126101a1576101be611aa9565b6101c6611d53565b6040516390e64d1360e01b81526001600160a01b039190911690602081600481855afa9081156102f6578391610310575b506103015760405163763cbfe160e11b8152336004820152602081602481855afa9081156102f65783916102bf575b5080156102b057813b156102a15760405163406cf22960e01b81528390818160048183885af180156102a55761028c575b50506040519081527ff3055bc8d92d9c8d2f12b45d112dd345cd2cfd17292b8d65c5642ac6f912dfd760203392a36001805580f35b8161029691611bb9565b6102a1578238610257565b8280fd5b6040513d84823e3d90fd5b632cae373760e21b8352600483fd5b90506020813d6020116102ee575b816102da60209383611bb9565b810103126102e9575138610226565b600080fd5b3d91506102cd565b6040513d85823e3d90fd5b6307d29e1160e01b8252600482fd5b610332915060203d602011610338575b61032a8183611bb9565b810190611c32565b386101f7565b503d610320565b50346101a15760403660031901126101a1576020906001600160a01b03610364611aa9565b168152600282526040812060243582528252604060018060a01b0391205416604051908152f35b50346101a15760203660031901126101a1576103a5611aa9565b6103ad611d75565b6001600160a01b031680156103eb5781546001600160a01b03198116821783556001600160a01b0316600080516020615d708339815191528380a380f35b631e4fbdf760e01b82526004829052602482fd5b50346101a15760203660031901126101a1576060906040906001600160a01b03610427611aa9565b16815260046020522060ff6001808060a01b0383541692015460405192835260018060a01b038116602084015260a01c1615156040820152f35b50346101a157806003193601126101a157602060405163bbf81e008152f35b50346101a15760203660031901126101a157600435906006548210156101a1576006548210156104db5760068152600080516020615d908339815191529091015460405160039290921b1c6001600160a01b03168152602090f35b634e487b7160e01b81526032600452602490fd5b50346101a1576104fe36611b5e565b929091610509611d53565b6001600160a01b039081168083526002602090815260408085208786529091528320549094911692831561093d5760405163a109329560e01b8152602081600481885afa90811561086057849161091e575b506108af578383526004602052604083209160016040519361057c85611b88565b818060a01b03815416855201549360ff602085019560018060a01b038116875260a01c1615801560408601526108dd576040516323b872dd60e01b8152602081806105cc87303360048501611d31565b0381858c5af180156102a557610901575b50853b156101a1576040516308934a5f60e31b8152818180610603873060048401611c4a565b0381838b5af180156102a5579082916108ec575b5086905260046020526040812060016040519161063383611b88565b818060a01b03815416835201549160ff602083019360018060a01b038116855260a01c1615801560408401526108dd578151835160405163a109329560e01b81526001600160a01b0391821692909116906020816004818e5afa9081156108605784916108be575b506108af576040516370a0823160e01b81523060048201526020816024818e5afa90811561086057908891859161087a575b501061086b57893b156102a15760405163079cc67960e41b815283818c8183816106fb8e3060048401611c4a565b03925af180156108605790849161084b575b5050803b156102a1578260405180926340c10f1960e01b82528183816107378d3360048401611c4a565b03925af180156102f657908391610836575b5050803b15610832578160405180926340c10f1960e01b82528183816107738c3360048401611c4a565b03925af180156102a55761081d575b50505190516040516060988895909490939092869233927f073509d10cd0274c0dde35c26eb33733f65b25a5ae24ca99da08ca01dbafdab39282916107d5916001600160a01b0390811691168984611c65565b0390a36040519182526020820152600080516020615d5083398151915260403392a451905160018055604080519384526001600160a01b039283166020850152911690820152f35b610828828092611bb9565b6101a15780610782565b5080fd5b8161084091611bb9565b610832578138610749565b8161085591611bb9565b6102a157823861070d565b6040513d86823e3d90fd5b6328c7039f60e21b8352600483fd5b9150506020813d6020116108a7575b8161089660209383611bb9565b810103126102e957879051386106cd565b3d9150610889565b6313b3d40f60e01b8352600483fd5b6108d7915060203d6020116103385761032a8183611bb9565b3861069b565b6311a4ada760e31b8152600490fd5b816108f691611bb9565b6101a1578038610617565b6109199060203d6020116103385761032a8183611bb9565b6105dd565b610937915060203d6020116103385761032a8183611bb9565b3861055b565b63119c8b8160e31b8352600483fd5b50346101a157806003193601126101a157546040516001600160a01b039091168152602090f35b5060a03660031901126101a157610988611aa9565b6024356044356001600160401b038111610f61576109aa903690600401611bdc565b916064356001600160401b038111610f5d576109ca903690600401611bdc565b93608435916109d7611d53565b6001600160a01b0316948515610f4e57620151804201804211610f2b57841115610f3f5763bbf81e004201804211610f2b578411610f1c578582526002602090815260408084208685529091528220546001600160a01b0316610f0d576007543410610eff576040519072029ba30b73230b93234bd32b2102cb4b2b6321606d1b6020830152855190610a8960338460208a0194610a788184840188611cb0565b81010301601f198101855284611bb9565b6040516253592d60e81b6020820152815193610ac46023836020860197610ab3818484018b611cb0565b81010301601f198101845283611bb9565b6040519161163e80840192906001600160401b03841185851017610eeb57610b1e859493610b108f948e8e96608096611d9f8b398852602088015260a0604088015260a0870190611cd3565b908582036060870152611cd3565b920152039085f080156108605760405191602083016250542d60e81b9052828951806023830190610b4f9188611cb0565b810103602301601f1981018452610b669084611bb9565b6040519860208a016250542d60e81b9052898251806023830190610b8a918a611cb0565b810103602301601f1981018b52610ba1908b611bb9565b604051948591602083016259542d60e81b905251908160238401610bc492611cb0565b810103602301601f1981018552610bdb9085611bb9565b604051948591602083016259542d60e81b905251908160238401610bfe92611cb0565b810103602301601f1981018552610c159085611bb9565b6040516001600160a01b0391909116979091611238808401906001600160401b03821185831017610ed757918a859492610c53946133dd8739611cf8565b039084f09182156102f657604051916116fb808401906001600160401b03821185831017610ec3579189859492610c8e946146158739611cf8565b039083f09081156102a55760405190610ca682611b88565b6001600160a01b0390811682529182166020808301918252600160408085018281528a885260048452818820955186549088166001600160a01b03199182161787559451959092018054925160ff60a01b90151560a01b169587166001600160a81b03199093169290921794909417905588855260028152828520878652815282852080549489169490921693909317905586835260039091528120805490600160401b821015610eaf5790610d6191600182018155611b30565b815460001960039290921b91821b19169085901b179055600554600160401b811015610e9b57806001610d9992016005556005611b30565b8154600391821b87811b6001600160a01b0390911b19909116179091558582526020526040812054600114610e26575b5092600080516020615d30833981519152602084938196604051908282528382015285857fae2550bf984310e5bdfcd5d8463b70e87ded8e5c3f06f50a6c1e9c834740678160403394a4604051908152a360018055604051908152f35b60065490600160401b821015610e87575060208493819693610e5f846001600080516020615d3083398151915296016006556006611b30565b81546001600160a01b0360039290921b91821b19169087901b1790559396509350610dc99050565b634e487b7160e01b81526041600452602490fd5b634e487b7160e01b82526041600452602482fd5b634e487b7160e01b83526041600452602483fd5b634e487b7160e01b87526041600452602487fd5b634e487b7160e01b88526041600452602488fd5b634e487b7160e01b89526041600452602489fd5b62976f7560e21b8252600482fd5b636ce5902760e01b8252600482fd5b6323dcaa7360e01b8252600482fd5b634e487b7160e01b83526011600452602483fd5b6373b761c360e01b8252600482fd5b6317dc37cb60e11b8252600482fd5b8480fd5b8380fd5b50346101a157806003193601126101a157610f7e611d75565b80546001600160a01b03198116825581906001600160a01b0316600080516020615d708339815191528280a380f35b50346101a15760403660031901126101a157610fc7611aa9565b6001600160a01b03168152600360205260408120805460243592908310156101a1576020610ff58484611b30565b90549060031b1c604051908152f35b50346101a157806003193601126101a1576040516006805480835290835290916020830191600080516020615d90833981519152915b8181106110515761017e8561016a81870382611bb9565b82546001600160a01b031684526020909301926001928301920161103a565b50346101a15760203660031901126101a15761108a611aa9565b611092611d53565b60405163a109329560e01b81526001600160a01b039190911690602081600481855afa9081156102f65783916111c3575b50156111b4576040516370a0823160e01b8152336004820152602081602481855afa9081156102f6578391611182575b50801561117357813b156102a1578260405163db006a7560e01b8152826004820152818160248183885af180156102a55761115e575b50506040519081527f229577ecae2622ad5b55ce7c94ce375c96b90797bf1d90b65c86aa70a2a2c1bb60203392a36001805580f35b8161116891611bb9565b6102a1578238611129565b637166c4b960e01b8352600483fd5b90506020813d6020116111ac575b8161119d60209383611bb9565b810103126102e95751386110f3565b3d9150611190565b632e28d64760e01b8252600482fd5b6111dc915060203d6020116103385761032a8183611bb9565b386110c3565b50346101a15760203660031901126101a1576040906001600160a01b03611207611aa9565b16815260046020522060016040519161121f83611b88565b818060a01b038154168352015460ff602083019160018060a01b038116835260a01c16158015604084015261126e5790519051604080516001600160a01b039384168152919092166020820152f35b60405162461bcd60e51b8152602060048201526019602482015278151bdad95b881c185a5c88191bd95cc81b9bdd08195e1a5cdd603a1b6044820152606490fd5b50346101a1576112be36611b5e565b92916112c8611d53565b6001600160a01b03908116808452600260209081526040808620878752909152842054909491169283156113c95760405163a109329560e01b8152602081600481885afa9081156102a55782916113aa575b5061139b57833b156101a15760405163775a4b2f60e11b8152818180611344873360048401611c4a565b038183895af180156102a557611386575b6020858088878760405191825285820152600080516020615d5083398151915260403392a460018055604051908152f35b611391828092611bb9565b6101a15780611355565b6313b3d40f60e01b8152600490fd5b6113c3915060203d6020116103385761032a8183611bb9565b3861131a565b63119c8b8160e31b8152600490fd5b50346101a15760203660031901126101a157600435906005548210156101a1576005548210156104db5760058152600080516020615d108339815191529091015460405160039290921b1c6001600160a01b03168152602090f35b50346101a15760203660031901126101a1576001600160a01b03611455611aa9565b169081815260036020526040812060405190816020825491828152019184526020842090845b8181106115ef5750505081611491910382611bb9565b80519161149d83611c85565b926114ab6040519485611bb9565b808452601f196114ba82611c85565b013660208601376114ca81611c85565b906114d86040519283611bb9565b808252601f196114e782611c85565b013660208401376114f781611c85565b956115056040519788611bb9565b81875261151182611c85565b602088019590601f1901368737845b838110611591575050505093602061155661154996604051978897606089526060890190611abf565b9087820384890152611af3565b91858303604087015251918281520192915b818110611576575050500390f35b82511515845285945060209384019390920191600101611568565b806115a2600192849b999a9b611c9c565b51806115ae838d611c9c565b52848852600260205260408820818952602052828060a01b036040892054166115d78389611c9c565b5242106115e4828a611c9c565b520197969597611520565b825484526020909301926001928301920161147b565b50346101a157806003193601126101a1576020604051620151808152f35b50346101a15760203660031901126101a1576001600160a01b03611645611aa9565b168152600360205260408120604051918260208354918281520192825260208220915b8181106116935761017e8561167f81870382611bb9565b604051918291602083526020830190611abf565b8254845260209093019260019283019201611668565b50346101a15760403660031901126101a1576116c3611aa9565b90602435916116d0611d53565b6001600160a01b0381168083526004602052604080842090519193906001906116f884611b88565b818060a01b03815416845201549260ff602084019460018060a01b038116865260a01c161580156040850152611a7e578251845160405163a109329560e01b81526001600160a01b0391821692909116906020816004818b5afa908115611a01578591611a5f575b50611a50576040516370a0823160e01b8152336004820152602081602481855afa908115611a01579089918691611a1b575b5010611a0c576040516370a0823160e01b8152336004820152602081602481865afa908115611a015790899186916119cc575b50106119bd57803b15610f6157604051632770a7eb60e21b815290849082908183816117f58e3360048401611c4a565b03925af18015610860576119a9575b50803b156102a157826040518092632770a7eb60e21b825281838161182d8d3360048401611c4a565b03925af180156102f657908391611994575b5050604051632495a59960e01b8152602081600481895afa9081156102f6578390819261194f575b506020919260405161189e816118908c878301956323b872dd60e01b8752339060248501611d31565b03601f198101835282611bb9565b519082855af1156119425781513d61193957506001600160a01b0381163b155b61191d57825184516040516020928892839233927ffd77160facbd5c9bc71c118b25815305db2ad1fc08b890834a87c95cc3fd9f9792829161190e916001600160a01b0390811691168f84611c65565b0390a360018055604051908152f35b635274afe760e01b82526001600160a01b031660045260249150fd5b600114156118be565b50604051903d90823e3d90fd5b9150506020813d60201161198c575b8161196b60209383611bb9565b810103126102a157516001600160a01b03811681036102a157826020611867565b3d915061195e565b8161199e91611bb9565b61083257813861183f565b836119b691949294611bb9565b9138611804565b6336ca280360e21b8452600484fd5b9150506020813d6020116119f9575b816119e860209383611bb9565b81010312610f5d57889051386117c5565b3d91506119db565b6040513d87823e3d90fd5b633adff3bd60e01b8452600484fd5b9150506020813d602011611a48575b81611a3760209383611bb9565b81010312610f5d5788905138611792565b3d9150611a2a565b6313b3d40f60e01b8452600484fd5b611a78915060203d6020116103385761032a8183611bb9565b38611760565b6311a4ada760e31b8252600482fd5b9050346108325781600319360112610832576020906007548152f35b600435906001600160a01b03821682036102e957565b906020808351928381520192019060005b818110611add5750505090565b8251845260209384019390920191600101611ad0565b906020808351928381520192019060005b818110611b115750505090565b82516001600160a01b0316845260209384019390920191600101611b04565b8054821015611b485760005260206000200190600090565b634e487b7160e01b600052603260045260246000fd5b60609060031901126102e9576004356001600160a01b03811681036102e957906024359060443590565b606081019081106001600160401b03821117611ba357604052565b634e487b7160e01b600052604160045260246000fd5b601f909101601f19168101906001600160401b03821190821017611ba357604052565b81601f820112156102e9578035906001600160401b038211611ba35760405192611c10601f8401601f191660200185611bb9565b828452602083830101116102e957816000926020809301838601378301015290565b908160209103126102e9575180151581036102e95790565b6001600160a01b039091168152602081019190915260400190565b9081526001600160a01b0391821660208201529116604082015260600190565b6001600160401b038111611ba35760051b60200190565b8051821015611b485760209160051b010190565b60005b838110611cc35750506000910152565b8181015183820152602001611cb3565b90602091611cec81518092818552858086019101611cb0565b601f01601f1916010190565b6001600160a01b039091168152606060208201819052611d2e939192611d2091840190611cd3565b916040818403910152611cd3565b90565b6001600160a01b03918216815291166020820152604081019190915260600190565b600260015414611d64576002600155565b633ee5aeb560e01b60005260046000fd5b6000546001600160a01b03163303611d8957565b63118cdaa760e01b6000523360045260246000fdfe60c0604052346104435761163e8038038061001981610448565b928339810160a0828203126104435781516001600160a01b038116919082900361044357602083015160408401516001600160401b038111610443578261006191860161046d565b60608501519092906001600160401b0381116104435760809161008591870161046d565b940151825190926001600160401b0382116103405760035490600182811c92168015610439575b60208310146103205781601f8493116103c9575b50602090601f831160011461036157600092610356575b50508160011b916000199060031b1c1916176003555b83516001600160401b03811161034057600454600181811c91168015610336575b602082101461032057601f81116102bb575b50602094601f821160011461025457948192939495600092610249575b50508160011b916000199060031b1c1916176004555b33156102335760058054336001600160a01b0319821681179092556040519491906001600160a01b03167f8be0079c531659141344cd1fd0a4f28419497f9722a3daafe3b4186f6b6457e0600080a36001600655801561022257428211156102115760805260a0526007554260085561116590816104d982396080518181816102f8015281816108d50152611078015260a05181818161049601528181610757015281816107e601528181610a0901528181610c5e01526110170152f35b630915309360e21b60005260046000fd5b6317dc37cb60e11b60005260046000fd5b631e4fbdf760e01b600052600060045260246000fd5b01519050388061013d565b601f198216956004600052806000209160005b8881106102a35750836001959697981061028a575b505050811b01600455610153565b015160001960f88460031b161c1916905538808061027c565b91926020600181928685015181550194019201610267565b60046000527f8a35acfbc15ff81a39ae7d344fd709f28e8600b4aa8c65c6b64bfe7fe36bd19b601f830160051c81019160208410610316575b601f0160051c01905b81811061030a5750610120565b600081556001016102fd565b90915081906102f4565b634e487b7160e01b600052602260045260246000fd5b90607f169061010e565b634e487b7160e01b600052604160045260246000fd5b0151905038806100d7565b600360009081528281209350601f198516905b8181106103b15750908460019594939210610398575b505050811b016003556100ed565b015160001960f88460031b161c1916905538808061038a565b92936020600181928786015181550195019301610374565b60036000529091507fc2575a0e9e593c00f959f8c92f12db2869c3395a3b0502d05e2516446f71f85b601f840160051c8101916020851061042f575b90601f859493920160051c01905b81811061042057506100c0565b60008155849350600101610413565b9091508190610405565b91607f16916100ac565b600080fd5b6040519190601f01601f191682016001600160401b0381118382101761034057604052565b81601f82011215610443578051906001600160401b0382116103405761049c601f8301601f1916602001610448565b92828452602083830101116104435760005b8281106104c357505060206000918301015290565b806020809284010151828287010152016104ae56fe608080604052600436101561001357600080fd5b60003560e01c90816306fdde0314610ad057508063095ea7b314610a4a57806318160ddd14610a2c578063204f83f9146109f157806323b872dd146109045780632495a599146108bf578063313ce567146108a35780633cb3c4fd14610888578063406cf229146107cb578063449a52f8146107205780636999ac931461070257806370a08231146106c8578063715018a61461067d57806379cc67901461060a5780638da5cb5b146105e15780638f8c8aee146105c357806395d89b41146104bc578063a10932951461047e578063a9059cbb1461044d578063b77cf9c614610413578063dd62ed3e146103c2578063de0e9a3e1461028b578063ea598cb014610266578063ec797fc21461023b578063ee6c3bf21461021d578063eeb4965e146101c55763f2fde38b1461014857600080fd5b346101c05760203660031901126101c057610161610bd4565b610169610ef3565b6001600160a01b031680156101aa57600580546001600160a01b0319811683179091556001600160a01b0316600080516020611119833981519152600080a3005b631e4fbdf760e01b600052600060045260246000fd5b600080fd5b346101c05760403660031901126101c0576101de610bd4565b6101e6610e5b565b6005546001600160a01b0316330361020c57610205906024359061100f565b6001600655005b63011a72f560e11b60005260046000fd5b346101c05760003660031901126101c0576020600954604051908152f35b346101c05760203660031901126101c057602061025e610259610bd4565b610cd1565b604051908152f35b346101c05760203660031901126101c05761027f610e5b565b6102056004353361100f565b346101c05760203660031901126101c0576004356102a7610e5b565b80156103b15733600052600060205280604060002054106103a0576102ca610fb5565b6102d48133610f1c565b60405163a9059cbb60e01b81523360048201526024810182905260208160448160007f00000000000000000000000000000000000000000000000000000000000000006001600160a01b03165af1801561039457610367575b506040519080825260208201527fe8e8d3915b94f03b4f3342716334ae94bd6f36775da7b263c908889b93d0574b60403392a26001600655005b6103889060203d60201161038d575b6103808183610c00565b810190610ca6565b61032d565b503d610376565b6040513d6000823e3d90fd5b6328c7039f60e21b60005260046000fd5b635e85ae7360e01b60005260046000fd5b346101c05760403660031901126101c0576103db610bd4565b6103e3610bea565b6001600160a01b039182166000908152600160209081526040808320949093168252928352819020549051908152f35b346101c05760203660031901126101c0576001600160a01b03610434610bd4565b16600052600a6020526020604060002054604051908152f35b346101c05760403660031901126101c057610473610469610bd4565b6024359033610d54565b602060405160018152f35b346101c05760003660031901126101c05760206040517f00000000000000000000000000000000000000000000000000000000000000004210158152f35b346101c05760003660031901126101c05760405160006004548060011c906001811680156105b9575b6020831081146105a5578285529081156105815750600114610522575b61051e8361051281850382610c00565b60405191829182610b8b565b0390f35b600460009081527f8a35acfbc15ff81a39ae7d344fd709f28e8600b4aa8c65c6b64bfe7fe36bd19b939250905b80821061056757509091508101602001610512610502565b91926001816020925483858801015201910190929161054f565b60ff191660208086019190915291151560051b840190910191506105129050610502565b634e487b7160e01b84526022600452602484fd5b91607f16916104e5565b346101c05760003660031901126101c0576020600854604051908152f35b346101c05760003660031901126101c0576005546040516001600160a01b039091168152602090f35b346101c05760403660031901126101c057610623610bd4565b600554602435906001600160a01b0316330361020c5780156103b1576001600160a01b03821660008181526020819052604090205482116103a057600052600060205280604060002054106103a05761067b91610f1c565b005b346101c05760003660031901126101c057610696610ef3565b600580546001600160a01b031981169091556000906001600160a01b03166000805160206111198339815191528280a3005b346101c05760203660031901126101c0576001600160a01b036106e9610bd4565b1660005260006020526020604060002054604051908152f35b346101c05760003660031901126101c0576020600754604051908152f35b346101c05760403660031901126101c057610739610bd4565b600554602435906001600160a01b0316330361020c5780156103b1577f00000000000000000000000000000000000000000000000000000000000000004210156107ba576107879082610e7d565b6001600160a01b03166000818152600a6020526040902054156107a657005b600052600a60205242604060002055600080f35b633ac1231960e21b60005260046000fd5b346101c05760003660031901126101c0576107e4610e5b565b7f00000000000000000000000000000000000000000000000000000000000000004210156107ba5761081533610cd1565b80156108775733600052600a6020524260406000205561083781600954610c99565b6009556108448133610e7d565b6040519081527fc04825ba3f383b602255d2a13065a68e325c65c9e0ed5d031ea2b06f641873af60203392a26001600655005b632cae373760e21b60005260046000fd5b346101c05760003660031901126101c057602061025e610c5c565b346101c05760003660031901126101c057602060405160128152f35b346101c05760003660031901126101c0576040517f00000000000000000000000000000000000000000000000000000000000000006001600160a01b03168152602090f35b346101c05760603660031901126101c05761091d610bd4565b610925610bea565b6001600160a01b0382166000818152600160209081526040808320338452909152902054909260443592916000198110610965575b506104739350610d54565b8381106109d45784156109be5733156109a857610473946000526001602052604060002060018060a01b033316600052602052836040600020910390558461095a565b634a1406b160e11b600052600060045260246000fd5b63e602df0560e01b600052600060045260246000fd5b8390637dc7a0d960e11b6000523360045260245260445260646000fd5b346101c05760003660031901126101c05760206040517f00000000000000000000000000000000000000000000000000000000000000008152f35b346101c05760003660031901126101c0576020600254604051908152f35b346101c05760403660031901126101c057610a63610bd4565b6024359033156109be576001600160a01b03169081156109a857336000526001602052604060002082600052602052806040600020556040519081527f8c5be1e5ebec7d5bd14f71427d1e84f3dd0314c0f7b2291e5b200ac8c7c3b92560203392a3602060405160018152f35b346101c05760003660031901126101c05760006003548060011c90600181168015610b81575b6020831081146105a5578285529081156105815750600114610b225761051e8361051281850382610c00565b600360009081527fc2575a0e9e593c00f959f8c92f12db2869c3395a3b0502d05e2516446f71f85b939250905b808210610b6757509091508101602001610512610502565b919260018160209254838588010152019101909291610b4f565b91607f1691610af6565b91909160208152825180602083015260005b818110610bbe575060409293506000838284010152601f8019910116010190565b8060208092870101516040828601015201610b9d565b600435906001600160a01b03821682036101c057565b602435906001600160a01b03821682036101c057565b601f909101601f19168101906001600160401b03821190821017610c2357604052565b634e487b7160e01b600052604160045260246000fd5b91908203918211610c4657565b634e487b7160e01b600052601160045260246000fd5b7f000000000000000000000000000000000000000000000000000000000000000080421015610c9357610c90904290610c39565b90565b50600090565b91908201809211610c4657565b908160209103126101c0575180151581036101c05790565b81810292918115918404141715610c4657565b6001600160a01b0316600081815260208190526040902054158015610d3e575b610c9357610d3a816301e1338092600052600a602052610d1660406000205442610c39565b906000526000602052612710610d3460406000205460075490610cbe565b04610cbe565b0490565b5080600052600a60205260406000205415610cf1565b6001600160a01b0316908115610e45576001600160a01b0316918215610e2f5781600052600a60205260406000205415610e1a575b82600052600a60205260406000205415610e05575b6000828152806020526040812054828110610deb579160408282600080516020611139833981519152958760209652828652038282205586815280845220818154019055604051908152a3565b916064928463391434e360e21b8452600452602452604452fd5b82600052600a60205242604060002055610d9e565b81600052600a60205242604060002055610d89565b63ec442f0560e01b600052600060045260246000fd5b634b637e8f60e11b600052600060045260246000fd5b600260065414610e6c576002600655565b633ee5aeb560e01b60005260046000fd5b6001600160a01b0316908115610e2f5781600052600a60205260406000205415610ede575b610eae81600254610c99565b600255600080516020611139833981519152602060009284845283825260408420818154019055604051908152a3565b81600052600a60205242604060002055610ea2565b6005546001600160a01b03163303610f0757565b63118cdaa760e01b6000523360045260246000fd5b6001600160a01b03168015610e455780600052600a60205260406000205415610fa0575b600091818352826020526040832054818110610f875781600080516020611139833981519152926020928587528684520360408620558060025403600255604051908152a3565b6064939263391434e360e21b8452600452602452604452fd5b80600052600a60205242604060002055610f40565b60085480421180611004575b610fc85750565b64496cebb800610ff2610fde610ffb9342610c39565b610fed60025460075490610cbe565b610cbe565b04600954610c99565b60095542600855565b506002541515610fc1565b81156103b1577f00000000000000000000000000000000000000000000000000000000000000004210156107ba57604051906323b872dd60e01b825260018060a01b03811692836004840152306024840152806044840152602083606481600060018060a01b037f0000000000000000000000000000000000000000000000000000000000000000165af192831561039457816040936110de927f18a5ed48bb0a697c64a5aef8f28cec1f29ab01da27a45c5f835099781ef1ea46966110fb575b506110d9610fb5565b610e7d565b83600052600a6020524282600020558151908082526020820152a2565b6111139060203d60201161038d576103808183610c00565b6110d056fe8be0079c531659141344cd1fd0a4f28419497f9722a3daafe3b4186f6b6457e0ddf252ad1be2c89b69c2b068fc378daa952ba7f163c4a11628f55a4df523b3efa164736f6c634300081e000a60c0806040523461025557611238803803809161001c8285610481565b83398101906060818303126102555780516001600160a01b03811691908290036102555760208101516001600160401b038111610255578361005f9183016104a4565b60408201519093906001600160401b0381116102555761007f92016104a4565b82519091906001600160401b03811161038a57600354600181811c91168015610477575b602082101461036a57601f8111610412575b506020601f82116001146103ab57819293946000926103a0575b50508160011b916000199060031b1c1916176003555b81516001600160401b03811161038a57600454600181811c91168015610380575b602082101461036a57601f8111610305575b50602092601f82116001146102a05792819293600092610295575b50508160011b916000199060031b1c1916176004555b331561027f5760058054336001600160a01b031982168117909255604051909290916001600160a01b0384167f8be0079c531659141344cd1fd0a4f28419497f9722a3daafe3b4186f6b6457e0600080a3801561026e57816004818360209460805263204f83f960e01b82525afa9081156102625760009161022b575b5060a0526001600160a81b0319163360ff60a01b191617600555604051610d24908161051482396080518181816102620152610802015260a0518181816101f50152818161042a0152818161064f015281816106b0015281816109360152610b680152f35b90506020813d60201161025a575b8161024660209383610481565b810103126102555751386101c6565b600080fd5b3d9150610239565b6040513d6000823e3d90fd5b6323b8809d60e11b60005260046000fd5b631e4fbdf760e01b600052600060045260246000fd5b015190503880610133565b601f198216936004600052806000209160005b8681106102ed57508360019596106102d4575b505050811b01600455610149565b015160001960f88460031b161c191690553880806102c6565b919260206001819286850151815501940192016102b3565b60046000527f8a35acfbc15ff81a39ae7d344fd709f28e8600b4aa8c65c6b64bfe7fe36bd19b601f830160051c81019160208410610360575b601f0160051c01905b8181106103545750610118565b60008155600101610347565b909150819061033e565b634e487b7160e01b600052602260045260246000fd5b90607f1690610106565b634e487b7160e01b600052604160045260246000fd5b0151905038806100cf565b601f198216906003600052806000209160005b8181106103fa575095836001959697106103e1575b505050811b016003556100e5565b015160001960f88460031b161c191690553880806103d3565b9192602060018192868b0151815501940192016103be565b60036000527fc2575a0e9e593c00f959f8c92f12db2869c3395a3b0502d05e2516446f71f85b601f830160051c8101916020841061046d575b601f0160051c01905b81811061046157506100b5565b60008155600101610454565b909150819061044b565b90607f16906100a3565b601f909101601f19168101906001600160401b0382119082101761038a57604052565b81601f82011215610255578051906001600160401b03821161038a57604051926104d8601f8401601f191660200185610481565b828452602083830101116102555760005b8281106104fe57505060206000918301015290565b806020809284010151828287010152016104e956fe608080604052600436101561001357600080fd5b60003560e01c90816306fdde03146109fd57508063095ea7b31461097757806318160ddd14610959578063204f83f91461091e57806323b872dd14610831578063287b448d146107ec5780632b11551a146107c95780632d7ecd11146107a3578063313ce567146107875780633cb3c4fd1461076457806340c10f19146106895780634721ed6f1461063457806370a08231146105fa578063715018a6146105af5780638da5cb5b1461058657806395d89b411461047f5780639dc29fac14610450578063a109329514610412578063a9059cbb146103e1578063db006a75146101df578063dd62ed3e1461018e5763f2fde38b1461011157600080fd5b346101895760203660031901126101895761012a610b01565b610132610c3f565b6001600160a01b0316801561017357600580546001600160a01b0319811683179091556001600160a01b0316600080516020610cd8833981519152600080a3005b631e4fbdf760e01b600052600060045260246000fd5b600080fd5b34610189576040366003190112610189576101a7610b01565b6101af610b17565b6001600160a01b039182166000908152600160209081526040808320949093168252928352819020549051908152f35b34610189576020366003190112610189576004357f000000000000000000000000000000000000000000000000000000000000000042106103d05760ff60055460a01c16156103bf5780156103ae57336000526000602052806040600020541061039d5761024d8133610c68565b604051632495a59960e01b81526020816004817f00000000000000000000000000000000000000000000000000000000000000006001600160a01b03165afa90811561034757600091610353575b5060405163a9059cbb60e01b81523360048201526024810183905290602090829060449082906000906001600160a01b03165af180156103475761030f575b506040519080825260208201527fe5b754fb1abb7f01b499791d0b820ae3b6af3424ac1c59768edb53f4ec31a92960403392a2005b6020813d60201161033f575b8161032860209383610b2d565b81010312610189575180151581146102da57600080fd5b3d915061031b565b6040513d6000823e3d90fd5b6020813d602011610395575b8161036c60209383610b2d565b810103126103915751906001600160a01b038216820361038e5750602061029b565b80fd5b5080fd5b3d915061035f565b633adff3bd60e01b60005260046000fd5b635e85ae7360e01b60005260046000fd5b630248deb960e31b60005260046000fd5b63523be8f160e11b60005260046000fd5b34610189576040366003190112610189576104076103fd610b01565b6024359033610ba2565b602060405160018152f35b346101895760003660031901126101895760206040517f00000000000000000000000000000000000000000000000000000000000000004210158152f35b346101895760403660031901126101895761047d61046c610b01565b610474610c3f565b60243590610c68565b005b346101895760003660031901126101895760405160006004548060011c9060018116801561057c575b6020831081146105685782855290811561054457506001146104e5575b6104e1836104d581850382610b2d565b60405191829182610ab8565b0390f35b600460009081527f8a35acfbc15ff81a39ae7d344fd709f28e8600b4aa8c65c6b64bfe7fe36bd19b939250905b80821061052a575090915081016020016104d56104c5565b919260018160209254838588010152019101909291610512565b60ff191660208086019190915291151560051b840190910191506104d590506104c5565b634e487b7160e01b84526022600452602484fd5b91607f16916104a8565b34610189576000366003190112610189576005546040516001600160a01b039091168152602090f35b34610189576000366003190112610189576105c8610c3f565b600580546001600160a01b031981169091556000906001600160a01b0316600080516020610cd88339815191528280a3005b34610189576020366003190112610189576001600160a01b0361061b610b01565b1660005260006020526020604060002054604051908152f35b346101895760003660031901126101895761064d610c3f565b7f000000000000000000000000000000000000000000000000000000000000000042106103d0576005805460ff60a01b1916600160a01b179055005b34610189576040366003190112610189576106a2610b01565b602435906106ae610c3f565b7f0000000000000000000000000000000000000000000000000000000000000000421015610753576001600160a01b0316801561073d576002549180830180931161072757602092600255600080516020610cf8833981519152600093849284845283825260408420818154019055604051908152a380f35b634e487b7160e01b600052601160045260246000fd5b63ec442f0560e01b600052600060045260246000fd5b633ac1231960e21b60005260046000fd5b3461018957600036600319011261018957602061077f610b66565b604051908152f35b3461018957600036600319011261018957602060405160128152f35b3461018957600036600319011261018957602060ff60055460a01c166040519015158152f35b34610189576000366003190112610189576020604051670de0b6b3a76400008152f35b34610189576000366003190112610189576040517f00000000000000000000000000000000000000000000000000000000000000006001600160a01b03168152602090f35b346101895760603660031901126101895761084a610b01565b610852610b17565b6001600160a01b0382166000818152600160209081526040808320338452909152902054909260443592916000198110610892575b506104079350610ba2565b8381106109015784156108eb5733156108d557610407946000526001602052604060002060018060a01b0333166000526020528360406000209103905584610887565b634a1406b160e11b600052600060045260246000fd5b63e602df0560e01b600052600060045260246000fd5b8390637dc7a0d960e11b6000523360045260245260445260646000fd5b346101895760003660031901126101895760206040517f00000000000000000000000000000000000000000000000000000000000000008152f35b34610189576000366003190112610189576020600254604051908152f35b3461018957604036600319011261018957610990610b01565b6024359033156108eb576001600160a01b03169081156108d557336000526001602052604060002082600052602052806040600020556040519081527f8c5be1e5ebec7d5bd14f71427d1e84f3dd0314c0f7b2291e5b200ac8c7c3b92560203392a3602060405160018152f35b346101895760003660031901126101895760006003548060011c90600181168015610aae575b602083108114610568578285529081156105445750600114610a4f576104e1836104d581850382610b2d565b600360009081527fc2575a0e9e593c00f959f8c92f12db2869c3395a3b0502d05e2516446f71f85b939250905b808210610a94575090915081016020016104d56104c5565b919260018160209254838588010152019101909291610a7c565b91607f1691610a23565b91909160208152825180602083015260005b818110610aeb575060409293506000838284010152601f8019910116010190565b8060208092870101516040828601015201610aca565b600435906001600160a01b038216820361018957565b602435906001600160a01b038216820361018957565b601f909101601f19168101906001600160401b03821190821017610b5057604052565b634e487b7160e01b600052604160045260246000fd5b7f000000000000000000000000000000000000000000000000000000000000000080421015610b9c574281039081116107275790565b50600090565b6001600160a01b0316908115610c29576001600160a01b031691821561073d576000828152806020526040812054828110610c0f579160408282600080516020610cf8833981519152958760209652828652038282205586815280845220818154019055604051908152a3565b916064928463391434e360e21b8452600452602452604452fd5b634b637e8f60e11b600052600060045260246000fd5b6005546001600160a01b03163303610c5357565b63118cdaa760e01b6000523360045260246000fd5b6001600160a01b03168015610c2957600091818352826020526040832054818110610cbe5781600080516020610cf8833981519152926020928587528684520360408620558060025403600255604051908152a3565b6064939263391434e360e21b8452600452602452604452fdfe8be0079c531659141344cd1fd0a4f28419497f9722a3daafe3b4186f6b6457e0ddf252ad1be2c89b69c2b068fc378daa952ba7f163c4a11628f55a4df523b3efa164736f6c634300081e000a60c08060405234610257576116fb803803809161001c8285610483565b83398101906060818303126102575780516001600160a01b03811691908290036102575760208101516001600160401b038111610257578361005f9183016104a6565b60408201519093906001600160401b0381116102575761007f92016104a6565b82519091906001600160401b03811161038c57600354600181811c91168015610479575b602082101461036c57601f8111610414575b506020601f82116001146103ad57819293946000926103a2575b50508160011b916000199060031b1c1916176003555b81516001600160401b03811161038c57600454600181811c91168015610382575b602082101461036c57601f8111610307575b50602092601f82116001146102a25792819293600092610297575b50508160011b916000199060031b1c1916176004555b33156102815760058054336001600160a01b0319821681179092556040519291906001600160a01b03167f8be0079c531659141344cd1fd0a4f28419497f9722a3daafe3b4186f6b6457e0600080a36001600655801561027057816004818360209460805263204f83f960e01b82525afa9081156102645760009161022d575b5060a0526040516111e5908161051682396080518181816103830152818161086f015281816109b101528181610e7a0152611079015260a0518181816105bb015281816106f0015281816107fa01528181610ae501528181610d730152610f1d0152f35b90506020813d60201161025c575b8161024860209383610483565b810103126102575751386101c9565b600080fd5b3d915061023b565b6040513d6000823e3d90fd5b6323b8809d60e11b60005260046000fd5b631e4fbdf760e01b600052600060045260246000fd5b015190503880610133565b601f198216936004600052806000209160005b8681106102ef57508360019596106102d6575b505050811b01600455610149565b015160001960f88460031b161c191690553880806102c8565b919260206001819286850151815501940192016102b5565b60046000527f8a35acfbc15ff81a39ae7d344fd709f28e8600b4aa8c65c6b64bfe7fe36bd19b601f830160051c81019160208410610362575b601f0160051c01905b8181106103565750610118565b60008155600101610349565b9091508190610340565b634e487b7160e01b600052602260045260246000fd5b90607f1690610106565b634e487b7160e01b600052604160045260246000fd5b0151905038806100cf565b601f198216906003600052806000209160005b8181106103fc575095836001959697106103e3575b505050811b016003556100e5565b015160001960f88460031b161c191690553880806103d5565b9192602060018192868b0151815501940192016103c0565b60036000527fc2575a0e9e593c00f959f8c92f12db2869c3395a3b0502d05e2516446f71f85b601f830160051c8101916020841061046f575b601f0160051c01905b81811061046357506100b5565b60008155600101610456565b909150819061044d565b90607f16906100a3565b601f909101601f19168101906001600160401b0382119082101761038c57604052565b81601f82011215610257578051906001600160401b03821161038c57604051926104da601f8401601f191660200185610483565b828452602083830101116102575760005b82811061050057505060206000918301015290565b806020809284010151828287010152016104eb56fe608080604052600436101561001357600080fd5b60003560e01c90816306ac7aed14610c6a5750806306fdde0314610bac578063095ea7b314610b2657806318160ddd14610b08578063204f83f914610acd57806323b872dd146109e0578063287b448d1461099b578063313ce5671461097f5780633e84531c14610964578063406cf229146107d857806340c10f19146106c95780634e94b9871461068f57806370a0823114610655578063715018a61461060a5780638da5cb5b146105e157806390e64d13146105a357806395d89b411461049c5780639dc29fac14610280578063a9059cbb1461024f578063b77cf9c614610215578063dd62ed3e146101c4578063ec797fc2146101995763f2fde38b1461011c57600080fd5b3461019457602036600319011261019457610135610ca0565b61013d61114f565b6001600160a01b0316801561017e57600580546001600160a01b0319811683179091556001600160a01b0316600080516020611199833981519152600080a3005b631e4fbdf760e01b600052600060045260246000fd5b600080fd5b346101945760203660031901126101945760206101bc6101b7610ca0565b610e20565b604051908152f35b34610194576040366003190112610194576101dd610ca0565b6101e5610cb6565b6001600160a01b039182166000908152600160209081526040808320949093168252928352819020549051908152f35b34610194576020366003190112610194576001600160a01b03610236610ca0565b1660005260076020526020604060002054604051908152f35b346101945760403660031901126101945761027561026b610ca0565b6024359033610f5a565b602060405160018152f35b3461019457604036600319011261019457610299610ca0565b6024356102a461114f565b6001600160a01b0382169182156104865782600052600060205260406000205461032c575b506000908282528160205260408220548181106103145760208285936000805160206111b983398151915293869787528684520360408620558060025403600255604051908152a380f35b60649363391434e360e21b8452600452602452604452fd5b61033581610e20565b9081610342575b506102c9565b83600052600760205242604060002055836000526008602052604060002061036b838254610dae565b9055604051632495a59960e01b8152906020826004817f00000000000000000000000000000000000000000000000000000000000000006001600160a01b03165afa91821561044b576103e4926020928592600092610457575b50600060405180968195829463a9059cbb60e01b845260048401610df2565b03926001600160a01b03165af1801561044b57849260008051602061117983398151915292602092610420575b50604051908152a2828061033c565b61043f90833d8511610444575b6104378183610d15565b810190610dda565b610411565b503d61042d565b6040513d6000823e3d90fd5b610478919250843d861161047f575b6104708183610d15565b810190610dbb565b90886103c5565b503d610466565b634b637e8f60e11b600052600060045260246000fd5b346101945760003660031901126101945760405160006004548060011c90600181168015610599575b602083108114610585578285529081156105615750600114610502575b6104fe836104f281850382610d15565b60405191829182610ccc565b0390f35b600460009081527f8a35acfbc15ff81a39ae7d344fd709f28e8600b4aa8c65c6b64bfe7fe36bd19b939250905b808210610547575090915081016020016104f26104e2565b91926001816020925483858801015201910190929161052f565b60ff191660208086019190915291151560051b840190910191506104f290506104e2565b634e487b7160e01b84526022600452602484fd5b91607f16916104c5565b346101945760003660031901126101945760206040517f00000000000000000000000000000000000000000000000000000000000000004210158152f35b34610194576000366003190112610194576005546040516001600160a01b039091168152602090f35b346101945760003660031901126101945761062361114f565b600580546001600160a01b031981169091556000906001600160a01b03166000805160206111998339815191528280a3005b34610194576020366003190112610194576001600160a01b03610676610ca0565b1660005260006020526020604060002054604051908152f35b34610194576020366003190112610194576001600160a01b036106b0610ca0565b1660005260086020526020604060002054604051908152f35b34610194576040366003190112610194576106e2610ca0565b602435906106ee61114f565b7f00000000000000000000000000000000000000000000000000000000000000004210156107c7576001600160a01b031680156107b1578060209281600052600784526040600020541561079d575b61074981600254610dae565b6002556000805160206111b9833981519152600094859284845283825260408420818154019055604051908152a3808252600760205260408220541561078d575080f35b8152600760205242604082205580f35b81600052600784524260406000205561073d565b63ec442f0560e01b600052600060045260246000fd5b636a83df5360e01b60005260046000fd5b34610194576000366003190112610194576002600654146109535760026006557f00000000000000000000000000000000000000000000000000000000000000004210156107c75761082933610e20565b801561094257336000526007602052426040600020553360005260086020526040600020610858828254610dae565b9055604051632495a59960e01b81526020816004817f00000000000000000000000000000000000000000000000000000000000000006001600160a01b03165afa90811561044b57600091610923575b506020604051809263a9059cbb60e01b8252816000816108cc883360048401610df2565b03926001600160a01b03165af1801561044b57610906575b5060405190815260008051602061117983398151915260203392a26001600655005b61091e9060203d602011610444576104378183610d15565b6108e4565b61093c915060203d60201161047f576104708183610d15565b826108a8565b632cae373760e21b60005260046000fd5b633ee5aeb560e01b60005260046000fd5b346101945760003660031901126101945760206101bc610d71565b3461019457600036600319011261019457602060405160128152f35b34610194576000366003190112610194576040517f00000000000000000000000000000000000000000000000000000000000000006001600160a01b03168152602090f35b34610194576060366003190112610194576109f9610ca0565b610a01610cb6565b6001600160a01b0382166000818152600160209081526040808320338452909152902054909260443592916000198110610a41575b506102759350610f5a565b838110610ab0578415610a9a573315610a8457610275946000526001602052604060002060018060a01b0333166000526020528360406000209103905584610a36565b634a1406b160e11b600052600060045260246000fd5b63e602df0560e01b600052600060045260246000fd5b8390637dc7a0d960e11b6000523360045260245260445260646000fd5b346101945760003660031901126101945760206040517f00000000000000000000000000000000000000000000000000000000000000008152f35b34610194576000366003190112610194576020600254604051908152f35b3461019457604036600319011261019457610b3f610ca0565b602435903315610a9a576001600160a01b0316908115610a8457336000526001602052604060002082600052602052806040600020556040519081527f8c5be1e5ebec7d5bd14f71427d1e84f3dd0314c0f7b2291e5b200ac8c7c3b92560203392a3602060405160018152f35b346101945760003660031901126101945760405160006003548060011c90600181168015610c60575b602083108114610585578285529081156105615750600114610c01576104fe836104f281850382610d15565b600360009081527fc2575a0e9e593c00f959f8c92f12db2869c3395a3b0502d05e2516446f71f85b939250905b808210610c46575090915081016020016104f26104e2565b919260018160209254838588010152019101909291610c2e565b91607f1691610bd5565b34610194576020366003190112610194576020906001600160a01b03610c8e610ca0565b16600052600882526040600020548152f35b600435906001600160a01b038216820361019457565b602435906001600160a01b038216820361019457565b91909160208152825180602083015260005b818110610cff575060409293506000838284010152601f8019910116010190565b8060208092870101516040828601015201610cde565b601f909101601f19168101906001600160401b03821190821017610d3857604052565b634e487b7160e01b600052604160045260246000fd5b91908203918211610d5b57565b634e487b7160e01b600052601160045260246000fd5b7f000000000000000000000000000000000000000000000000000000000000000080421015610da857610da5904290610d4e565b90565b50600090565b91908201809211610d5b57565b9081602091031261019457516001600160a01b03811681036101945790565b90816020910312610194575180151581036101945790565b6001600160a01b039091168152602081019190915260400190565b81810292918115918404141715610d5b57565b6001600160a01b0316600081815260208190526040902054158015610f44575b8015610f1a575b610da857806000526007602052610e6360406000205442610d4e565b604051636999ac9360e01b815290916020826004817f00000000000000000000000000000000000000000000000000000000000000006001600160a01b03165afa91821561044b57600092610ee2575b5091612710610ed8610ede936301e13380956000526000602052604060002054610e0d565b04610e0d565b0490565b9150916020823d602011610f12575b81610efe60209383610d15565b810103126101945790519091612710610eb3565b3d9150610ef1565b507f0000000000000000000000000000000000000000000000000000000000000000421015610e47565b5080600052600760205260406000205415610e40565b916001600160a01b038316918215610486576001600160a01b03169283156107b157826000526000602052604060002054611022575b508260005260076020526040600020541561100d575b6000828152806020526040812054828110610ff35791604082826000805160206111b9833981519152958760209652828652038282205586815280845220818154019055604051908152a3565b916064928463391434e360e21b8452600452602452604452fd5b82600052600760205242604060002055610fa6565b61102b81610e20565b9081611038575b50610f90565b836000526007602052426040600020558360005260086020526040600020611061838254610dae565b9055604051632495a59960e01b8152906020826004817f00000000000000000000000000000000000000000000000000000000000000006001600160a01b03165afa91821561044b576110d99260209285926000926111305750600060405180968195829463a9059cbb60e01b845260048401610df2565b03926001600160a01b03165af1801561044b57849260008051602061117983398151915292602092611115575b50604051908152a23880611032565b61112b90833d8511610444576104378183610d15565b611106565b611148919250843d861161047f576104708183610d15565b90386103c5565b6005546001600160a01b0316330361116357565b63118cdaa760e01b6000523360045260246000fdfec04825ba3f383b602255d2a13065a68e325c65c9e0ed5d031ea2b06f641873af8be0079c531659141344cd1fd0a4f28419497f9722a3daafe3b4186f6b6457e0ddf252ad1be2c89b69c2b068fc378daa952ba7f163c4a11628f55a4df523b3efa164736f6c634300081e000a036b6384b5eca791c62761152d0c79bb0604c104a5fb6f4eb0703f3154bb3db0d4af1adc01528c516c3bf6870d9dc8b8999606bb2c70434e6e909fae79c7516e5e6bfc157d6a8cba4f7a99c8b8dcaaa3d2ab11d2a88b7f5d6d34d838be9c2bf38be0079c531659141344cd1fd0a4f28419497f9722a3daafe3b4186f6b6457e0f652222313e28459528d920b65115c16c04f3efc82aaedc97be59f3f377c0d3fa164736f6c634300081e000a"
}