{
  "address": "0xE3cB58467250bd4178d737A87B87dc7AE00Dad62",
  "abi": [
    {
      "inputs": [],
      "stateMutability": "nonpayable",
      "type": "constructor"
    },
    {
      "inputs": [
        {
          "internalType": "address",
          "name": "owner",
          "type": "address"
        }
      ],
      "name": "OwnableInvalidOwner",
      "type": "error"
    },
    {
      "inputs": [
        {
          "internalType": "address",
          "name": "account",
          "type": "address"
        }
      ],
      "name": "OwnableUnauthorizedAccount",
      "type": "error"
    },
    {
      "inputs": [],
      "name": "ReentrancyGuardReentrantCall",
      "type": "error"
    },
    {
      "anonymous": false,
      "inputs": [
        {
          "indexed": true,
          "internalType": "address",
          "name": "previousOwner",
          "type": "address"
        },
        {
          "indexed": true,
          "internalType": "address",
          "name": "newOwner",
          "type": "address"
        }
      ],
      "name": "OwnershipTransferred",
      "type": "event"
    },
    {
      "anonymous": false,
      "inputs": [
        {
          "indexed": true,
          "internalType": "address",
          "name": "user",
          "type": "address"
        },
        {
          "indexed": true,
          "internalType": "address",
          "name": "ptToken",
          "type": "address"
        },
        {
          "indexed": false,
          "internalType": "uint256",
          "name": "amount",
          "type": "uint256"
        }
      ],
      "name": "PTRedeemed",
      "type": "event"
    },
    {
      "anonymous": false,
      "inputs": [
        {
          "indexed": true,
          "internalType": "address",
          "name": "underlying",
          "type": "address"
        },
        {
          "indexed": true,
          "internalType": "address",
          "name": "syToken",
          "type": "address"
        },
        {
          "indexed": false,
          "internalType": "uint256",
          "name": "maturity",
          "type": "uint256"
        },
        {
          "indexed": false,
          "internalType": "uint256",
          "name": "yieldRate",
          "type": "uint256"
        }
      ],
      "name": "SYTokenCreated",
      "type": "event"
    },
    {
      "anonymous": false,
      "inputs": [
        {
          "indexed": true,
          "internalType": "address",
          "name": "user",
          "type": "address"
        },
        {
          "indexed": true,
          "internalType": "address",
          "name": "syToken",
          "type": "address"
        },
        {
          "indexed": false,
          "internalType": "uint256",
          "name": "amount",
          "type": "uint256"
        },
        {
          "indexed": false,
          "internalType": "address",
          "name": "ptToken",
          "type": "address"
        },
        {
          "indexed": false,
          "internalType": "address",
          "name": "ytToken",
          "type": "address"
        }
      ],
      "name": "TokensMerged",
      "type": "event"
    },
    {
      "anonymous": false,
      "inputs": [
        {
          "indexed": true,
          "internalType": "address",
          "name": "user",
          "type": "address"
        },
        {
          "indexed": true,
          "internalType": "address",
          "name": "syToken",
          "type": "address"
        },
        {
          "indexed": false,
          "internalType": "uint256",
          "name": "amount",
          "type": "uint256"
        },
        {
          "indexed": false,
          "internalType": "address",
          "name": "ptToken",
          "type": "address"
        },
        {
          "indexed": false,
          "internalType": "address",
          "name": "ytToken",
          "type": "address"
        }
      ],
      "name": "TokensSplit",
      "type": "event"
    },
    {
      "anonymous": false,
      "inputs": [
        {
          "indexed": true,
          "internalType": "address",
          "name": "user",
          "type": "address"
        },
        {
          "indexed": true,
          "internalType": "address",
          "name": "ytToken",
          "type": "address"
        },
        {
          "indexed": false,
          "internalType": "uint256",
          "name": "yieldAmount",
          "type": "uint256"
        }
      ],
      "name": "YieldClaimed",
      "type": "event"
    },
    {
      "inputs": [
        {
          "internalType": "uint256",
          "name": "",
          "type": "uint256"
        }
      ],
      "name": "allSYTokens",
      "outputs": [
        {
          "internalType": "address",
          "name": "",
          "type": "address"
        }
      ],
      "stateMutability": "view",
      "type": "function"
    },
    {
      "inputs": [
        {
          "internalType": "address",
          "name": "ytTokenAddress",
          "type": "address"
        }
      ],
      "name": "claimYT",
      "outputs": [],
      "stateMutability": "nonpayable",
      "type": "function"
    },
    {
      "inputs": [
        {
          "internalType": "address",
          "name": "underlying",
          "type": "address"
        },
        {
          "internalType": "uint256",
          "name": "maturity",
          "type": "uint256"
        },
        {
          "internalType": "string",
          "name": "name",
          "type": "string"
        },
        {
          "internalType": "string",
          "name": "symbol",
          "type": "string"
        },
        {
          "internalType": "uint256",
          "name": "yieldRate",
          "type": "uint256"
        }
      ],
      "name": "createSYToken",
      "outputs": [
        {
          "internalType": "address",
          "name": "",
          "type": "address"
        }
      ],
      "stateMutability": "nonpayable",
      "type": "function"
    },
    {
      "inputs": [],
      "name": "getAllSYTokens",
      "outputs": [
        {
          "internalType": "address[]",
          "name": "",
          "type": "address[]"
        }
      ],
      "stateMutability": "view",
      "type": "function"
    },
    {
      "inputs": [
        {
          "internalType": "address",
          "name": "underlying",
          "type": "address"
        }
      ],
      "name": "getSYToken",
      "outputs": [
        {
          "internalType": "address",
          "name": "",
          "type": "address"
        }
      ],
      "stateMutability": "view",
      "type": "function"
    },
    {
      "inputs": [
        {
          "internalType": "address",
          "name": "syToken",
          "type": "address"
        }
      ],
      "name": "getTokenPair",
      "outputs": [
        {
          "internalType": "address",
          "name": "pt",
          "type": "address"
        },
        {
          "internalType": "address",
          "name": "yt",
          "type": "address"
        }
      ],
      "stateMutability": "view",
      "type": "function"
    },
    {
      "inputs": [
        {
          "internalType": "address",
          "name": "syTokenAddress",
          "type": "address"
        },
        {
          "internalType": "uint256",
          "name": "amount",
          "type": "uint256"
        }
      ],
      "name": "merge",
      "outputs": [
        {
          "internalType": "address",
          "name": "",
          "type": "address"
        }
      ],
      "stateMutability": "nonpayable",
      "type": "function"
    },
    {
      "inputs": [],
      "name": "owner",
      "outputs": [
        {
          "internalType": "address",
          "name": "",
          "type": "address"
        }
      ],
      "stateMutability": "view",
      "type": "function"
    },
    {
      "inputs": [
        {
          "internalType": "address",
          "name": "ptTokenAddress",
          "type": "address"
        }
      ],
      "name": "redeemPT",
      "outputs": [],
      "stateMutability": "nonpayable",
      "type": "function"
    },
    {
      "inputs": [],
      "name": "renounceOwnership",
      "outputs": [],
      "stateMutability": "nonpayable",
      "type": "function"
    },
    {
      "inputs": [
        {
          "internalType": "address",
          "name": "syTokenAddress",
          "type": "address"
        },
        {
          "internalType": "uint256",
          "name": "amount",
          "type": "uint256"
        }
      ],
      "name": "split",
      "outputs": [
        {
          "internalType": "address",
          "name": "",
          "type": "address"
        },
        {
          "internalType": "address",
          "name": "",
          "type": "address"
        }
      ],
      "stateMutability": "nonpayable",
      "type": "function"
    },
    {
      "inputs": [
        {
          "internalType": "address",
          "name": "",
          "type": "address"
        }
      ],
      "name": "syTokenPairs",
      "outputs": [
        {
          "internalType": "address",
          "name": "pt",
          "type": "address"
        },
        {
          "internalType": "address",
          "name": "yt",
          "type": "address"
        },
        {
          "internalType": "bool",
          "name": "exists",
          "type": "bool"
        }
      ],
      "stateMutability": "view",
      "type": "function"
    },
    {
      "inputs": [
        {
          "internalType": "address",
          "name": "newOwner",
          "type": "address"
        }
      ],
      "name": "transferOwnership",
      "outputs": [],
      "stateMutability": "nonpayable",
      "type": "function"
    },
    {
      "inputs": [
        {
          "internalType": "address",
          "name": "",
          "type": "address"
        }
      ],
      "name": "underlyingToSY",
      "outputs": [
        {
          "internalType": "address",
          "name": "",
          "type": "address"
        }
      ],
      "stateMutability": "view",
      "type": "function"
    },
    {
      "inputs": [
        {
          "internalType": "address",
          "name": "underlying",
          "type": "address"
        },
        {
          "internalType": "uint256",
          "name": "amount",
          "type": "uint256"
        }
      ],
      "name": "wrap",
      "outputs": [
        {
          "internalType": "address",
          "name": "",
          "type": "address"
        }
      ],
      "stateMutability": "nonpayable",
      "type": "function"
    }
  ],
  "transactionHash": "0x723c6b65ee5428a3c25f615763c996aaf6fed0c12c825e8817d36ee97e5fc42d",
  "args": [],
  "numDeployments": 1,
  "solcInputHash": "328ea8ab094cb1005f5895e0dc409673",
  "bytecode": "0x60808060405234607957331560635760008054336001600160a01b0319821681178355916001600160a01b03909116907f8be0079c531659141344cd1fd0a4f28419497f9722a3daafe3b4186f6b6457e09080a360018055615819908161007f8239f35b631e4fbdf760e01b600052600060045260246000fd5b600080fdfe6080604052600436101561001257600080fd5b6000803560e01c806317a4cf4914611141578063479f7466146110fd5780634df07748146104545780635d1e2d1b14610dde57806368c5e58d14610c0c578063715018a614610bc45780637559091f146107315780638da5cb5b1461070a578063b1aecc8e14610675578063bf376c7a14610495578063dab49f5114610454578063e5c2b7b8146103f2578063f2fde38b1461037e578063f919aec21461018c5763fadf4cd4146100c257600080fd5b3461018957806003193601126101895760405160048054808352908352602082019081907f8a35acfbc15ff81a39ae7d344fd709f28e8600b4aa8c65c6b64bfe7fe36bd19b90855b81811061016a5750505082610120910383611520565b604051928392602084019060208552518091526040840192915b818110610148575050500390f35b82516001600160a01b031684528594506020938401939092019160010161013a565b82546001600160a01b031684526020909301926001928301920161010a565b80fd5b5034610189576020366003190112610189576101a661148e565b6101ae6116d7565b6040516390e64d1360e01b81526001600160a01b039190911690602081600481855afa90811561030857839161034f575b506103135760405163763cbfe160e11b8152336004820152602081602481855afa9081156103085783916102d1575b50801561029857813b156102895760405163406cf22960e01b81528390818160048183885af1801561028d57610274575b50506040519081527ff3055bc8d92d9c8d2f12b45d112dd345cd2cfd17292b8d65c5642ac6f912dfd760203392a36001805580f35b8161027e91611520565b61028957823861023f565b8280fd5b6040513d84823e3d90fd5b60405162461bcd60e51b81526020600482015260116024820152704e6f207969656c6420746f20636c61696d60781b6044820152606490fd5b90506020813d602011610300575b816102ec60209383611520565b810103126102fb57513861020e565b600080fd5b3d91506102df565b6040513d85823e3d90fd5b60405162461bcd60e51b81526020600482015260146024820152731655081d1bdad95b881a185cc8195e1c1a5c995960621b6044820152606490fd5b610371915060203d602011610377575b6103698183611520565b8101906115fc565b386101df565b503d61035f565b50346101895760203660031901126101895761039861148e565b6103a06116f9565b6001600160a01b031680156103de5781546001600160a01b03198116821783556001600160a01b03166000805160206157ed8339815191528380a380f35b631e4fbdf760e01b82526004829052602482fd5b5034610189576020366003190112610189576060906040906001600160a01b0361041a61148e565b16815260026020522060ff6001808060a01b0383541692015460405192835260018060a01b038116602084015260a01c1615156040820152f35b5034610189576020366003190112610189576020906001600160a01b0361047961148e565b16815260038252604060018060a01b0391205416604051908152f35b5034610189576040366003190112610189576104af61148e565b602435906104bb6116d7565b6001600160a01b039081168084526003602052604084205490911691908215610636576040516323b872dd60e01b8152602081806104fe86303360048501611634565b038188865af1801561062b5761060e575b506020604051809263095ea7b360e01b8252818781610532888a600484016115e1565b03925af18015610603576105e6575b50813b156102895782604051630ea598cb60e41b8152826004820152818160248183885af1801561028d576105d1575b50506020610594916040518093819263a9059cbb60e01b835233600484016115e1565b038186865af1801561030857602093506105b6575b5060018055604051908152f35b6105cc90833d8511610377576103698183611520565b6105a9565b816105db91611520565b610289578238610571565b6105fe9060203d602011610377576103698183611520565b610541565b6040513d86823e3d90fd5b6106269060203d602011610377576103698183611520565b61050f565b6040513d87823e3d90fd5b60405162461bcd60e51b815260206004820152601760248201527614d6481d1bdad95b88191bd95cc81b9bdd08195e1a5cdd604a1b6044820152606490fd5b5034610189576020366003190112610189576040906001600160a01b0361069a61148e565b1681526002602052206001604051916106b2836114ef565b818060a01b0381541683520154906106e660ff602083019360018060a01b038116855260a01c161515806040840152611599565b519051604051918291610706916001600160a01b039182169116836114d5565b0390f35b5034610189578060031936011261018957546040516001600160a01b039091168152602090f35b50346101895760a03660031901126101895761074b61148e565b6024356044356001600160401b038111610bc05761076d903690600401611543565b916064356001600160401b038111610bbc5761078d903690600401611543565b936084359161079a6116f9565b6001600160a01b0316948515610b7c5742841115610b3757858252600360205260408220546001600160a01b0316610af8576040516115d8808201906001600160401b03821183831017610ae457908291611723833988815286602082015260a0604082015285608061082161081360a085018c611679565b848103606086015287611679565b920152039083f0801561028d57610904916108d5916109156023604051936250542d60e81b60208601528a6108768387602084519401936108658184840187611656565b81010301601f198101885287611520565b6108e6836040519d8e936250542d60e81b60208601526108b7865195848160208a01986108a6818484018c611656565b8101030190601f1982018152611520565b6040519a8b926259542d60e81b602085015251809285850190611656565b81010301601f198101895288611520565b6040519788926259542d60e81b602085015251809285850190611656565b81010301601f198101865285611520565b6040516001600160a01b0391909116979091611366808401906001600160401b03821185831017610ad057918a85949261095394612cfb873961169e565b039084f0918215610308576040519161178c808401906001600160401b03821185831017610abc57918985949261098e94614061873961169e565b039083f090811561028d57604051906109a6826114ef565b6001600160a01b0390811682529182166020808301918252600160408085018281528a885260028452818820955186549088166001600160a01b03199182161787559451959092018054925160ff60a01b90151560a01b169587166001600160a81b0319909316929092179490941790558885526003905290832080549287169290911691909117905560045490600160401b821015610aa857506040849360209693610a7a8460017f0362a2f7728653faf20db84fe2dbed625147a32bbf066f88d40d2113613f39f196016004556114a4565b81546001600160a01b0360039290921b91821b19169088901b179055825191825287820152a3604051908152f35b634e487b7160e01b81526041600452602490fd5b634e487b7160e01b87526041600452602487fd5b634e487b7160e01b88526041600452602488fd5b634e487b7160e01b85526041600452602485fd5b60405162461bcd60e51b8152602060048201526017602482015276535920746f6b656e20616c72656164792065786973747360481b6044820152606490fd5b60405162461bcd60e51b815260206004820152601e60248201527f4d61747572697479206d75737420626520696e207468652066757475726500006044820152606490fd5b60405162461bcd60e51b815260206004820152601860248201527724b73b30b634b2103ab73232b9363cb4b733903a37b5b2b760411b6044820152606490fd5b8480fd5b8380fd5b5034610189578060031936011261018957610bdd6116f9565b80546001600160a01b03198116825581906001600160a01b03166000805160206157ed8339815191528280a380f35b503461018957602036600319011261018957610c2661148e565b610c2e6116d7565b60405163a109329560e01b81526001600160a01b039190911690602081600481855afa908115610308578391610dbf575b5015610d7f576040516370a0823160e01b8152336004820152602081602481855afa908115610308578391610d4d575b508015610d0f57813b15610289578260405163db006a7560e01b8152826004820152818160248183885af1801561028d57610cfa575b50506040519081527f229577ecae2622ad5b55ce7c94ce375c96b90797bf1d90b65c86aa70a2a2c1bb60203392a36001805580f35b81610d0491611520565b610289578238610cc5565b60405162461bcd60e51b81526020600482015260166024820152754e6f20505420746f6b656e7320746f2072656465656d60501b6044820152606490fd5b90506020813d602011610d77575b81610d6860209383611520565b810103126102fb575138610c8f565b3d9150610d5b565b60405162461bcd60e51b81526020600482015260186024820152771415081d1bdad95b881a185cc81b9bdd081b585d1d5c995960421b6044820152606490fd5b610dd8915060203d602011610377576103698183611520565b38610c5f565b503461018957604036600319011261018957610df861148e565b60243590610e046116d7565b6001600160a01b03168083526002602052604080842090519290600190610e2a856114ef565b818060a01b038154168552015493610e5e60ff602086019660018060a01b038116885260a01c161515806040870152611599565b8351855160405163a109329560e01b81526001600160a01b039182169290911690602081600481895afa9081156106035784916110de575b506110a2576040516370a0823160e01b8152336004820152602081602481895afa90811561060357908591859161106d575b501061102e576040516323b872dd60e01b815260208180610eee88303360048501611634565b0381878a5af1801561060357611011575b50803b15610289578260405180926340c10f1960e01b8252818381610f288a33600484016115e1565b03925af1801561030857908391610ffc575b5050803b15610ff8578160405180926340c10f1960e01b8252818381610f648933600484016115e1565b03925af1801561028d57610fe3575b50507f073509d10cd0274c0dde35c26eb33733f65b25a5ae24ca99da08ca01dbafdab360018060a01b0384511660018060a01b0386511690610fbc604051928392339684611614565b0390a351905160018055604051918291610706916001600160a01b039182169116836114d5565b610fee828092611520565b6101895780610f73565b5080fd5b8161100691611520565b610ff8578138610f3a565b6110299060203d602011610377576103698183611520565b610eff565b60405162461bcd60e51b8152602060048201526017602482015276496e73756666696369656e742053592062616c616e636560481b6044820152606490fd5b9150506020813d60201161109a575b8161108960209383611520565b810103126102fb5784905138610ec8565b3d915061107c565b60405162461bcd60e51b815260206004820152601460248201527314d6481d1bdad95b881a185cc81b585d1d5c995960621b6044820152606490fd5b6110f7915060203d602011610377576103698183611520565b38610e96565b50346101895760203660031901126101895760043590600454821015610189576020611128836114a4565b905460405160039290921b1c6001600160a01b03168152f35b50346101895760403660031901126101895761115b61148e565b602435906111676116d7565b60018060a01b03169081835260026020526040832060016040519161118b836114ef565b818060a01b0381541683520154906111bf60ff602083019360018060a01b038116855260a01c161515806040840152611599565b805182516040516370a0823160e01b81523360048201526001600160a01b039182169290911690602081602481855afa801561140f5786918991611459575b501061141a576040516370a0823160e01b8152336004820152602081602481865afa801561140f57869189916113d6575b501061139757803b1561139357866040518092632770a7eb60e21b825281838161125d8b33600484016115e1565b03925af1801561138857611374575b508086913b15610ff857816040518092632770a7eb60e21b82528183816112978b33600484016115e1565b03925af1801561028d5761135f575b505060405163a9059cbb60e01b8152602081806112c78733600484016115e1565b038189895af180156113545791859493917ffd77160facbd5c9bc71c118b25815305db2ad1fc08b890834a87c95cc3fd9f979360209850611339575b5051905160405133949092839261132a926001600160a01b03918216929091169084611614565b0390a360018055604051908152f35b61134f90883d8a11610377576103698183611520565b611303565b6040513d88823e3d90fd5b8161136991611520565b610bbc5784386112a6565b8661138191979297611520565b943861126c565b6040513d89823e3d90fd5b8680fd5b60405162461bcd60e51b8152602060048201526017602482015276496e73756666696369656e742059542062616c616e636560481b6044820152606490fd5b9150506020813d602011611407575b816113f260209383611520565b81010312611403578590513861122f565b8780fd5b3d91506113e5565b6040513d8a823e3d90fd5b60405162461bcd60e51b8152602060048201526017602482015276496e73756666696369656e742050542062616c616e636560481b6044820152606490fd5b9150506020813d602011611486575b8161147560209383611520565b8101031261140357859051386111fe565b3d9150611468565b600435906001600160a01b03821682036102fb57565b6004548110156114bf57600460005260206000200190600090565b634e487b7160e01b600052603260045260246000fd5b6001600160a01b0391821681529116602082015260400190565b606081019081106001600160401b0382111761150a57604052565b634e487b7160e01b600052604160045260246000fd5b601f909101601f19168101906001600160401b0382119082101761150a57604052565b81601f820112156102fb578035906001600160401b03821161150a5760405192611577601f8401601f191660200185611520565b828452602083830101116102fb57816000926020809301838601378301015290565b156115a057565b60405162461bcd60e51b8152602060048201526019602482015278151bdad95b881c185a5c88191bd95cc81b9bdd08195e1a5cdd603a1b6044820152606490fd5b6001600160a01b039091168152602081019190915260400190565b908160209103126102fb575180151581036102fb5790565b9081526001600160a01b0391821660208201529116604082015260600190565b6001600160a01b03918216815291166020820152604081019190915260600190565b60005b8381106116695750506000910152565b8181015183820152602001611659565b9060209161169281518092818552858086019101611656565b601f01601f1916010190565b6001600160a01b0390911681526060602082018190526116d49391926116c691840190611679565b916040818403910152611679565b90565b6002600154146116e8576002600155565b633ee5aeb560e01b60005260046000fd5b6000546001600160a01b0316330361170d57565b63118cdaa760e01b6000523360045260246000fdfe60c0604052346104a6576115d880380380610019816104ab565b928339810160a0828203126104a65781516001600160a01b038116908190036104a657602083015160408401519091906001600160401b0381116104a657836100639186016104d0565b60608501519093906001600160401b0381116104a6576080916100879187016104d0565b940151835190936001600160401b0382116103a35760035490600182811c9216801561049c575b60208310146103835781601f84931161042c575b50602090601f83116001146103c4576000926103b9575b50508160011b916000199060031b1c1916176003555b83516001600160401b0381116103a357600454600181811c91168015610399575b602082101461038357601f811161031e575b50602094601f82116001146102b7579481929394956000926102ac575b50508160011b916000199060031b1c1916176004555b33156102965760058054336001600160a01b03198216811790925560405191906001600160a01b03167f8be0079c531659141344cd1fd0a4f28419497f9722a3daafe3b4186f6b6457e0600080a36001600655811561025457504282111561020f5760805260a0526007554260085560405161109c908161053c8239608051818181610269015281816103fd0152610938015260a051818181610219015281816105ec0152818161082101528181610a6c0152610cc10152f35b60405162461bcd60e51b815260206004820152601e60248201527f4d61747572697479206d75737420626520696e207468652066757475726500006044820152606490fd5b62461bcd60e51b815260206004820152601860248201527f496e76616c696420756e6465726c79696e6720746f6b656e00000000000000006044820152606490fd5b631e4fbdf760e01b600052600060045260246000fd5b01519050388061013f565b601f198216956004600052806000209160005b888110610306575083600195969798106102ed575b505050811b01600455610155565b015160001960f88460031b161c191690553880806102df565b919260206001819286850151815501940192016102ca565b60046000527f8a35acfbc15ff81a39ae7d344fd709f28e8600b4aa8c65c6b64bfe7fe36bd19b601f830160051c81019160208410610379575b601f0160051c01905b81811061036d5750610122565b60008155600101610360565b9091508190610357565b634e487b7160e01b600052602260045260246000fd5b90607f1690610110565b634e487b7160e01b600052604160045260246000fd5b0151905038806100d9565b600360009081528281209350601f198516905b81811061041457509084600195949392106103fb575b505050811b016003556100ef565b015160001960f88460031b161c191690553880806103ed565b929360206001819287860151815501950193016103d7565b60036000529091507fc2575a0e9e593c00f959f8c92f12db2869c3395a3b0502d05e2516446f71f85b601f840160051c81019160208510610492575b90601f859493920160051c01905b81811061048357506100c2565b60008155849350600101610476565b9091508190610468565b91607f16916100ae565b600080fd5b6040519190601f01601f191682016001600160401b038111838210176103a357604052565b81601f820112156104a6578051906001600160401b0382116103a3576104ff601f8301601f19166020016104ab565b92828452602083830101116104a65760005b82811061052657505060206000918301015290565b8060208092840101518282870101520161051156fe608080604052600436101561001357600080fd5b60003560e01c90816306fdde0314610b3357508063095ea7b314610aad57806318160ddd14610a8f578063204f83f914610a5457806323b872dd146109675780632495a59914610922578063313ce567146109065780633cb3c4fd146108eb578063406cf229146108035780636999ac93146107e557806370a08231146107ab578063715018a6146107605780638da5cb5b146107375780638f8c8aee1461071957806395d89b4114610612578063a1093295146105d4578063a9059cbb146105a3578063b77cf9c614610569578063dd62ed3e14610518578063de0e9a3e14610333578063ea598cb0146101ed578063ec797fc2146101c2578063ee6c3bf2146101a45763f2fde38b1461012757600080fd5b3461019f57602036600319011261019f57610140610c37565b610148610fcc565b6001600160a01b0316801561018957600580546001600160a01b0319811683179091556001600160a01b0316600080516020611050833981519152600080a3005b631e4fbdf760e01b600052600060045260246000fd5b600080fd5b3461019f57600036600319011261019f576020600954604051908152f35b3461019f57602036600319011261019f5760206101e56101e0610c37565b610dc0565b604051908152f35b3461019f57602036600319011261019f57600435610209610f34565b610214811515610d49565b61023f7f00000000000000000000000000000000000000000000000000000000000000004210610cfc565b6040516323b872dd60e01b81523360048201523060248201526044810182905260208160648160007f00000000000000000000000000000000000000000000000000000000000000006001600160a01b03165af18015610327576102fa575b506102a7610ff5565b6102b18133610f56565b33600052600a602052426040600020556040519080825260208201527f18a5ed48bb0a697c64a5aef8f28cec1f29ab01da27a45c5f835099781ef1ea4660403392a26001600655005b61031b9060203d602011610320575b6103138183610c63565b810190610d95565b61029e565b503d610309565b6040513d6000823e3d90fd5b3461019f57602036600319011261019f5760043561034f610f34565b61035a811515610d49565b33600052600060205280604060002054106104d957610377610ff5565b33156104c35733600052600a602052604060002054156104ae575b6000338152806020526040812054918083106104955780833384528360205203604083205580600254036002558160405182815260008051602061107083398151915260203392a360405163a9059cbb60e01b815233600482015260248101829052602081604481867f00000000000000000000000000000000000000000000000000000000000000006001600160a01b03165af1801561048a5761046d575b506040519080825260208201527fe8e8d3915b94f03b4f3342716334ae94bd6f36775da7b263c908889b93d0574b60403392a2600160065580f35b6104859060203d602011610320576103138183610c63565b610432565b6040513d85823e3d90fd5b60649263391434e360e21b835233600452602452604452fd5b33600052600a60205242604060002055610392565b634b637e8f60e11b600052600060045260246000fd5b60405162461bcd60e51b8152602060048201526017602482015276496e73756666696369656e742053592062616c616e636560481b6044820152606490fd5b3461019f57604036600319011261019f57610531610c37565b610539610c4d565b6001600160a01b039182166000908152600160209081526040808320949093168252928352819020549051908152f35b3461019f57602036600319011261019f576001600160a01b0361058a610c37565b16600052600a6020526020604060002054604051908152f35b3461019f57604036600319011261019f576105c96105bf610c37565b6024359033610e43565b602060405160018152f35b3461019f57600036600319011261019f5760206040517f00000000000000000000000000000000000000000000000000000000000000004210158152f35b3461019f57600036600319011261019f5760405160006004548060011c9060018116801561070f575b6020831081146106fb578285529081156106d75750600114610678575b6106748361066881850382610c63565b60405191829182610bee565b0390f35b600460009081527f8a35acfbc15ff81a39ae7d344fd709f28e8600b4aa8c65c6b64bfe7fe36bd19b939250905b8082106106bd57509091508101602001610668610658565b9192600181602092548385880101520191019092916106a5565b60ff191660208086019190915291151560051b840190910191506106689050610658565b634e487b7160e01b84526022600452602484fd5b91607f169161063b565b3461019f57600036600319011261019f576020600854604051908152f35b3461019f57600036600319011261019f576005546040516001600160a01b039091168152602090f35b3461019f57600036600319011261019f57610779610fcc565b600580546001600160a01b031981169091556000906001600160a01b03166000805160206110508339815191528280a3005b3461019f57602036600319011261019f576001600160a01b036107cc610c37565b1660005260006020526020604060002054604051908152f35b3461019f57600036600319011261019f576020600754604051908152f35b3461019f57600036600319011261019f5761081c610f34565b6108477f00000000000000000000000000000000000000000000000000000000000000004210610cfc565b61085033610dc0565b80156108b25733600052600a6020524260406000205561087281600954610d3c565b60095561087f8133610f56565b6040519081527fc04825ba3f383b602255d2a13065a68e325c65c9e0ed5d031ea2b06f641873af60203392a26001600655005b60405162461bcd60e51b81526020600482015260116024820152704e6f207969656c6420746f20636c61696d60781b6044820152606490fd5b3461019f57600036600319011261019f5760206101e5610cbf565b3461019f57600036600319011261019f57602060405160128152f35b3461019f57600036600319011261019f576040517f00000000000000000000000000000000000000000000000000000000000000006001600160a01b03168152602090f35b3461019f57606036600319011261019f57610980610c37565b610988610c4d565b6001600160a01b03821660008181526001602090815260408083203384529091529020549092604435929160001981106109c8575b506105c99350610e43565b838110610a37578415610a21573315610a0b576105c9946000526001602052604060002060018060a01b03331660005260205283604060002091039055846109bd565b634a1406b160e11b600052600060045260246000fd5b63e602df0560e01b600052600060045260246000fd5b8390637dc7a0d960e11b6000523360045260245260445260646000fd5b3461019f57600036600319011261019f5760206040517f00000000000000000000000000000000000000000000000000000000000000008152f35b3461019f57600036600319011261019f576020600254604051908152f35b3461019f57604036600319011261019f57610ac6610c37565b602435903315610a21576001600160a01b0316908115610a0b57336000526001602052604060002082600052602052806040600020556040519081527f8c5be1e5ebec7d5bd14f71427d1e84f3dd0314c0f7b2291e5b200ac8c7c3b92560203392a3602060405160018152f35b3461019f57600036600319011261019f5760006003548060011c90600181168015610be4575b6020831081146106fb578285529081156106d75750600114610b85576106748361066881850382610c63565b600360009081527fc2575a0e9e593c00f959f8c92f12db2869c3395a3b0502d05e2516446f71f85b939250905b808210610bca57509091508101602001610668610658565b919260018160209254838588010152019101909291610bb2565b91607f1691610b59565b91909160208152825180602083015260005b818110610c21575060409293506000838284010152601f8019910116010190565b8060208092870101516040828601015201610c00565b600435906001600160a01b038216820361019f57565b602435906001600160a01b038216820361019f57565b601f909101601f19168101906001600160401b03821190821017610c8657604052565b634e487b7160e01b600052604160045260246000fd5b91908203918211610ca957565b634e487b7160e01b600052601160045260246000fd5b7f000000000000000000000000000000000000000000000000000000000000000080421015610cf657610cf3904290610c9c565b90565b50600090565b15610d0357565b60405162461bcd60e51b8152602060048201526011602482015270151bdad95b881a185cc81b585d1d5c9959607a1b6044820152606490fd5b91908201809211610ca957565b15610d5057565b60405162461bcd60e51b815260206004820152601d60248201527f416d6f756e74206d7573742062652067726561746572207468616e20300000006044820152606490fd5b9081602091031261019f5751801515810361019f5790565b81810292918115918404141715610ca957565b6001600160a01b0316600081815260208190526040902054158015610e2d575b610cf657610e29816301e1338092600052600a602052610e0560406000205442610c9c565b906000526000602052612710610e2360406000205460075490610dad565b04610dad565b0490565b5080600052600a60205260406000205415610de0565b6001600160a01b03169081156104c3576001600160a01b0316918215610f1e5781600052600a60205260406000205415610f09575b82600052600a60205260406000205415610ef4575b6000828152806020526040812054828110610eda579160408282600080516020611070833981519152958760209652828652038282205586815280845220818154019055604051908152a3565b916064928463391434e360e21b8452600452602452604452fd5b82600052600a60205242604060002055610e8d565b81600052600a60205242604060002055610e78565b63ec442f0560e01b600052600060045260246000fd5b600260065414610f45576002600655565b633ee5aeb560e01b60005260046000fd5b6001600160a01b0316908115610f1e5781600052600a60205260406000205415610fb7575b610f8781600254610d3c565b600255600080516020611070833981519152602060009284845283825260408420818154019055604051908152a3565b81600052600a60205242604060002055610f7b565b6005546001600160a01b03163303610fe057565b63118cdaa760e01b6000523360045260246000fd5b60085480421180611044575b6110085750565b64496cebb80061103261101e61103b9342610c9c565b61102d60025460075490610dad565b610dad565b04600954610d3c565b60095542600855565b50600254151561100156fe8be0079c531659141344cd1fd0a4f28419497f9722a3daafe3b4186f6b6457e0ddf252ad1be2c89b69c2b068fc378daa952ba7f163c4a11628f55a4df523b3efa164736f6c634300081e000a60c0806040523461025a57611366803803809161001c82856104b7565b833981019060608183031261025a5780516001600160a01b038116919082900361025a5760208101516001600160401b03811161025a578361005f9183016104da565b60408201519093906001600160401b03811161025a5761007f92016104da565b82519091906001600160401b0381116103c057600354600181811c911680156104ad575b60208210146103a057601f8111610448575b506020601f82116001146103e157819293946000926103d6575b50508160011b916000199060031b1c1916176003555b81516001600160401b0381116103c057600454600181811c911680156103b6575b60208210146103a057601f811161033b575b50602092601f82116001146102d657928192936000926102cb575b50508160011b916000199060031b1c1916176004555b33156102b55760058054336001600160a01b0319821681179092556040519092916001600160a01b0384167f8be0079c531659141344cd1fd0a4f28419497f9722a3daafe3b4186f6b6457e0600080a3811561027357506020816004926080526040519283809263204f83f960e01b82525afa90811561026757600091610230575b5060a0526001600160a81b0319163360ff60a01b191617600555604051610e1c908161054a823960805181818161026701526108b2015260a0518181816101f8015281816104ad015281816106d501528181610738015281816109e60152610c180152f35b90506020813d60201161025f575b8161024b602093836104b7565b8101031261025a5751386101cb565b600080fd5b3d915061023e565b6040513d6000823e3d90fd5b62461bcd60e51b815260206004820152601860248201527f496e76616c696420535920746f6b656e206164647265737300000000000000006044820152606490fd5b631e4fbdf760e01b600052600060045260246000fd5b015190503880610133565b601f198216936004600052806000209160005b868110610323575083600195961061030a575b505050811b01600455610149565b015160001960f88460031b161c191690553880806102fc565b919260206001819286850151815501940192016102e9565b60046000527f8a35acfbc15ff81a39ae7d344fd709f28e8600b4aa8c65c6b64bfe7fe36bd19b601f830160051c81019160208410610396575b601f0160051c01905b81811061038a5750610118565b6000815560010161037d565b9091508190610374565b634e487b7160e01b600052602260045260246000fd5b90607f1690610106565b634e487b7160e01b600052604160045260246000fd5b0151905038806100cf565b601f198216906003600052806000209160005b81811061043057509583600195969710610417575b505050811b016003556100e5565b015160001960f88460031b161c19169055388080610409565b9192602060018192868b0151815501940192016103f4565b60036000527fc2575a0e9e593c00f959f8c92f12db2869c3395a3b0502d05e2516446f71f85b601f830160051c810191602084106104a3575b601f0160051c01905b81811061049757506100b5565b6000815560010161048a565b9091508190610481565b90607f16906100a3565b601f909101601f19168101906001600160401b038211908210176103c057604052565b81601f8201121561025a578051906001600160401b0382116103c0576040519261050e601f8401601f1916602001856104b7565b8284526020838301011161025a5760005b82811061053457505060206000918301015290565b8060208092840101518282870101520161051f56fe608080604052600436101561001357600080fd5b60003560e01c90816306fdde0314610aad57508063095ea7b314610a2757806318160ddd14610a09578063204f83f9146109ce57806323b872dd146108e1578063287b448d1461089c5780632b11551a146108795780632d7ecd1114610853578063313ce567146108375780633cb3c4fd1461081457806340c10f19146107115780634721ed6f146106b757806370a082311461067d578063715018a6146106325780638da5cb5b1461060957806395d89b41146105025780639dc29fac146104d3578063a109329514610495578063a9059cbb14610464578063db006a75146101df578063dd62ed3e1461018e5763f2fde38b1461011157600080fd5b346101895760203660031901126101895761012a610bb1565b610132610d37565b6001600160a01b0316801561017357600580546001600160a01b0319811683179091556001600160a01b0316600080516020610dd0833981519152600080a3005b631e4fbdf760e01b600052600060045260246000fd5b600080fd5b34610189576040366003190112610189576101a7610bb1565b6101af610bc7565b6001600160a01b039182166000908152600160209081526040808320949093168252928352819020549051908152f35b346101895760203660031901126101895760043561021f7f0000000000000000000000000000000000000000000000000000000000000000421015610c52565b60ff60055460a01c16156104265780156103e15733600052600060205280604060002054106103a2576102528133610d60565b604051632495a59960e01b81526020816004817f00000000000000000000000000000000000000000000000000000000000000006001600160a01b03165afa90811561034c57600091610358575b5060405163a9059cbb60e01b81523360048201526024810183905290602090829060449082906000906001600160a01b03165af1801561034c57610314575b506040519080825260208201527fe5b754fb1abb7f01b499791d0b820ae3b6af3424ac1c59768edb53f4ec31a92960403392a2005b6020813d602011610344575b8161032d60209383610bdd565b81010312610189575180151581146102df57600080fd5b3d9150610320565b6040513d6000823e3d90fd5b6020813d60201161039a575b8161037160209383610bdd565b810103126103965751906001600160a01b0382168203610393575060206102a0565b80fd5b5080fd5b3d9150610364565b60405162461bcd60e51b8152602060048201526017602482015276496e73756666696369656e742050542062616c616e636560481b6044820152606490fd5b60405162461bcd60e51b815260206004820152601d60248201527f416d6f756e74206d7573742062652067726561746572207468616e20300000006044820152606490fd5b60405162461bcd60e51b8152602060048201526016602482015275149959195b5c1d1a5bdb881b9bdd08195b98589b195960521b6044820152606490fd5b346101895760403660031901126101895761048a610480610bb1565b6024359033610c9a565b602060405160018152f35b346101895760003660031901126101895760206040517f00000000000000000000000000000000000000000000000000000000000000004210158152f35b34610189576040366003190112610189576105006104ef610bb1565b6104f7610d37565b60243590610d60565b005b346101895760003660031901126101895760405160006004548060011c906001811680156105ff575b6020831081146105eb578285529081156105c75750600114610568575b6105648361055881850382610bdd565b60405191829182610b68565b0390f35b600460009081527f8a35acfbc15ff81a39ae7d344fd709f28e8600b4aa8c65c6b64bfe7fe36bd19b939250905b8082106105ad57509091508101602001610558610548565b919260018160209254838588010152019101909291610595565b60ff191660208086019190915291151560051b840190910191506105589050610548565b634e487b7160e01b84526022600452602484fd5b91607f169161052b565b34610189576000366003190112610189576005546040516001600160a01b039091168152602090f35b346101895760003660031901126101895761064b610d37565b600580546001600160a01b031981169091556000906001600160a01b0316600080516020610dd08339815191528280a3005b34610189576020366003190112610189576001600160a01b0361069e610bb1565b1660005260006020526020604060002054604051908152f35b34610189576000366003190112610189576106d0610d37565b6106fc7f0000000000000000000000000000000000000000000000000000000000000000421015610c52565b6005805460ff60a01b1916600160a01b179055005b346101895760403660031901126101895761072a610bb1565b60243590610736610d37565b7f00000000000000000000000000000000000000000000000000000000000000004210156107db576001600160a01b031680156107c557600254918083018093116107af57602092600255600080516020610df0833981519152600093849284845283825260408420818154019055604051908152a380f35b634e487b7160e01b600052601160045260246000fd5b63ec442f0560e01b600052600060045260246000fd5b60405162461bcd60e51b8152602060048201526011602482015270151bdad95b881a185cc81b585d1d5c9959607a1b6044820152606490fd5b3461018957600036600319011261018957602061082f610c16565b604051908152f35b3461018957600036600319011261018957602060405160128152f35b3461018957600036600319011261018957602060ff60055460a01c166040519015158152f35b34610189576000366003190112610189576020604051670de0b6b3a76400008152f35b34610189576000366003190112610189576040517f00000000000000000000000000000000000000000000000000000000000000006001600160a01b03168152602090f35b34610189576060366003190112610189576108fa610bb1565b610902610bc7565b6001600160a01b0382166000818152600160209081526040808320338452909152902054909260443592916000198110610942575b5061048a9350610c9a565b8381106109b157841561099b5733156109855761048a946000526001602052604060002060018060a01b0333166000526020528360406000209103905584610937565b634a1406b160e11b600052600060045260246000fd5b63e602df0560e01b600052600060045260246000fd5b8390637dc7a0d960e11b6000523360045260245260445260646000fd5b346101895760003660031901126101895760206040517f00000000000000000000000000000000000000000000000000000000000000008152f35b34610189576000366003190112610189576020600254604051908152f35b3461018957604036600319011261018957610a40610bb1565b60243590331561099b576001600160a01b031690811561098557336000526001602052604060002082600052602052806040600020556040519081527f8c5be1e5ebec7d5bd14f71427d1e84f3dd0314c0f7b2291e5b200ac8c7c3b92560203392a3602060405160018152f35b346101895760003660031901126101895760006003548060011c90600181168015610b5e575b6020831081146105eb578285529081156105c75750600114610aff576105648361055881850382610bdd565b600360009081527fc2575a0e9e593c00f959f8c92f12db2869c3395a3b0502d05e2516446f71f85b939250905b808210610b4457509091508101602001610558610548565b919260018160209254838588010152019101909291610b2c565b91607f1691610ad3565b91909160208152825180602083015260005b818110610b9b575060409293506000838284010152601f8019910116010190565b8060208092870101516040828601015201610b7a565b600435906001600160a01b038216820361018957565b602435906001600160a01b038216820361018957565b601f909101601f19168101906001600160401b03821190821017610c0057604052565b634e487b7160e01b600052604160045260246000fd5b7f000000000000000000000000000000000000000000000000000000000000000080421015610c4c574281039081116107af5790565b50600090565b15610c5957565b60405162461bcd60e51b8152602060048201526019602482015278151bdad95b881a185cc81b9bdd081b585d1d5c9959081e595d603a1b6044820152606490fd5b6001600160a01b0316908115610d21576001600160a01b03169182156107c5576000828152806020526040812054828110610d07579160408282600080516020610df0833981519152958760209652828652038282205586815280845220818154019055604051908152a3565b916064928463391434e360e21b8452600452602452604452fd5b634b637e8f60e11b600052600060045260246000fd5b6005546001600160a01b03163303610d4b57565b63118cdaa760e01b6000523360045260246000fd5b6001600160a01b03168015610d2157600091818352826020526040832054818110610db65781600080516020610df0833981519152926020928587528684520360408620558060025403600255604051908152a3565b6064939263391434e360e21b8452600452602452604452fdfe8be0079c531659141344cd1fd0a4f28419497f9722a3daafe3b4186f6b6457e0ddf252ad1be2c89b69c2b068fc378daa952ba7f163c4a11628f55a4df523b3efa164736f6c634300081e000a60c0806040523461025a5761178c803803809161001c82856104b7565b833981019060608183031261025a5780516001600160a01b038116919082900361025a5760208101516001600160401b03811161025a578361005f9183016104da565b60408201519093906001600160401b03811161025a5761007f92016104da565b82519091906001600160401b0381116103c057600354600181811c911680156104ad575b60208210146103a057601f8111610448575b506020601f82116001146103e157819293946000926103d6575b50508160011b916000199060031b1c1916176003555b81516001600160401b0381116103c057600454600181811c911680156103b6575b60208210146103a057601f811161033b575b50602092601f82116001146102d657928192936000926102cb575b50508160011b916000199060031b1c1916176004555b33156102b55760058054336001600160a01b03198216811790925560405191906001600160a01b03167f8be0079c531659141344cd1fd0a4f28419497f9722a3daafe3b4186f6b6457e0600080a36001600655811561027357608082905260405163204f83f960e01b8152602081600481865afa90811561026757600091610230575b5060a052604051611242908161054a823960805181818161038301528181610864015281816109ce01528181610ed701526110d6015260a0518181816105bb015281816106f3015281816107ef01528181610b0201528181610d900152610f7a0152f35b90506020813d60201161025f575b8161024b602093836104b7565b8101031261025a5751816101cc565b600080fd5b3d915061023e565b6040513d6000823e3d90fd5b62461bcd60e51b815260206004820152601860248201527f496e76616c696420535920746f6b656e206164647265737300000000000000006044820152606490fd5b631e4fbdf760e01b600052600060045260246000fd5b015190503880610133565b601f198216936004600052806000209160005b868110610323575083600195961061030a575b505050811b01600455610149565b015160001960f88460031b161c191690553880806102fc565b919260206001819286850151815501940192016102e9565b60046000527f8a35acfbc15ff81a39ae7d344fd709f28e8600b4aa8c65c6b64bfe7fe36bd19b601f830160051c81019160208410610396575b601f0160051c01905b81811061038a5750610118565b6000815560010161037d565b9091508190610374565b634e487b7160e01b600052602260045260246000fd5b90607f1690610106565b634e487b7160e01b600052604160045260246000fd5b0151905038806100cf565b601f198216906003600052806000209160005b81811061043057509583600195969710610417575b505050811b016003556100e5565b015160001960f88460031b161c19169055388080610409565b9192602060018192868b0151815501940192016103f4565b60036000527fc2575a0e9e593c00f959f8c92f12db2869c3395a3b0502d05e2516446f71f85b601f830160051c810191602084106104a3575b601f0160051c01905b81811061049757506100b5565b6000815560010161048a565b9091508190610481565b90607f16906100a3565b601f909101601f19168101906001600160401b038211908210176103c057604052565b81601f8201121561025a578051906001600160401b0382116103c0576040519261050e601f8401601f1916602001856104b7565b8284526020838301011161025a5760005b82811061053457505060206000918301015290565b8060208092840101518282870101520161051f56fe608080604052600436101561001357600080fd5b60003560e01c90816306ac7aed14610c875750806306fdde0314610bc9578063095ea7b314610b4357806318160ddd14610b25578063204f83f914610aea57806323b872dd146109fd578063287b448d146109b8578063313ce5671461099c5780633e84531c14610981578063406cf229146107ca57806340c10f19146106c95780634e94b9871461068f57806370a0823114610655578063715018a61461060a5780638da5cb5b146105e157806390e64d13146105a357806395d89b411461049c5780639dc29fac14610280578063a9059cbb1461024f578063b77cf9c614610215578063dd62ed3e146101c4578063ec797fc2146101995763f2fde38b1461011c57600080fd5b3461019457602036600319011261019457610135610cbd565b61013d6111ac565b6001600160a01b0316801561017e57600580546001600160a01b0319811683179091556001600160a01b03166000805160206111f6833981519152600080a3005b631e4fbdf760e01b600052600060045260246000fd5b600080fd5b346101945760203660031901126101945760206101bc6101b7610cbd565b610e7d565b604051908152f35b34610194576040366003190112610194576101dd610cbd565b6101e5610cd3565b6001600160a01b039182166000908152600160209081526040808320949093168252928352819020549051908152f35b34610194576020366003190112610194576001600160a01b03610236610cbd565b1660005260076020526020604060002054604051908152f35b346101945760403660031901126101945761027561026b610cbd565b6024359033610fb7565b602060405160018152f35b3461019457604036600319011261019457610299610cbd565b6024356102a46111ac565b6001600160a01b0382169182156104865782600052600060205260406000205461032c575b5060009082825281602052604082205481811061031457602082859360008051602061121683398151915293869787528684520360408620558060025403600255604051908152a380f35b60649363391434e360e21b8452600452602452604452fd5b61033581610e7d565b9081610342575b506102c9565b83600052600760205242604060002055836000526008602052604060002061036b838254610e0b565b9055604051632495a59960e01b8152906020826004817f00000000000000000000000000000000000000000000000000000000000000006001600160a01b03165afa91821561044b576103e4926020928592600092610457575b50600060405180968195829463a9059cbb60e01b845260048401610e4f565b03926001600160a01b03165af1801561044b5784926000805160206111d683398151915292602092610420575b50604051908152a2828061033c565b61043f90833d8511610444575b6104378183610d32565b810190610e37565b610411565b503d61042d565b6040513d6000823e3d90fd5b610478919250843d861161047f575b6104708183610d32565b810190610e18565b90886103c5565b503d610466565b634b637e8f60e11b600052600060045260246000fd5b346101945760003660031901126101945760405160006004548060011c90600181168015610599575b602083108114610585578285529081156105615750600114610502575b6104fe836104f281850382610d32565b60405191829182610ce9565b0390f35b600460009081527f8a35acfbc15ff81a39ae7d344fd709f28e8600b4aa8c65c6b64bfe7fe36bd19b939250905b808210610547575090915081016020016104f26104e2565b91926001816020925483858801015201910190929161052f565b60ff191660208086019190915291151560051b840190910191506104f290506104e2565b634e487b7160e01b84526022600452602484fd5b91607f16916104c5565b346101945760003660031901126101945760206040517f00000000000000000000000000000000000000000000000000000000000000004210158152f35b34610194576000366003190112610194576005546040516001600160a01b039091168152602090f35b34610194576000366003190112610194576106236111ac565b600580546001600160a01b031981169091556000906001600160a01b03166000805160206111f68339815191528280a3005b34610194576020366003190112610194576001600160a01b03610676610cbd565b1660005260006020526020604060002054604051908152f35b34610194576020366003190112610194576001600160a01b036106b0610cbd565b1660005260086020526020604060002054604051908152f35b34610194576040366003190112610194576106e2610cbd565b602435906106ee6111ac565b6107197f00000000000000000000000000000000000000000000000000000000000000004210610dcb565b6001600160a01b031680156107b457806020928160005260078452604060002054156107a0575b61074c81600254610e0b565b600255600080516020611216833981519152600094859284845283825260408420818154019055604051908152a38082526007602052604082205415610790575080f35b8152600760205242604082205580f35b816000526007845242604060002055610740565b63ec442f0560e01b600052600060045260246000fd5b34610194576000366003190112610194576002600654146109705760026006556108157f00000000000000000000000000000000000000000000000000000000000000004210610dcb565b61081e33610e7d565b80156109375733600052600760205242604060002055336000526008602052604060002061084d828254610e0b565b9055604051632495a59960e01b81526020816004817f00000000000000000000000000000000000000000000000000000000000000006001600160a01b03165afa90811561044b57600091610918575b506020604051809263a9059cbb60e01b8252816000816108c1883360048401610e4f565b03926001600160a01b03165af1801561044b576108fb575b506040519081526000805160206111d683398151915260203392a26001600655005b6109139060203d602011610444576104378183610d32565b6108d9565b610931915060203d60201161047f576104708183610d32565b8261089d565b60405162461bcd60e51b81526020600482015260116024820152704e6f207969656c6420746f20636c61696d60781b6044820152606490fd5b633ee5aeb560e01b60005260046000fd5b346101945760003660031901126101945760206101bc610d8e565b3461019457600036600319011261019457602060405160128152f35b34610194576000366003190112610194576040517f00000000000000000000000000000000000000000000000000000000000000006001600160a01b03168152602090f35b3461019457606036600319011261019457610a16610cbd565b610a1e610cd3565b6001600160a01b0382166000818152600160209081526040808320338452909152902054909260443592916000198110610a5e575b506102759350610fb7565b838110610acd578415610ab7573315610aa157610275946000526001602052604060002060018060a01b0333166000526020528360406000209103905584610a53565b634a1406b160e11b600052600060045260246000fd5b63e602df0560e01b600052600060045260246000fd5b8390637dc7a0d960e11b6000523360045260245260445260646000fd5b346101945760003660031901126101945760206040517f00000000000000000000000000000000000000000000000000000000000000008152f35b34610194576000366003190112610194576020600254604051908152f35b3461019457604036600319011261019457610b5c610cbd565b602435903315610ab7576001600160a01b0316908115610aa157336000526001602052604060002082600052602052806040600020556040519081527f8c5be1e5ebec7d5bd14f71427d1e84f3dd0314c0f7b2291e5b200ac8c7c3b92560203392a3602060405160018152f35b346101945760003660031901126101945760405160006003548060011c90600181168015610c7d575b602083108114610585578285529081156105615750600114610c1e576104fe836104f281850382610d32565b600360009081527fc2575a0e9e593c00f959f8c92f12db2869c3395a3b0502d05e2516446f71f85b939250905b808210610c63575090915081016020016104f26104e2565b919260018160209254838588010152019101909291610c4b565b91607f1691610bf2565b34610194576020366003190112610194576020906001600160a01b03610cab610cbd565b16600052600882526040600020548152f35b600435906001600160a01b038216820361019457565b602435906001600160a01b038216820361019457565b91909160208152825180602083015260005b818110610d1c575060409293506000838284010152601f8019910116010190565b8060208092870101516040828601015201610cfb565b601f909101601f19168101906001600160401b03821190821017610d5557604052565b634e487b7160e01b600052604160045260246000fd5b91908203918211610d7857565b634e487b7160e01b600052601160045260246000fd5b7f000000000000000000000000000000000000000000000000000000000000000080421015610dc557610dc2904290610d6b565b90565b50600090565b15610dd257565b60405162461bcd60e51b8152602060048201526011602482015270151bdad95b881a185cc8195e1c1a5c9959607a1b6044820152606490fd5b91908201809211610d7857565b9081602091031261019457516001600160a01b03811681036101945790565b90816020910312610194575180151581036101945790565b6001600160a01b039091168152602081019190915260400190565b81810292918115918404141715610d7857565b6001600160a01b0316600081815260208190526040902054158015610fa1575b8015610f77575b610dc557806000526007602052610ec060406000205442610d6b565b604051636999ac9360e01b815290916020826004817f00000000000000000000000000000000000000000000000000000000000000006001600160a01b03165afa91821561044b57600092610f3f575b5091612710610f35610f3b936301e13380956000526000602052604060002054610e6a565b04610e6a565b0490565b9150916020823d602011610f6f575b81610f5b60209383610d32565b810103126101945790519091612710610f10565b3d9150610f4e565b507f0000000000000000000000000000000000000000000000000000000000000000421015610ea4565b5080600052600760205260406000205415610e9d565b916001600160a01b038316918215610486576001600160a01b03169283156107b45782600052600060205260406000205461107f575b508260005260076020526040600020541561106a575b6000828152806020526040812054828110611050579160408282600080516020611216833981519152958760209652828652038282205586815280845220818154019055604051908152a3565b916064928463391434e360e21b8452600452602452604452fd5b82600052600760205242604060002055611003565b61108881610e7d565b9081611095575b50610fed565b8360005260076020524260406000205583600052600860205260406000206110be838254610e0b565b9055604051632495a59960e01b8152906020826004817f00000000000000000000000000000000000000000000000000000000000000006001600160a01b03165afa91821561044b5761113692602092859260009261118d5750600060405180968195829463a9059cbb60e01b845260048401610e4f565b03926001600160a01b03165af1801561044b5784926000805160206111d683398151915292602092611172575b50604051908152a2388061108f565b61118890833d8511610444576104378183610d32565b611163565b6111a5919250843d861161047f576104708183610d32565b90386103c5565b6005546001600160a01b031633036111c057565b63118cdaa760e01b6000523360045260246000fdfec04825ba3f383b602255d2a13065a68e325c65c9e0ed5d031ea2b06f641873af8be0079c531659141344cd1fd0a4f28419497f9722a3daafe3b4186f6b6457e0ddf252ad1be2c89b69c2b068fc378daa952ba7f163c4a11628f55a4df523b3efa164736f6c634300081e000a8be0079c531659141344cd1fd0a4f28419497f9722a3daafe3b4186f6b6457e0a164736f6c634300081e000a"
}