{
  "address": "0xD610347C25f702D2165D827EDB49fF0eb49d3627",
  "abi": [
    {
      "inputs": [
        {
          "internalType": "address",
          "name": "_supraValueFeedAddress",
          "type": "address"
        },
        {
          "internalType": "uint256[]",
          "name": "ratePairIndexes",
          "type": "uint256[]"
        }
      ],
      "stateMutability": "nonpayable",
      "type": "constructor"
    },
    {
      "inputs": [],
      "name": "InvalidPair",
      "type": "error"
    },
    {
      "inputs": [
        {
          "internalType": "address",
          "name": "owner",
          "type": "address"
        }
      ],
      "name": "OwnableInvalidOwner",
      "type": "error"
    },
    {
      "inputs": [
        {
          "internalType": "address",
          "name": "account",
          "type": "address"
        }
      ],
      "name": "OwnableUnauthorizedAccount",
      "type": "error"
    },
    {
      "anonymous": false,
      "inputs": [
        {
          "indexed": true,
          "internalType": "address",
          "name": "caller",
          "type": "address"
        },
        {
          "indexed": false,
          "internalType": "uint256[]",
          "name": "ratePairs",
          "type": "uint256[]"
        }
      ],
      "name": "BlackListPair",
      "type": "event"
    },
    {
      "anonymous": false,
      "inputs": [
        {
          "indexed": true,
          "internalType": "address",
          "name": "previousOwner",
          "type": "address"
        },
        {
          "indexed": true,
          "internalType": "address",
          "name": "newOwner",
          "type": "address"
        }
      ],
      "name": "OwnershipTransferred",
      "type": "event"
    },
    {
      "anonymous": false,
      "inputs": [
        {
          "indexed": true,
          "internalType": "address",
          "name": "caller",
          "type": "address"
        },
        {
          "indexed": false,
          "internalType": "uint256[]",
          "name": "ratePairs",
          "type": "uint256[]"
        }
      ],
      "name": "WhitelistPair",
      "type": "event"
    },
    {
      "inputs": [
        {
          "internalType": "uint256[]",
          "name": "pairs",
          "type": "uint256[]"
        }
      ],
      "name": "blacklistSupraPair",
      "outputs": [],
      "stateMutability": "nonpayable",
      "type": "function"
    },
    {
      "inputs": [
        {
          "internalType": "uint256",
          "name": "_priceIndex",
          "type": "uint256"
        }
      ],
      "name": "getPrice",
      "outputs": [
        {
          "components": [
            {
              "internalType": "uint256",
              "name": "round",
              "type": "uint256"
            },
            {
              "internalType": "uint256",
              "name": "decimals",
              "type": "uint256"
            },
            {
              "internalType": "uint256",
              "name": "time",
              "type": "uint256"
            },
            {
              "internalType": "uint256",
              "name": "price",
              "type": "uint256"
            }
          ],
          "internalType": "struct ISupraSValueFeed.priceFeed",
          "name": "",
          "type": "tuple"
        }
      ],
      "stateMutability": "view",
      "type": "function"
    },
    {
      "inputs": [
        {
          "internalType": "uint256[]",
          "name": "_priceIndexes",
          "type": "uint256[]"
        }
      ],
      "name": "getPrices",
      "outputs": [
        {
          "components": [
            {
              "internalType": "uint256",
              "name": "round",
              "type": "uint256"
            },
            {
              "internalType": "uint256",
              "name": "decimals",
              "type": "uint256"
            },
            {
              "internalType": "uint256",
              "name": "time",
              "type": "uint256"
            },
            {
              "internalType": "uint256",
              "name": "price",
              "type": "uint256"
            }
          ],
          "internalType": "struct ISupraSValueFeed.priceFeed[]",
          "name": "",
          "type": "tuple[]"
        }
      ],
      "stateMutability": "view",
      "type": "function"
    },
    {
      "inputs": [],
      "name": "owner",
      "outputs": [
        {
          "internalType": "address",
          "name": "",
          "type": "address"
        }
      ],
      "stateMutability": "view",
      "type": "function"
    },
    {
      "inputs": [],
      "name": "renounceOwnership",
      "outputs": [],
      "stateMutability": "nonpayable",
      "type": "function"
    },
    {
      "inputs": [],
      "name": "supraValueFeedAddress",
      "outputs": [
        {
          "internalType": "address",
          "name": "",
          "type": "address"
        }
      ],
      "stateMutability": "view",
      "type": "function"
    },
    {
      "inputs": [
        {
          "internalType": "address",
          "name": "newOwner",
          "type": "address"
        }
      ],
      "name": "transferOwnership",
      "outputs": [],
      "stateMutability": "nonpayable",
      "type": "function"
    },
    {
      "inputs": [
        {
          "internalType": "contract ISupraSValueFeed",
          "name": "_newSValueFeed",
          "type": "address"
        }
      ],
      "name": "updateSupraSvalueFeed",
      "outputs": [],
      "stateMutability": "nonpayable",
      "type": "function"
    },
    {
      "inputs": [
        {
          "internalType": "uint256[]",
          "name": "pairs",
          "type": "uint256[]"
        }
      ],
      "name": "whitelistSupraPair",
      "outputs": [],
      "stateMutability": "nonpayable",
      "type": "function"
    }
  ],
  "transactionHash": "0xe674b74794fb1787c03e446d73bde0de3893d47c84dee7247f8b50c3519a9672",
  "args": [
    "0x5df499C9DB456154F81121282c0cB16b59e74C4b",
    [
      259,
      260,
      142,
      56,
      1,
      18
    ]
  ],
  "numDeployments": 1,
  "solcInputHash": "02cd3ce3160115c9521002b67b65c073",
  "bytecode": "0x60806040523461022f576000610c92908138038061001c81610234565b93843982019060408383031261022c5782516001600160a01b0381169390849003610226576020810151906001600160401b03821161022a57019282601f85011215610226578351926001600160401b038411610212578360051b946020610085818801610234565b8096815201906020829782010192831161020e57602001905b8282106101fe5750505033156101ea578154336001600160a01b0319821681178455906001600160a01b03167f8be0079c531659141344cd1fd0a4f28419497f9722a3daafe3b4186f6b6457e08480a3600280546001600160a01b03191691909117905550805160005b8181106101a1575050604051906020820190602083525180915260408201929060005b81811061018b57337fe901a0efe00b451f938febe0a54a280bd2032f4129232a42102b31d5cdbcb19685870386a2600254600180546001600160a01b0319166001600160a01b0392909216919091179055604051610a2290816102708239f35b825185526020948501949092019160010161012b565b82518110156101d45780602060019260051b85010151600052600360205260406000208260ff1982541617905501610108565b634e487b7160e01b600052603260045260246000fd5b631e4fbdf760e01b82526004829052602482fd5b815181526020918201910161009e565b8480fd5b634e487b7160e01b83526041600452602483fd5b5080fd5b825b80fd5b600080fd5b6040519190601f01601f191682016001600160401b0381118382101761025957604052565b634e487b7160e01b600052604160045260246000fdfe6080604052600436101561001257600080fd5b60003560e01c806309cb3a4e146105e257806334900ec2146105465780635cebf050146104a7578063715018a61461040b5780638da5cb5b146103b9578063bb66ae3914610367578063e3f87ee5146102e1578063e7572230146101795763f2fde38b1461007f57600080fd5b346101745760207ffffffffffffffffffffffffffffffffffffffffffffffffffffffffffffffffc3601126101745760043573ffffffffffffffffffffffffffffffffffffffff8116809103610174576100d761099d565b80156101455773ffffffffffffffffffffffffffffffffffffffff600054827fffffffffffffffffffffffff0000000000000000000000000000000000000000821617600055167f8be0079c531659141344cd1fd0a4f28419497f9722a3daafe3b4186f6b6457e0600080a3005b7f1e4fbdf700000000000000000000000000000000000000000000000000000000600052600060045260246000fd5b600080fd5b346101745760207ffffffffffffffffffffffffffffffffffffffffffffffffffffffffffffffffc36011261017457600435600060606040516101bb816107a3565b828152826020820152826040820152015280600052600360205260ff60406000205416156102b757608073ffffffffffffffffffffffffffffffffffffffff60015416916024604051809481937f89b94ea200000000000000000000000000000000000000000000000000000000835260048301525afa80156102ab57600090610270575b60809061026e6040518092606080918051845260208101516020850152604081015160408501520151910152565bf35b5060803d6080116102a4575b61028681836107ee565b8101906080818303126101745760809161029f91610927565b610240565b503d61027c565b6040513d6000823e3d90fd5b7f1e4f7d8c0000000000000000000000000000000000000000000000000000000060005260046000fd5b346101745760207ffffffffffffffffffffffffffffffffffffffffffffffffffffffffffffffffc3601126101745760043573ffffffffffffffffffffffffffffffffffffffff81168091036101745761033961099d565b7fffffffffffffffffffffffff00000000000000000000000000000000000000006001541617600155600080f35b346101745760007ffffffffffffffffffffffffffffffffffffffffffffffffffffffffffffffffc36011261017457602073ffffffffffffffffffffffffffffffffffffffff60025416604051908152f35b346101745760007ffffffffffffffffffffffffffffffffffffffffffffffffffffffffffffffffc36011261017457602073ffffffffffffffffffffffffffffffffffffffff60005416604051908152f35b346101745760007ffffffffffffffffffffffffffffffffffffffffffffffffffffffffffffffffc3601126101745761044261099d565b600073ffffffffffffffffffffffffffffffffffffffff81547fffffffffffffffffffffffff000000000000000000000000000000000000000081168355167f8be0079c531659141344cd1fd0a4f28419497f9722a3daafe3b4186f6b6457e08280a3005b34610174576104b536610847565b6104bd61099d565b805160005b8181106104ff57827fae389949b38a0c4900f5b5a16f575ccb1515fc5d8872a8416cea77d678dd1bf1604051806104fa339482610963565b0390a2005b8061050c600192856108e4565b51600052600360205260406000207fffffffffffffffffffffffffffffffffffffffffffffffffffffffffffffff008154169055016104c2565b346101745761055436610847565b61055c61099d565b805160005b81811061059957827fe901a0efe00b451f938febe0a54a280bd2032f4129232a42102b31d5cdbcb196604051806104fa339482610963565b806105a6600192856108e4565b5160005260036020526040600020827fffffffffffffffffffffffffffffffffffffffffffffffffffffffffffffff0082541617905501610561565b34610174576105f036610847565b60005b81518110156106255761060681836108e4565b51600052600360205260ff60406000205416156102b7576001016105f3565b61067860008373ffffffffffffffffffffffffffffffffffffffff6001541660405180809581947ff48bf17700000000000000000000000000000000000000000000000000000000835260048301610963565b03915afa9081156102ab576000916106fa575b5060405180916020820160208352815180915260206040840192019060005b8181106106b8575050500390f35b9193509160206080826106ec6001948851606080918051845260208101516020850152604081015160408501520151910152565b0194019101918493926106aa565b903d8082843e61070a81846107ee565b82019160208184031261079b5780519067ffffffffffffffff821161079f57019180601f8401121561079b578251906107428261082f565b9361075060405195866107ee565b82855260208086019360071b820101938285116107985750602001915b83831061077e57505050508161068b565b602060809161078d8486610927565b81520192019161076d565b80fd5b5080fd5b8280fd5b6080810190811067ffffffffffffffff8211176107bf57604052565b7f4e487b7100000000000000000000000000000000000000000000000000000000600052604160045260246000fd5b90601f7fffffffffffffffffffffffffffffffffffffffffffffffffffffffffffffffe0910116810190811067ffffffffffffffff8211176107bf57604052565b67ffffffffffffffff81116107bf5760051b60200190565b60207ffffffffffffffffffffffffffffffffffffffffffffffffffffffffffffffffc820112610174576004359067ffffffffffffffff8211610174578060238301121561017457816004013561089d8161082f565b926108ab60405194856107ee565b8184526024602085019260051b82010192831161017457602401905b8282106108d45750505090565b81358152602091820191016108c7565b80518210156108f85760209160051b010190565b7f4e487b7100000000000000000000000000000000000000000000000000000000600052603260045260246000fd5b91908260809103126101745760405161093f816107a3565b60608082948051845260208101516020850152604081015160408501520151910152565b602060408183019282815284518094520192019060005b8181106109875750505090565b825184526020938401939092019160010161097a565b73ffffffffffffffffffffffffffffffffffffffff6000541633036109be57565b7f118cdaa7000000000000000000000000000000000000000000000000000000006000523360045260246000fdfea264697066735822122064323419250711d08b2c5d2af24469fc75c04ed1c6b7c030303cba3cb1c41bc664736f6c634300081e0033",
  "devdoc": {
    "errors": {
      "OwnableInvalidOwner(address)": [
        {
          "details": "The owner is not a valid owner account. (eg. `address(0)`)"
        }
      ],
      "OwnableUnauthorizedAccount(address)": [
        {
          "details": "The caller account is not authorized to perform an operation."
        }
      ]
    },
    "kind": "dev",
    "methods": {
      "owner()": {
        "details": "Returns the address of the current owner."
      },
      "renounceOwnership()": {
        "details": "Leaves the contract without owner. It will not be possible to call `onlyOwner` functions. Can only be called by the current owner. NOTE: Renouncing ownership will leave the contract without an owner, thereby disabling any functionality that is only available to the owner."
      },
      "transferOwnership(address)": {
        "details": "Transfers ownership of the contract to a new account (`newOwner`). Can only be called by the current owner."
      }
    },
    "version": 1
  },
  "userdoc": {
    "kind": "user",
    "methods": {},
    "version": 1
  },
  "storageLayout": {
    "storage": [
      {
        "astId": 8,
        "contract": "contracts/Supra/SupraPushOracle.sol:SupraPUSHOracle",
        "label": "_owner",
        "offset": 0,
        "slot": "0",
        "type": "t_address"
      },
      {
        "astId": 10933,
        "contract": "contracts/Supra/SupraPushOracle.sol:SupraPUSHOracle",
        "label": "sValueFeed",
        "offset": 0,
        "slot": "1",
        "type": "t_contract(ISupraSValueFeed)10922"
      },
      {
        "astId": 10935,
        "contract": "contracts/Supra/SupraPushOracle.sol:SupraPUSHOracle",
        "label": "supraValueFeedAddress",
        "offset": 0,
        "slot": "2",
        "type": "t_address"
      },
      {
        "astId": 10939,
        "contract": "contracts/Supra/SupraPushOracle.sol:SupraPUSHOracle",
        "label": "isValidPair",
        "offset": 0,
        "slot": "3",
        "type": "t_mapping(t_uint256,t_bool)"
      }
    ],
    "types": {
      "t_address": {
        "encoding": "inplace",
        "label": "address",
        "numberOfBytes": "20"
      },
      "t_bool": {
        "encoding": "inplace",
        "label": "bool",
        "numberOfBytes": "1"
      },
      "t_contract(ISupraSValueFeed)10922": {
        "encoding": "inplace",
        "label": "contract ISupraSValueFeed",
        "numberOfBytes": "20"
      },
      "t_mapping(t_uint256,t_bool)": {
        "encoding": "mapping",
        "key": "t_uint256",
        "label": "mapping(uint256 => bool)",
        "numberOfBytes": "32",
        "value": "t_bool"
      },
      "t_uint256": {
        "encoding": "inplace",
        "label": "uint256",
        "numberOfBytes": "32"
      }
    }
  }
}